:020000040800F2
:1000000000070020F1020008792200082D220008D4
:10001000552200082D2200084D220008F302000896
:10002000F3020008F3020008F3020008254E00085E
:10003000F3020008F3020008F3020008F3020008CC
:10004000F3020008F3020008F3020008F3020008BC
:10005000F3020008F3020008E966000815670008CB
:10006000416700086D6700089967000819280008B3
:10007000412800086D28000899280008C5280008B4
:10008000ED28000819290008F3020008F30200080F
:10009000F3020008F3020008F3020008C567000835
:1000A000F3020008F3020008F3020008F30200085C
:1000B000F3020008F3020008F3020008F30200084C
:1000C000F3020008F3020008F3020008F30200083C
:1000D000F3020008F3020008B1680008F302000808
:1000E00029680008F3020008F3020008F302000880
:1000F000F3020008F3020008F30200084529000893
:10010000F3020008F3020008C5680008F3020008C3
:10011000F3020008F3020008F3020008F3020008EB
:100120007129000899290008C5290008F12900084B
:100130001D2A0008F3020008F3020008F302000879
:10014000F3020008F3020008F3020008F3020008BB
:10015000452A0008712A00089D2A0008F3020008B9
:10016000F3020008F3020008F3020008F30200089B
:10017000F3020008AD5B0008F3020008F302000878
:10018000F3020008F3020008F3020008F30200087B
:10019000F3020008F3020008F3020008F30200086B
:1001A000F3020008F3020008F3020008F30200085B
:1001B0009D680008F3020008F3020008F30200083B
:1001C000F3020008F3020008F3020008F30200083B
:1001D000F3020008995B0008F3020008F30200082C
:1001E000F3020008F3020008F3020008F30200081B
:1001F000F3020008F3020008F3020008F30200080B
:10020000F3020008F3020008F3020008F3020008FA
:10021000F3020008F3020008F3020008F3020008EA
:10022000F3020008F302000819500008F302000866
:10023000F3020008F3020008F3020008F3020008CA
:10024000F3020008F3020008F3020008F3020008BA
:10025000F3020008F3020008F3020008F3020008AA
:10026000F3020008F3020008F3020008F30200089A
:10027000F3020008F3020008F3020008F30200088A
:10028000F3020008F3020008F3020008F30200087A
:10029000F3020008F3020008F3020008F30200086A
:1002A000F3020008F3020008F3020008F30200085A
:1002B000F3020008F3020008F3020008F30200084A
:1002C000F3020008F3020008F3020008F30200083A
:1002D000F3020008F3020008F3020008F30200082A
:1002E000D5040008F51E00080522000800000000E3
:1002F00002E000F000F8FEE772B6374880F30888A5
:10030000364880F3098836483649086040F20000D4
:10031000CCF200004EF63471CEF200010860BFF35B
:100320004F8FBFF36F8F40F20000C0F2F0004EF627
:100330008851CEF200010860BFF34F8FBFF36F8F7B
:100340004FF00000E1EE100A4EF63C71CEF20001D3
:100350000860062080F31488BFF36F8F04F0C4FD9B
:1003600005F09EFF4FF055301F491B4A91423CBF9C
:1003700041F8040BFAE71D49184A91423CBF41F885
:10038000040BFAE71A491B4A1B4B9A423EBF51F82D
:10039000040B42F8040BF8E700201849184A914270
:1003A0003CBF41F8040BFAE704F0DCFD05F0ECFF7C
:1003B000144C154DAC4203DA54F8041B8847F9E796
:1003C00000F050F8114C124DAC4203DA54F8041B03
:1003D0008847F9E704F0C4BD00070020002300208F
:1003E0000000000808ED00E00001002000070020E8
:1003F0001072000800230020C8230020C82300201A
:10040000284C0020E0020008EC020008EC02000882
:10041000EC0200082DE9F04F2DED108AC1F80CD048
:10042000D0F80CD0BDEC108ABDE8F08F002383F328
:1004300011882846A047002003F034FEFEE703F0B1
:1004400073FD00DFFEE70000054B10B504460360B6
:10045000806810B103685B689847204610BD00BFF4
:10046000186C000870B500F0A1FD00F097FF04F0D3
:10047000B7FB054604F0CCFC0446B8B9134B9D42CB
:1004800016D001339D4241F2883512BF0446002543
:1004900001240F4E002004F0ADFB304601F04CFB70
:1004A00040B944F6206003F003FEF6E70025F0E7CC
:1004B0000546EEE70CB100F08FF800F00DFF28467E
:1004C00000F038F900F088F8F9E700BF010007B044
:1004D000C82300200448054B054A03600023054952
:1004E000836006F049BA00BFC8230020186C0008DA
:1004F000002600204904000808B500F023FDA0F103
:1005000020035842584108BD07B5042101900DEB66
:10051000010000F035FD03B05DF804FB07B541F2C2
:100520001203022101A8ADF8043000F029FD03B048
:100530005DF804FB38B5302383F31188174803684E
:100540000BB103F093FE0023154A4FF47A71134860
:1005500003F082FE002383F31188124C236813B149
:100560002368013B2360636813B16368013B6360E8
:100570000D4D2B7833B963687BB9022000F0DCFDA8
:10058000322363602B78032B07D163682BB90220D9
:1005900000F0D2FD4FF47A73636038BD5824002018
:1005A000350500087825002070240020084B1870BD
:1005B00003280CD8DFE800F008050208022000F04C
:1005C000B3BD022000F0A6BD024B00225A60704766
:1005D0007024002078250020F7B54E4801A901F0CD
:1005E0002BFC002800F094804B4B4C4A1C461968A9
:1005F000013100F08A8004339342F8D16268484B9D
:100600009A4240F28280474B9B6803F1006303F5F6
:1006100000339A4279D2002000F0EEFC0220FFF76E
:10062000C5FF414B00219A6C99641A6F19671A6FC4
:10063000DA6CD9645A6F59675A6F1A6D19659A6FD7
:1006400099679B6F394BD3F8802042F00062C3F862
:100650008020D3F8802022F00062C3F88020D3F8F5
:100660008020D3F8802042F00072C3F88020D3F8B5
:10067000802022F00072C3F88020D3F8803072B658
:100680004FF0E023C3F8084DD4E90004BFF34F8FC7
:10069000BFF36F8F264AC2F88410BFF34F8F5369A0
:1006A00023F480335361BFF34F8FD2F8803043F689
:1006B000E076C3F3C905C3F34E335B0103EA060CCE
:1006C00029464CEA81770139C2F87472F9D2203B8D
:1006D00013F1200FF2D1BFF34F8FBFF36F8FBFF332
:1006E0004F8FBFF36F8F536923F40033536100239F
:1006F000C2F85032BFF34F8FBFF36F8F302383F3B5
:100700001188854680F308882047024800F0DCFE07
:1007100003B0F0BDC823002000000208200002083A
:10072000FFFF010800230020004502580044025842
:1007300000ED00E02DE9F04FB04B9DB02022FF21ED
:10074000079014A89E68DB68069300F06FFDAC4A22
:100750001378A3B90121AB4811700360302383F3F0
:10076000118803680BB103F081FD0023A64A4FF402
:100770007A71A44803F070FD002383F31188079B6E
:1007800013B1A24B079A1A60A14A1378032B03D026
:10079000002313709D4A53600023079D1F469B460C
:1007A000CDE90433012000F0BFFC25B1974B1B6855
:1007B000002B00F05783002000F0C4FB0C900C9B32
:1007C000002BF2DB012000F0A5FC0C9B213B1F2B32
:1007D000E8D801A252F823F059080008810800085F
:1007E00017090008A5070008A5070008A5070008C5
:1007F000C50B0008DF0D0008810C00085D0D000826
:10080000830D0008A90D0008A5070008BB0D00080E
:10081000A5070008270E0008F9080008A50700082A
:100820006B0E0008AB090008E30A0008A5070008E2
:10083000D50C0008A5070008A5070008A5070008B3
:10084000A5070008A5070008A5070008A5070008D8
:10085000A5070008170900080220FFF74DFE002831
:1008600040F02B83079B0221059A0FA8002A08BF9E
:100870001D4641F21233ADF83C3000F081FB91E7A8
:100880004FF47A7000F05EFB041EEBDB0220FFF7F2
:1008900033FE0028E6D0013C052C00F21083DFE88F
:1008A00004F0030A0D101337052304210FA80F933A
:1008B00000F066FB17E004215048F9E70421554891
:1008C000F6E704215448F3E74FF01C08404608F1CE
:1008D000040800F093FB04210F900FA800F050FBD8
:1008E000B8F12C0FF2D10120049B4FF0000B00FA5D
:1008F00004F41C43E3B2049300F0E4FC2FB1049B26
:1009000003F00B030B2B08BF0025FFF707FE49E799
:1009100004214248CCE7002FA4D0049B03F00B0332
:100920000B2B9FD10220FFF7E7FD0446002899D04A
:100930000120002700F060FB0220FFF737FE1FFABE
:1009400087F8404600F068FB0546B0B10C99404678
:100950000137A1F140025142514100F06DFB0028E6
:10096000EDD10546059441F2121302210FA8274646
:10097000ADF83C3000F004FB14E72E460120FFF7F1
:1009800015FE1E4B9B68B34207D9304600F036FB7C
:10099000013040F097820436F3E700261C4B2746CF
:1009A00005941E70194B5E60A6E7002F3FF45AAF06
:1009B000049B03F00B030B2B7FF454AF64210DA8B1
:1009C00000F0D4FA804600287FF44CAF0220FFF7F5
:1009D00093FD044600283FF445AFDFF848908DF8BA
:1009E0002F80D9F82420D9F8203053430D9A934210
:1009F0001AD20B4800F0AAFB34E700BF0023002006
:100A00007425002058240020350500087825002092
:100A10007024002004230020082300200C23002041
:100A2000BC6A0008C8230020BE484746C24600F002
:100A30008DFBFFF773FD01210DF12F0000F0A0FAEF
:100A40000D9B534541D900230EAA39464846CDE9AE
:100A50000E330FAB00F03CFD002884D001F014FCF5
:100A60000E9B00EB030801210DF12F0000F088FA26
:100A700001F00AFC404520D9484600F063FF80B9E8
:100A800064210D9BA848013701FB0AF1B1FBF3F18A
:100A90008DF82F10C9B200F059FBD9F820309A44D4
:100AA000CEE701F0F1FB0F9B184440453FF65BAFEA
:100AB00001F0EAFB0E9B00EB03080E9B4FF47A70EB
:100AC000A3FB000303F0F4FACDE7642301210DF149
:100AD0002F0027468DF82F3000F052FA002306939E
:100AE0000AE7002F3FF4BEAE049B03F00B030B2B71
:100AF0007FF4B8AE0220FFF759FD322000F022FA51
:100B0000041EFFF6AFAE069BA046E3180893874B82
:100B1000089ADB689A423FF6A5AEB4F5807F3FF7AE
:100B2000A1AEDFF80CA24FF000094C450EDD4FF4EA
:100B30007A7000F007FA0C900C9B002BFFF692AE37
:100B40000C9B09F101090AF8013BEEE7C820FFF709
:100B5000D3FC044600283FF485AE0027DFF8D4918B
:100B6000CDE90E77B8F1000F02D12746089BB6E712
:100B70000FAB6F4A0699484602930EAB3A4439448C
:100B800001930DAB0093434601F0BEF800283FF4FB
:100B9000EAAE01F07BFB0D9B8A4609901F44A8EB4F
:100BA000030801F073FB099A0E9B9B184AF100029F
:100BB000834272EB0103F4D2484600F0C3FE0028E2
:100BC000EFD1CFE7002F3FF44DAE049B03F00B03B2
:100BD0000B2B7FF447AE0220FFF7E8FC322000F039
:100BE000B1F9B0F10008FFF63DAE18F003047FF450
:100BF00039AE4E4A08EB0603926893423FF632AE96
:100C0000B8F5807F3FF72EAEDFF82491A0450DDDCB
:100C10004FF47A7000F096F90C900C9B002BFFF6C5
:100C200021AE0C9B013409F8013BEFE7C820FFF728
:100C300063FC044600283FF415AE1F2E11D8C6F100
:100C4000200214AB26F0030039494245184428BF5E
:100C50004246089200F0B8FA089AFF21344800F0A2
:100C6000E5FAC8F38702324930464FEAA80900F096
:100C7000E5FA074600283FF476AE06EB89063BE628
:100C80000220FFF739FC00283FF4ECAD00F0F2F948
:100C900000283FF4E7AD0024A046244B9B68A34204
:100CA00058D91F2C11D8149B01330ED024F0030304
:100CB0001CAA134453F8203C0F93404604220FA96A
:100CC000043401F01FF98046E7E7204600F096F96A
:100CD0000F90F2E764210EA800F048F904460028BE
:100CE0007FF4C0AD0220FFF707FC00283FF4BAAD47
:100CF0000E9BA046DFF83CA003F003090E99A1EB80
:100D00000901A14218D9214604230FAA504601F037
:100D100047F8404604220FA901F0F4F80434804655
:100D2000ECE700BFE16A0008F96A00080023002030
:100D300074240020C8230020B9F1000F0AD04B46CC
:100D40000FAA624801F02CF840464A460FA901F06C
:100D5000D9F880464046FFF7D7FBCDE50023642154
:100D60000FA80F9300F002F900287FF47BAD02205A
:100D7000FFF7C2FB00283FF475AD0F9800F070F943
:100D8000E9E7002364210FA80F9300F0EFF8002893
:100D90007FF468AD0220FFF7AFFB00283FF462AD9F
:100DA0000F9800F05FF9D6E70220FFF7A5FB0028B7
:100DB0003FF458AD00F06EF9CDE70220FFF79CFB41
:100DC00000283FF44FAD0FA9142000F069F90890F6
:100DD000FFF79AFB08990FA800F0D2F88CE53220B3
:100DE00000F0B0F8041EFFF63DADA3077FF43AAD66
:100DF000374A04EB0B03926893423FF633AD02206F
:100E0000FFF77AFB00283FF42DAD24F003045C4487
:100E1000A3453FF471AD58460BF1040B00F0EEF81A
:100E2000FFF772FBF4E74FF47A70FFF765FB0028D9
:100E30003FF418AD00F01EF9002845D0149B013393
:100E40000BD0082214A9002000F0F8F900283BD0AC
:100E50002022FF2114A800F0E9F9FFF75FFB1D48ED
:100E600003F026F91DB0BDE8F08F002F3FF4FAAC77
:100E7000049B03F00B030B2B7FF4F4AC00236421E1
:100E80000FA80F9300F072F8044600287FF4EAAC34
:100E90000220FFF731FB804600283FF4E3ACFFF768
:100EA0003DFB41F2883003F003F90F9800F054FA4B
:100EB0004746254600F006FA74E407461CE54FF065
:100EC000000BCFE405944EE53C464CE5C8230020DA
:100ED00000230020A08601002DE9F84F4FF47A731B
:100EE00006460D46002402FB03F7DFF85080DFF8CA
:100EF000509098F900305FFA84FA5A1C01D0A3424E
:100F000012D159F824002A4631460368D3F820B09C
:100F10003B46D847854207D1074B012083F800A004
:100F2000BDE8F88F0124E4E7002CFBD04FF4FA7001
:100F300003F0BEF80020F3E7C425002010230020B2
:100F400014230020002307B5024601210DF10700FC
:100F50008DF80730FFF7C0FF20B19DF8070003B000
:100F60005DF804FB4FF0FF30F9E700000A4604216A
:100F700008B5FFF7B1FF80F00100C0B2404208BDE4
:100F8000074B0A4630B41978064B53F82140014606
:100F900023682046DD69044BAC4630BC604700BF87
:100FA000C425002014230020A086010070B5104C39
:100FB0000025104E03F0C0FB208030682388834258
:100FC0000CD800252088013803F0B2FB23880544A3
:100FD000013BB5F5802F2380F4D370BD03F0A8FB4F
:100FE000336805440133B5F5003F3360E5D3E8E7E6
:100FF000C62500208025002003F06CBC00F10060B5
:1010000000F500300068704700F10060920000F5C4
:10101000003003F0EDBB0000054B1A68054B1B8840
:101020009B1A834202D9104403F082BB0020704710
:1010300080250020C625002038B50446074D29B17B
:1010400028682044BDE8384003F08ABB2868204463
:1010500003F074FB0028F3D038BD00BF80250020CA
:101060000020704700F1FF5000F58F10D0F8000805
:1010700070470000064991F8243033B1002308225C
:10108000086A81F82430FFF7BFBF0120704700BF16
:1010900084250020014B1868704700BF0010005CD9
:1010A000194B01380322084470B51D68174BC5F36E
:1010B0000B042D0C1E88A6420BD15C680A46013C2D
:1010C000824213460FD214F9016F4EB102F8016B40
:1010D000F6E7013A03F10803ECD181420B4602D254
:1010E0002C2203F8012B0424094A1688AE4204D1AD
:1010F000984284BF967803F8016B013C02F1040228
:10110000F3D1581A70BD00BF0010005C1C230020F2
:10111000346B0008022803D1024B4FF400129A618D
:10112000704700BF00180258022802D1014B20224C
:101130009A61704700180258022804D1024A536984
:1011400083F0200353617047001802580FB4124B0C
:1011500030B51A78B5B042B90122104910481A705A
:101160004FF461430B6002F067F939AB0C4C389ACD
:10117000C82102A8019301F057F82368C828024645
:10118000DD6902A9074B28BFC8222046A84735B011
:10119000BDE8304004B07047C8250020CC250020B1
:1011A000A8260020A086010070B504464FF47A7688
:1011B0004CB1412C254628BF412506FB05F0641B98
:1011C00002F076FFF4E770BD002310B5934203D020
:1011D000CC5CC4540133F9E710BD0000013810B5F0
:1011E00010F9013F3BB191F900409C4203D11AB183
:1011F0000131013AF4E71AB191F90020981A10BDB3
:101200001046FCE70138013910F9013F11F9012FAF
:101210000BB19342F8D0981A70470000034602467B
:10122000D01A12F9011B0029FAD170470244034673
:10123000934202D003F8011BFAE770472DE9F84307
:101240001F4D14460746884695F8242052BBDFF808
:1012500070909CB395F824302BB92022FF2148468A
:101260002F62FFF7E3FF95F824004146C0F1080222
:1012700005EB8000A24228BF2246D6B29200FFF7BB
:10128000A3FF95F82430A41B17441E449044E4B2F5
:10129000F6B2082E85F82460DBD1FFF7EBFE0028BC
:1012A000D7D108E02B6A03EB82038342CFD0FFF74C
:1012B000E1FE0028CBD10020BDE8F8830120FBE748
:1012C00084250020024B1A78024B1A70704700BF29
:1012D000C42500201023002038B51A4C1A4D204692
:1012E00002F04CF92946204602F074F92D684FF4BB
:1012F0007A70D5F89020D2F8043843F00203C2F88F
:101300000438FFF751FF1149284602F071FAD5F869
:1013100090200F4DD2F80438286823F002030D49BD
:10132000A042C2F804384FF4E1330B6001D002F060
:1013300083F86868A04204D00649BDE8384002F04E
:101340007BB838BD882D00205C6F0008646F0008F2
:1013500014230020AC2500200C4B70B50C4D044626
:101360001E780C4B55F826209A420DD00A4B0021CE
:1013700018221846FFF75AFF0460014655F8260068
:10138000BDE8704002F058B870BD00BFC425002011
:1013900014230020882D0020AC250020F8B571B65C
:1013A000002301201A46194601F016FC044680204D
:1013B00003F032FB002845D00025234A80274FF454
:1013C000D06C3D26136923BBD2F810310BBB2368C8
:1013D00005F1006199602368D86023685F60236825
:1013E000C3F800C021680B6843F001030B6021685B
:1013F0000B6823F01E030B6021680B68DB07FCD42D
:10140000237B8035616806FA03F3B5F5001F0B6096
:10141000D8D1204601F016FCB5F5001F11D00024EC
:101420000A4E0B4D012003F055FA3388A34205D92B
:1014300028682044013403F093F9F6E7002003F014
:1014400049FA61B6F8BD00BF00200052C625002051
:101450008025002080697047C0697047006A704726
:10146000406A7047806A7047F0B5ADF2044D0E4691
:10147000054600214FF47F7201A80091FFF7D6FEC8
:101480002C6A744301362B6A7343A34216D92B6826
:101490006A46214628465F684FF48063B84770B1BA
:1014A0006A464FF4806312F8011BFF290AD1013B01
:1014B0009BB2002BF7D104F58064E4E701200DF224
:1014C000044DF0BD0020FAE780680368DB69184727
:1014D00030B5456A85B004468D420FD30568CDE925
:1014E0000023026A03ABAD6A5143A84720B1206ACA
:1014F000039BC31A5842584105B030BD0020FBE79A
:10150000F0B5C56987B004468D4212D30C9F866939
:1015100005687143CDE9013705AB00936D69036A36
:10152000A84720B1A069059BC31A5842584107B08B
:10153000F0BD0020FBE70000F0B5662389B0002471
:1015400005464FF480768068079403A9CDE90336F9
:10155000CDE9054403685B699847A868224621469F
:10156000036800941F692346B847A8689923079425
:1015700003A9CDE90336CDE9054403685B699847C3
:10158000A86822462146036800941D692346A8479F
:1015900009B0F0BD254B2DE9F04F1B789FB0002519
:1015A00004468DF828304FF09F0E80684FF00123DD
:1015B000ADF8295005A90995CDE905E3CDE9075511
:1015C00003685B699847A068032229460368009274
:1015D0002A461E690AABB04730B394F88C200C2120
:1015E000134B01FB02339DF828101A7991421BD14D
:1015F0009DF829205B799A4216D1A0684FF05A0CC9
:101600000C4B082605A90996CDE905C3CDE9075578
:1016100003685B699847A0682A46294603680096D4
:101620001F690AABB84738B900204BE1A46A00082B
:10163000EC6B0008002500010422B3490AA805F05C
:10164000D5F905460028EFD1BDF82C306FF482772C
:10165000A3813B44012BE7D8079605A9CDE90A00F1
:10166000A06803685B699847A0682A462946036812
:1016700000961E690AABB0470028D5D0DDE90A36CE
:101680001A0202F4706242EA1662FF2ACCD11B0EE3
:1016900026F07F4650222946142B26610AA828BF2F
:1016A0001423A373FFF7C2FDA068079605A903687A
:1016B0005B699847A068A37B294602689B0000935A
:1016C0000AAB16692A46B0470028ADD00B9900290D
:1016D000AADBC9086FF07E43149D4FF0010E9942BA
:1016E00028BF1946C5F303130EFA03F221FA03F3D8
:1016F00003916161A261E361002B95D02646A44667
:1017000000274FF002081EAAC7F3460302EB83032B
:1017100053F834AC07F001031B01DA1D0EFA03F98C
:1017200008FA02F2A2EB090202EA0A02DA401AD02F
:1017300003F108090F330EFA02F2216A08FA03F3E3
:101740000EFA09FBCCF830208A42A3EB0B0B0BEA14
:101750000A0A2AFA09F98CF82C90A36A88BF226237
:10176000934288BFA26201370CF1100C042FCAD13A
:10177000236A4FF0020C039A4FF0010E139F9A4216
:1017800024BFB2FBF3F1616207F00F0138BF012300
:101790004FF0090201F1010138BF63624900336B68
:1017A00033B3531C0EFA02F8A2F105090CFA03F345
:1017B0000EFA09FAA3EB080302F1FF380CFA08F855
:1017C0003B40A8EB0A08D34008EA070828FA09F8C2
:1017D0007BD0012B7BD0022B7BD0032B08BF4FF497
:1017E0007A735FFA88F808FB033373634B43B36380
:1017F00007321036252AD2D115F0C04FC5F34173F8
:1018000069D0012B69D0022B0CBF4FF47A634FF4DF
:101810007A43C5F3046202FB0333E3664B43236759
:10182000199B9E075CD0062384F8743015F4005F82
:1018300005F00F03C5F3042514BF4022082201332D
:1018400005FB02255B00A5675D430A9B9F02E567D8
:101850007FF5EAAE0C9BC3F30722C3F3421103F0FA
:101860001F0384F8802084F8881084F88130002ACF
:101870003FF4DAAE189BC3F3025213F4401F84F80E
:1018800083207FF4D1AEDE0602D5042A7FF4CCAEED
:1018900003F40072002A14BF0122002284F887207A
:1018A00004D0DD0324D5002384F88930179B1A0760
:1018B00022D5002384F88630702384F885300123F4
:1018C00084F88D301FB0BDE8F08F012389E7102325
:1018D00087E7802385E710239BE74FF4807398E721
:1018E000590701D550239FE713F0780F9ED09BE650
:1018F0009903DBD50123D7E75B07E0D5012384F803
:1019000086300523D9E700BF446B000830B58BB0A3
:1019100000240546806803924FF00122059105A935
:10192000CDE90624CDE90844026852699047A868C9
:101930000121039B02680091214615692246A847B0
:101940000BB030BD13B50446A0680368DB6C984744
:101950000028F9D10DF1070294F885102046FFF711
:10196000D5FF94F886309DF807001BB100F0010008
:1019700002B010BDC043C0F3C010F9E730B54FF05E
:1019800001238BB00024054680688DF80F20059157
:1019900005A9CDE90634CDE9084403685B69984799
:1019A000A86801220DF10F01036800941D69234608
:1019B000A8470BB030BD0000F7B517460DF1070280
:1019C00006461D46FFF7A2FF68B19DF8074039465D
:1019D0009DF82020304624EA05042A4022438DF851
:1019E0000720FFF7CBFF03B0F0BD000030B54FF488
:1019F000807389B0002405468068039103A9CDE96E
:101A00000434CDE9064403685B699847A868224618
:101A10002146036800941D692346A84709B030BDDC
:101A200010B5044623682046DB6A98470028F9D1A0
:101A300010BD000010B590F8743004465BB1FFF79C
:101A4000EFFF012394F87410204684F88E30BDE82F
:101A50001040FFF7CBBF012010BD000010B590F87B
:101A60007430044653B1FFF7DBFF01232046042105
:101A700084F88E30BDE81040FFF7B8BF012010BDDC
:101A8000F0B590F883308BB00446042B50D100277A
:101A90000DF10E0205218DF80E708DF80F70FFF715
:101AA00035FF00282FD00DF10F0235212046FFF71A
:101AB0002DFF40B320461F4EFFF7BCFF2046FFF727
:101AC000AFFF05AD0FCE0FC5336805A99DF80E20F9
:101AD0002B609DF80F30A06843F002038DF81020B2
:101AE0008DF80F308DF8113003685B699847A06856
:101AF000022204A9036800971D693B46A84720B944
:101B00002046FFF7ABFF002010E02046FFF7A6FFBE
:101B10000DF10F0235212046FFF7F8FE0028F2D024
:101B20009DF80F309B07EED5012363600BB0F0BD2D
:101B30000120FBE7A86A00082DE9F34100230446D1
:101B40008068A36010B103685B6898470025264E43
:101B5000264F0C2301A839465FFA85F86B439A5942
:101B600000F072FA019BA0680022A360019210B1FC
:101B700003685B689847019810B103685B689847F1
:101B8000A368E3B141F2883084F88C8002F090FAC7
:101B90002046FFF7D1FC1E2002F08AFA2046FFF70C
:101BA000F9FC054688B994F88C300C221048534350
:101BB000F158FFF7CBFA284602B0BDE8F0810135B5
:101BC000032DC6D10B4800F059FB2046FFF758FF04
:101BD0000C2294F88C3005465343F15808B9064856
:101BE000E7E70648E5E700BFEC6B0008E4250020C6
:101BF0004C6B0008C26B0008766B0008A06B0008F5
:101C00002DE9F041044688B00F461646FFF712FF53
:101C10002046FFF705FF0025C722A0684FF4807318
:101C2000079503A9CDE90323CDE9055503685B6951
:101C30009847A0682A46294603680095D3F8108083
:101C40002B46C047054630B92046FFF707FF284618
:101C500008B0BDE8F081E36E3B60236F3360F3E7CB
:101C60002DE9F041002588B01F4604460E460E9B24
:101C700000F1400CA8463D60016B81B1A9420ED332
:101C800091420CD8B6FBF1FE01FB1E6139B9416BE4
:101C900090F82C800F9D1960816B296015461030DB
:101CA0006045E9D16DB3AB196269934229D82046EA
:101CB000FFF7C0FE2046FFF7B3FE4FF41453A068B1
:101CC00003A9CDF80C80CDE904360026CDE90666DF
:101CD00003685B699847A0683246314603680096FE
:101CE000D3F810803346C047064620462EB9FFF78A
:101CF000B5FE304608B0BDE8F081FFF7AFFE3D60AD
:101D0000F7E70026F5E700002DE9F0418669054672
:101D100088B00F46B3429046B1FBF6FC06FB1C1C94
:101D200028BF3346A6EB0C0C00269C45644628BF12
:101D30001C46FFF77FFE2846FFF772FE0222A868C6
:101D400003A9164B0597CDE90323CDE90666036881
:101D50005B699847A86822464146036800961F6958
:101D60003346B847064628462EB9FFF777FE304679
:101D700008B0BDE8F081FFF771FE0E9B1C60AB6FF1
:101D8000AA696343B3FBF2F30F9A1360EA6F109BE7
:101D90005443AA69B4FBF2F41C60E8E70025000193
:101DA0002DE9F04FCE18436989B004469E420F4694
:101DB000914639D83D464FF40458DFF878A0FFF734
:101DC0002FFEAE4234D994F88030A6EB050B94F880
:101DD000882003A903930023BBF5806FA0680693B6
:101DE000636828BF4FF4806B0595012B14BF4346F1
:101DF0005346012A049394F8813008BF03F1FF335E
:101E0000079303685B699847A068A9EB070302681A
:101E1000CDF800B02B44D2F810B000221146D847BC
:101E200018B105F58065CCE7002009B0BDE8F08F5A
:101E30000120FAE700ED0003F0B5044689B00E4634
:101E4000FFF7EEFD94F887502DB194F889302BB14F
:101E5000012B24D00025284609B0F0BD94F880302D
:101E60000393F02306934FF4045304936368012B08
:101E700004BF1D4B04930023059394F88130A068A0
:101E800003A9079303685B699847A0683146036814
:101E90009B6998470546642002F00AF9DBE7204673
:101EA0000027FFF7C7FD2046FFF7BAFD0823812270
:101EB000852120460097FFF77FFD054618B920468B
:101EC000FFF7CCFDC7E794F8803006970393074BE4
:101ED00004936368012B04BF054B0493002305930F
:101EE00094F88130013BCAE700ED000300210010A7
:101EF00000ED0013014B024A1A607047E4250020F0
:101F0000146D000830B50A44084D91420DD011F807
:101F1000013B5840082340F30004013B2C4013F0E0
:101F2000FF0384EA5000F6D1EFE730BD2083B8ED1F
:101F30007047000070470000002070470020704785
:101F400013B56C4600F1140384E8060094E803001E
:101F500083E8050002B010BD0020704713B56C4641
:101F600000F10C0384E8060094E8030083E8050010
:101F700002B010BD0023C0E90333704782B002AB4A
:101F800003E9060002B07047704700000020704768
:101F90007047000000207047002070470120704704
:101FA00082B0002002A901E90C0002B070470000D5
:101FB0000020704700207047036B1A79034B53F8D9
:101FC00032309B699868C0F340107047AC6C0008D1
:101FD0000B6883634B6843638B68C363CB6803649C
:101FE0000B6943647047000038B5036B0446154D18
:101FF0001B7955F8330001F0FBFED4E90B231B7964
:1020000055F8331002F130034968994218D0002383
:102010001363E26A5363D4E90B12537C581E137C9A
:1020200092681B0443EA002313438B63D4E90B1328
:102030001B79303155F83300BDE8384001F06CBEF3
:1020400038BD00BFAC6C0008F8B51D4F05460E4604
:1020500011463868FFF7D6F878BB74683B7924B32B
:1020600094F82C209A420BD02468F8E70122B5217D
:1020700000F00EF9736823603B79746084F82C30AB
:10208000482004F083FC68B100220271C0E90322F9
:10209000C0E90522027A42F007020272094AC0E949
:1020A0000B47026028602846F8BD402004F06EFC13
:1020B00004460028DAD12C60F5E700232B60F2E714
:1020C000EC250020BC6C0008044B10B504460360EE
:1020D000406A08B104F058FC204610BD606C00084E
:1020E00010B50446FFF7F0FF204604F04BFC2046F5
:1020F00010BD000008B519B1FFF776FF012008BD3B
:10210000036B1A79024B53F8320001F075FEF5E7C4
:10211000AC6C00082DE9FF41DDF828800546174624
:1021200003911FFA88F60293FFF75EFF02ABBAB283
:1021300003A9E86A009600F0BFF8044638B9002108
:102140002846FFF7D7FF204604B0BDE8F081AFB9BD
:102150002B6B05F134011A79134B53F83200B8F1A7
:10216000000F19D101F0E6FD80F00104E4B233461E
:10217000E86ADDE9022100F0C5F8E0E7029B83B9D7
:102180002B6B3A46084805F134011C79039B50F843
:10219000340001F0E5FDE7E7029B424601F0F6FD61
:1021A000E2E70024E3E700BFAC6C000813B5044687
:1021B0000191FFF719FF019A236B04F1340118799B
:1021C000054B53F8300001F0F7FD00212046FFF7E2
:1021D00091FF012002B010BDAC6C000810B50446A0
:1021E000FFF702FF236B1A79054B53F8320001F019
:1021F000F1FD00212046FFF77DFF012010BD00BF4B
:10220000AC6C0008054B064A1A6000221A719A60ED
:10221000044ADA6040F21F121A827047EC2500204F
:10222000E36B000800E1F50500F07EBA00B59BB055
:10223000EFF3098168226846FEF7C6FFEFF30583D6
:10224000014B9B6BFEE700BF00ED00E008B5FFF718
:10225000EDFF000000B59BB0EFF3098168226846EE
:10226000FEF7B2FFEFF30583014B5B6BFEE700BFA8
:1022700000ED00E0FEE70000FEE700000FB408B547
:10228000029801F0BBFEFEE702F04CBC02F02EBC4F
:1022900038B5084B04461546017543600A212430C1
:1022A00002F004FD04F128002A460A2102F0FEFC97
:1022B000204638BD286D0008F8B51E461B68054647
:1022C0000C4617461BB9236863B9012408E0BDF822
:1022D00018203146806A02F001FD0028F3D1002465
:1022E0002046F8BD21463A46686A02F03DFD0446A4
:1022F0000028EAD13368002BF1D0A86A02F078FDFB
:10230000EEE7000038B50D46114604461A4611B1F5
:10231000806A02F01BFD2DB12946606ABDE8384095
:1023200002F05EBD38BD0000036800211B6818473D
:1023300003790BB1002202711846704703685B688D
:102340001847000003791BB9012303711846704731
:10235000002070477047000010B5044604F012FBDF
:10236000204610BDF0B500F10B0423460D46B1FB2D
:10237000F2F102FB115707F13006392EC8BF07F101
:102380003706954203F8016DF0D2421EE11A13F8A8
:10239000015B9C4202F8015FF9D10844F0BD0000E6
:1023A0002DE9F04F804687B015464FF000090C46E6
:1023B00014F8013B002B3BD0252B08D0D8F8002087
:1023C0001946404609F10109D268904749E14B7826
:1023D0002D2B06BF8C1C01230023019323782B2B6C
:1023E00006BF01340127002794F800A0BAF1300F8E
:1023F0000CBF01344FF0200A23782A2B1CD16178BE
:10240000023455F804BB2E2943D1217881B12A2901
:1024100021D0661C0020A1F130023446D2B2092A34
:102420001DD80A2316F8011B03FB00200029F2D156
:10243000484607B0BDE8F08F4FF0000B14F8011BC1
:102440000029F5D0A1F13002D2B2092ADBD80A2343
:1024500003FB0B2BF2E76178023455F8040B01F013
:10246000DF024C2A17D121780029E1D0782904F124
:1024700001041FD8622900F2008158291AD84E2978
:1024800000F23081442900F09180492900F08E80CB
:1024900010E00020E3E7A1F141027829D2B209D887
:1024A00062290BD8582905D84E293BD8442978D021
:1024B000492976D02E468DF80C1056E0A1F163061E
:1024C000152EF7D80FF2040C5CF826F05D250008F5
:1024D000A3250008B5240008B5240008B524000889
:1024E000B5240008A3250008B5240008B524000879
:1024F000B5240008B5240008B524000833260008D8
:1025000021270008B5240008B52400087325000819
:10251000B52400081D270008B5240008B5240008CC
:1025200021270008A1F14F02092AC3D801A050F8C1
:1025300022F000BF3326000821270008B524000838
:10254000B5240008B5240008B52400081D2700089C
:10255000B5240008B5240008212700082E464FF0B6
:10256000200A56F8042B8DF80C2003AD0DF10D0058
:102570002BE02E4647F6FF726A4B56F8045B0028A4
:1025800008BF1046002D08BF1D462A462F181046CA
:1025900012F8011B11B1B91A0029F8DA4FF0200A1C
:1025A00013E02E46192A56F8041B02D82E4656F878
:1025B000041B002936DA2D2249428DF80C200DF13A
:1025C0000D000A2203ADFFF7CDFE471B0199ABEBCF
:1025D000070323EAE372002945D1002BC2F1000B67
:1025E0001EDD29782D2901D02B290DD1BAF1300F0C
:1025F0000AD1D8F800304046019209F10109DB68A0
:10260000013F98470135019AD8F8003051464046BD
:102610000192DB6898471BF1010B019AF4D19144B8
:102620003B4615E01FB12B228DF80C20C7E703A80D
:10263000C7E708222E4603A856F8041BC2E7D8F8BD
:102640000020404615F8011BD26801939047019B7A
:10265000013BF4D5002FA8BFB9445D462DB9D9443C
:1026600035462146A3E69346DAE7D8F800305146CE
:102670004046013DDB689847F0E7A1F16302152A67
:102680003FF618AF01A353F822F000BF5D25000804
:10269000AD250008B5240008B5240008B5240008BD
:1026A000B5240008AD250008B5240008B5240008AD
:1026B000B5240008B5240008B52400083326000816
:1026C00021270008B5240008B52400087325000858
:1026D000B52400081D270008B5240008B52400080B
:1026E00021270008A1F14F02092A3FF6E3AE01A31A
:1026F00053F822F03326000821270008B5240008EB
:10270000B5240008B5240008B52400081D270008DA
:10271000B5240008B5240008212700080A2289E70B
:10272000102287E7406D0008F0B5054687B01646D1
:102730001F460C4689B14A1E0023294601A800F015
:102740005FF83A46314601A8FFF72AFE049BA342F0
:102750003CBF0022EA5407B0F0BD0A46ECE7000097
:10276000D0E902239A421FBF4268D154C3680133A3
:102770001ABFC36000206FF001007047D0E9032347
:102780009A421FBF4268D25C0133036114BF1046F6
:102790006FF001007047000003692BB1013B4268F4
:1027A00003610020D15470476FF0010070470000B2
:1027B00038B504460846D4E903315B1A934228BF72
:1027C00013461D4663682A461944FEF7FDFC23693B
:1027D00028462B44236138BD38B50446D0E9023081
:1027E0001B1A934228BF13461D4663682A461844A5
:1027F000FEF7EAFCE36828462B44E36038BD00009E
:1028000010B5C0E90223034C0023C0E90041036175
:1028100010BD00BF486D000808B5074B074A19688E
:1028200001F03D01996053680BB190689847BDE88D
:10283000084002F02FBB00BF000002400426002029
:1028400008B5084B1968890901F03D018A019A60B1
:10285000054AD3680BB110699847BDE8084002F0FB
:1028600019BB00BF000002400426002008B5084B39
:102870001968090C01F03D010A049A60054A536980
:102880000BB190699847BDE8084002F003BB00BF58
:10289000000002400426002008B5084B1968890D85
:1028A00001F03D018A059A60054AD3690BB1106AAF
:1028B0009847BDE8084002F0EDBA00BF00000240B2
:1028C0000426002008B5074B074A596801F03D016E
:1028D000D960536A0BB1906A9847BDE8084002F08E
:1028E000D9BA00BF000002400426002008B5084BFA
:1028F0005968890901F03D018A01DA60054AD36A05
:102900000BB1106B9847BDE8084002F0C3BA00BF96
:10291000000002400426002008B5084B5968090C45
:1029200001F03D010A04DA60054A536B0BB1906B6C
:102930009847BDE8084002F0ADBA00BF0000024071
:102940000426002008B5084B5968890D01F03D01A7
:102950008A05DA60054AD36B0BB1106C9847BDE865
:10296000084002F097BA00BF000002400426002091
:1029700008B5074B074A196801F03D019960536C8F
:102980000BB1906C9847BDE8084002F083BA00BFD5
:10299000000402400426002008B5084B1968890984
:1029A00001F03D018A019A60054AD36C0BB1106DAC
:1029B0009847BDE8084002F06DBA00BF000402402D
:1029C0000426002008B5084B1968090C01F03D01E8
:1029D0000A049A60054A536D0BB1906D9847BDE8A3
:1029E000084002F057BA00BF00040240042600204D
:1029F00008B5084B1968890D01F03D018A059A60F8
:102A0000054AD36D0BB1106E9847BDE8084002F03F
:102A100041BA00BF000402400426002008B5074B5D
:102A2000074A596801F03D01D960536E0BB1906EB1
:102A30009847BDE8084002F02DBA00BF00040240EC
:102A40000426002008B5084B5968890901F03D01AA
:102A50008A01DA60054AD36E0BB1106F9847BDE862
:102A6000084002F017BA00BF00040240042600200C
:102A700008B5084B5968090C01F03D010A04DA60F9
:102A8000054A536F0BB1906F9847BDE8084002F0BC
:102A900001BA00BF000402400426002008B5084B1C
:102AA0005968890D01F03D018A05DA60054AD36F46
:102AB00013B1D2F880009847BDE8084002F0EAB9A7
:102AC000000402400426002000230C4910B51A46D9
:102AD0000B4C0B6054F82300026001EB43000433FD
:102AE0004260402BF6D1074A4FF0FF339360D3602A
:102AF000C2F80834C2F80C3410BD00BF0426002010
:102B0000606D0008000002400F28F8B510D91028A9
:102B100010D0112811D0122808D10F240720DFF877
:102B2000B4E00126DEF80050A04208D9002649E0B2
:102B30000446F4E70F240020F1E70724FBE706FA38
:102B400000F73D4240D1214C4FEA001C3D4304EBCD
:102B500000160EEBC000CEF80050C0E90123FBB216
:102B60004BB11B48836B43F001038363036E43F057
:102B700001030366036E17F47F4F09D01448836B7B
:102B800043F002038363036E43F002030366036EA4
:102B900054F80C00036823F01F030360056815F068
:102BA0000105FBD104EB0C033D2493F80CC05F68D6
:102BB00004FA0CF43C6021240560446112B1987B56
:102BC00000F06EFA3046F8BD0130ADE7606D0008E8
:102BD000004502580426002010B5302484F31188E3
:102BE000FFF792FF002383F3118810BD10B5044650
:102BF000807B00F06BFA01231049627B03FA02F23A
:102C00000B6823EA0203DAB20B604AB90C4A916BF3
:102C100021F001019163116E21F001011166126E24
:102C200013F47F4F09D1064B9A6B22F002029A638C
:102C30001A6E22F002021A661B6E10BD04260020D6
:102C40000045025808B5302383F31188FFF7CEFF03
:102C5000002383F3118808BD8A0710B504461DD5EB
:102C60000378042B1AD143681B682BB1052202702C
:102C700098472378052B01D102232370302383F357
:102C80001188002104F1080001F02CFA002383F3DD
:102C90001188E069BDE8104002F07CBACB0704D58A
:102CA0000248BDE8104001F0A9B910BD606E0008EF
:102CB00010B5044C204601F027F8034A0023C4E96C
:102CC000062310BD882600200050005210B503785E
:102CD0000446012B12D10E4B98420FD102460D49EA
:102CE000102002F029FA0C4BE0615A6B42F480424A
:102CF0005A63DA6D42F48042DA65DB6D6268A3697B
:102D000092685A60054A1A601B22DA6010BD00BF43
:102D100088260020592C00080045025815000201A1
:102D200082691B2310B5D360D1E9003013F44C4401
:102D300006D19B011461D06103F44043536110BD7F
:102D40000024184313F4406F1461CC68D4615061BF
:102D5000F5D08B689361F2E730B584691B25C069B3
:102D6000E5600068836104F12003C36102234261CE
:102D7000013A03614223C36016238362CB68226158
:102D8000E361D1E90023134312F4406F636101D082
:102D90008B68A361C36843F00103C36030BD0000CA
:102DA00030B5D0E90640006804F120058561C361B3
:102DB00008234261013A036146230D69C36016236B
:102DC0008362CB682261E361D1E90023134312F4EB
:102DD000406F43EA854343F08063636101D08B68B1
:102DE000A361C36843F00103C36030BD8069036819
:102DF00023F0040310B5CC68036000230361C461B1
:102E00008361D1E900430969234343EA814343F0E5
:102E10004063436112B14FF01043136010BD0000D6
:102E200083691A6842F002021A601A689207FCD499
:102E30001A6842F004021A607047000082699368C1
:102E400010B5D3609B0704461DD50378032B1AD118
:102E500043681B682BB10522027098472378052B25
:102E600001D102232370302383F31188002104F160
:102E7000080001F037F9002383F31188E069BDE809
:102E8000104002F087B910BD026843681143016029
:102E900003B1184770470000024A136843F0C003AB
:102EA000136070470044004013B50E4C204600F0FC
:102EB000B7FA04F1140000234FF400720A49009499
:102EC00000F074F9094B4FF40072094904F138001D
:102ED000009400F0EDF9074A074BC4E9172302B04C
:102EE00010BD00BFA826002014270020992E00083E
:102EF000142900200044004000E1F505037C30B5B2
:102F0000214C002918BF0C46012B0CD11F4B9842B5
:102F100009D11F4B9A6C42F400329A641A6F42F442
:102F200000321A671B6F2268036EC16D03EB5203F8
:102F30008466B3FBF2F36268150442BF23F0070511
:102F400003F0070343EA4503CB60A36843F0400363
:102F50004B60E36843F001038B6042F4967343F0E7
:102F600001030B604FF0FF330B62510505D512F0E2
:102F7000102205D0B2F1805F04D080F8643030BDFB
:102F80007F23FAE73F23F8E7706E0008A8260020A9
:102F9000004502582DE9F047C66D05463768F469CB
:102FA000210734621AD014F0080118BF4FF4807161
:102FB000E20748BF41F02001A3074FF0300348BFAC
:102FC00041F04001600748BF41F0800183F3118860
:102FD000281DFFF759FF002383F31188E2050AD566
:102FE000302383F311884FF48061281DFFF74CFFD5
:102FF000002383F311884FF030094FF0000A14F0DA
:10300000200838D13B0616D54FF0300905F1380AB3
:10301000200610D589F31188504600F07DF900286C
:1030200036DA0821281DFFF72FFF27F080033360D1
:10303000002383F31188790614D5620612D5302354
:1030400083F31188D5E913239A4208D12B6C33B14D
:1030500027F040071021281DFFF716FF37600023D7
:1030600083F31188E30618D5AA6E1369ABB15069D2
:10307000BDE8F047184789F31188736A284695F828
:103080006410194000F0E6F98AF31188F469B6E794
:10309000B06288F31188F469BAE7BDE8F0870000F0
:1030A000090100F16043012203F56143C9B283F8CD
:1030B000001300F01F039A4043099B0003F1604393
:1030C00003F56143C3F880211A60704700F01F03C5
:1030D00001229A40430900F160409B0000F56140E5
:1030E00003F1604303F56143C3F88020C3F88021F6
:1030F000002380F800337047F8B51546826804460F
:103100000B46AA4200D28568A1692669761AB542A3
:103110000BD218462A46FEF757F8A3692B44A36141
:103120002846A3685B1BA360F8BD0CD9AF1B1846EB
:103130003246FEF749F83A46E1683044FEF744F873
:10314000E3683B44EBE718462A46FEF73DF8E368A0
:10315000E5E7000083689342F7B50446154600D2C0
:103160008568D4E90460361AB5420BD22A46FEF7C8
:103170002BF863692B4463612846A3685B1BA3603B
:1031800003B0F0BD0DD93246AF1B0191FEF71CF81C
:1031900001993A46E0683144FEF716F8E3683B448B
:1031A000E9E72A46FEF710F8E368E4E710B50A44B9
:1031B0000024C361029B8460C16002610362C0E9B4
:1031C0000000C0E9051110BD08B5D0E905329342F1
:1031D00001D1826882B98268013282605A1C4261E0
:1031E00019700021D0E904329A4224BFC3684361B8
:1031F00000F092FF002008BD4FF0FF30FBE7000019
:1032000070B5302304460E4683F31188A568A5B136
:10321000A368A269013BA360531CA36115782269CE
:10322000934224BFE368A361E3690BB1204698474A
:10323000002383F31188284607E03146204600F03A
:103240005BFF0028E2DA85F3118870BD2DE9F74FA6
:1032500004460E4617469846D0F81C904FF0300AA8
:103260008AF311884FF0000B154665B12A463146A6
:103270002046FFF741FF034660B94146204600F073
:103280003BFF0028F1D0002383F31188781B03B0A3
:10329000BDE8F08FB9F1000F03D001902046C84778
:1032A000019B8BF31188ED1A1E448AF31188DCE729
:1032B000C160C361009B82600362C0E905111144D3
:1032C000C0E9000001617047F8B504460D46164696
:1032D000302383F31188A768A7B1A368013BA360DB
:1032E00063695A1C62611D70D4E904329A4224BF9A
:1032F000E3686361E3690BB120469847002080F3DF
:10330000118807E03146204600F0F6FE0028E2DA98
:1033100087F31188F8BD0000D0E9052310B59A4263
:1033200001D182687AB982680021013282605A1C18
:1033300082611C7803699A4224BFC368836100F0EC
:10334000EBFE204610BD4FF0FF30FBE72DE9F74FB5
:1033500004460E4617469846D0F81C904FF0300AA7
:103360008AF311884FF0000B154665B12A463146A5
:103370002046FFF7EFFE034660B94146204600F0C5
:10338000BBFE0028F1D0002383F31188781B03B023
:10339000BDE8F08FB9F1000F03D001902046C84777
:1033A000019B8BF31188ED1A1E448AF31188DCE728
:1033B000026843681143016003B118477047000079
:1033C0001430FFF743BF00004FF0FF331430FFF716
:1033D0003DBF00003830FFF7B9BF00004FF0FF33AA
:1033E0003830FFF7B3BF00001430FFF709BF00000B
:1033F0004FF0FF311430FFF703BF00003830FFF704
:1034000063BF00004FF0FF323830FFF75DBF0000B0
:10341000012914BF6FF0130000207047FFF744BD6F
:10342000044B036000234360C0E9023301230374AB
:10343000704700BF886E000810B53023044683F340
:103440001188FFF75BFD02230020237480F31188AD
:1034500010BD000038B5C36904460D461BB90421F0
:103460000844FFF7A5FF294604F11400FFF7ACFE5E
:10347000002806DA201D4FF40061BDE83840FFF750
:1034800097BF38BD026843681143016003B1184714
:103490007047000013B5406B00F58054D4F8A43891
:1034A0001A681178042914D1017C022911D11979E3
:1034B000012312898B4013420BD101A94C3002F039
:1034C000A7FCD4F8A4480246019B2179206800F0AB
:1034D000DFF902B010BD0000143002F029BC00007A
:1034E0004FF0FF33143002F023BC00004C3002F0E8
:1034F000FBBC00004FF0FF334C3002F0F5BC000085
:10350000143002F0F7BB00004FF0FF31143002F02E
:10351000F1BB00004C3002F0C7BC00004FF0FF329E
:103520004C3002F0C1BC00000020704710B500F51F
:103530008054D4F8A4381A681178042917D1017C72
:10354000022914D15979012352898B4013420ED19B
:10355000143002F089FB024648B1D4F8A4484FF475
:10356000407361792068BDE8104000F07FB910BD5C
:10357000406BFFF7DBBF0000704700007FB5124BC8
:1035800001250426044603600023057400F184022B
:1035900043602946C0E902330C4B0290143001937A
:1035A0004FF44073009602F03BFB094B04F6944243
:1035B000294604F14C000294CDE900634FF44073B6
:1035C00002F002FC04B070BDB06E00087135000856
:1035D000953400080A68302383F311880B790B3384
:1035E00042F823004B79133342F823008B7913B14F
:1035F0000B3342F8230000F58053C3F8A4180223CC
:103600000374002080F311887047000038B5037FF1
:10361000044613B190F85430ABB90125201D0221A6
:10362000FFF730FF04F114006FF00101257700F07F
:103630007FFD04F14C0084F854506FF00101BDE8A7
:10364000384000F075BD38BD10B501210446043086
:10365000FFF718FF0023237784F8543010BD0000D3
:1036600038B504460025143002F0F2FA04F14C009B
:10367000257702F0C1FB201D84F854500121FFF78B
:1036800001FF2046BDE83840FFF750BF90F880307A
:1036900003F06003202B06D190F881200023212A1B
:1036A00003D81F2A06D800207047222AFBD1C0E980
:1036B0001D3303E0034A426707228267C367012084
:1036C000704700BF3423002037B500F58055D5F88A
:1036D000A4381A68117804291AD1017C022917D15B
:1036E0001979012312898B40134211D100F14C0446
:1036F000204602F041FC58B101A9204602F088FBA7
:10370000D5F8A4480246019B2179206800F0C0F852
:1037100003B030BD01F10B03F0B550F8236085B064
:1037200004460D46FEB1302383F3118804EB850770
:10373000301D0821FFF7A6FEFB6806F14C005B690F
:103740001B681BB1019002F071FB019803A902F004
:103750005FFB024648B1039B2946204600F098F8DB
:10376000002383F3118805B0F0BDFB685A69126825
:10377000002AF5D01B8A013B1340F1D104F18002ED
:10378000EAE70000133138B550F82140ECB130239E
:1037900083F3118804F58053D3F8A4281368527971
:1037A00003EB8203DB689B695D6845B10421601807
:1037B000FFF768FE294604F1140002F05FFA204684
:1037C000FFF7B4FE002383F3118838BD7047000073
:1037D00001F032BD01234022002110B5044600F85B
:1037E000303BFDF723FD0023C4E9013310BD000089
:1037F00010B53023044683F3118824224160002150
:103800000C30FDF713FD204601F038FD02230020A7
:10381000237080F3118810BD70B500EB810305465D
:1038200050690E461446DA6018B110220021FDF7E7
:10383000FDFCA06918B110220021FDF7F7FC31460C
:103840002846BDE8704001F019BE000083682022C0
:10385000002103F0011310B5044683601030FDF71A
:10386000E5FC2046BDE8104001F094BEF0B401250F
:1038700000EB810447898D40E4683D43A46945819C
:1038800023600023A2606360F0BC01F0B1BE0000C1
:10389000F0B4012500EB810407898D40E4683D43C5
:1038A0006469058123600023A2606360F0BC01F0BD
:1038B00027BF000070B502230025044624220370B0
:1038C0002946C0F888500C3040F8045CFDF7AEFC87
:1038D000204684F8705001F065FD63681B6823B1D1
:1038E00029462046BDE87040184770BD0378052B77
:1038F00010B504460AD080F88C3005230370436865
:103900001B680BB1042198470023A36010BD000081
:103910000178052906D190F88C20436802701B6855
:1039200003B118477047000070B590F87030044636
:1039300013B1002380F8703004F18002204601F0BA
:103940004DFE63689B68B3B994F8803013F060054E
:1039500035D00021204602F03FF90021204602F038
:103960002FF963681B6813B1062120469847062388
:1039700084F8703070BD204698470028E4D0B4F831
:103980008630A26F9A4288BFA36794F98030A56FF2
:10399000002B4FF0300380F20381002D00F0F28005
:1039A000092284F8702083F3118800212046D4E98D
:1039B0001D23FFF76DFF002383F31188DAE794F8E6
:1039C000812003F07F0343EA022340F20232934254
:1039D00000F0C58021D8B3F5807F48D00DD8012BE9
:1039E0003FD0022B00F09380002BB2D104F188026B
:1039F00062670222A267E367C1E7B3F5817F00F047
:103A00009B80B3F5407FA4D194F88230012BA0D1E4
:103A1000B4F8883043F0020332E0B3F5006F4DD0C4
:103A200017D8B3F5A06F31D0A3F5C063012B90D8A0
:103A30006368204694F882205E6894F88310B4F896
:103A40008430B047002884D0436863670368A36765
:103A50001AE0B3F5106F36D040F6024293427FF47D
:103A600078AF5C4B63670223A3670023C3E794F836
:103A70008230012B7FF46DAFB4F8883023F002035D
:103A8000A4F88830C4E91D55E56778E7B4F88030BC
:103A9000B3F5A06F0ED194F88230204684F88A30B6
:103AA00001F0DEFC63681B6813B1012120469847D2
:103AB000032323700023C4E91D339CE704F18B0327
:103AC00063670123C3E72378042B10D1302383F3EA
:103AD00011882046FFF7BAFE85F311880321636839
:103AE00084F88B5021701B680BB12046984794F8DE
:103AF0008230002BDED084F88B300423237063687F
:103B00001B68002BD6D0022120469847D2E794F8B4
:103B1000843020461D0603F00F010AD501F050FD48
:103B2000012804D002287FF414AF2B4B9AE72B4BCB
:103B300098E701F037FDF3E794F88230002B7FF42B
:103B400008AF94F8843013F00F01B3D01A06204662
:103B500002D502F059F8ADE702F04AF8AAE794F866
:103B60008230002B7FF4F5AE94F8843013F00F010F
:103B7000A0D01B06204602D502F02EF89AE702F0EC
:103B80001FF897E7142284F8702083F311882B46DE
:103B90002A4629462046FFF769FE85F31188E9E6A3
:103BA0005DB1152284F8702083F31188002120462E
:103BB000D4E91D23FFF75AFEFDE60B2284F870209E
:103BC00083F311882B462A4629462046FFF760FEDC
:103BD000E3E700BFE06E0008D86E0008DC6E000866
:103BE00038B590F870300446002B3ED0063BDAB270
:103BF0000F2A34D80F2B32D8DFE803F037313108E1
:103C0000223231313131313131313737856FB0F8CE
:103C100086309D4214D2C3681B8AB5FBF3F203FBC6
:103C200012556DB9302383F311882B462A46294655
:103C3000FFF72EFE85F311880A2384F870300EE01A
:103C4000142384F87030302383F311880023204636
:103C50001A461946FFF70AFE002383F3118838BD80
:103C6000C36F03B198470023E7E70021204601F026
:103C7000B3FF0021204601F0A3FF63681B6813B166
:103C80000621204698470623D7E7000010B590F894
:103C900070300446142B29D017D8062B05D001D834
:103CA0001BB110BD093B022BFBD80021204601F0BF
:103CB00093FF0021204601F083FF63681B6813B166
:103CC000062120469847062319E0152BE9D10B233E
:103CD00080F87030302383F3118800231A46194688
:103CE000FFF7D6FD002383F31188DAE7C3689B69E9
:103CF0005B68002BD5D1C36F03B19847002384F8CC
:103D00007030CEE7FEF7D4BF012100230170C0E977
:103D100001330C3000F01CB910B53023044683F396
:103D200011884160FEF7D2FF02230020237080F348
:103D3000118810BD10B53023044683F31188032386
:103D400004F8083BFEF7ECFF4FF0FF31204600F08F
:103D5000BBF9002383F31188C01A18BF012010BDDE
:103D600038B50446302585F31188032504F8085B2F
:103D7000FEF7F2FF4FF0FF31204600F0A5F90023D7
:103D800083F31188C01A18BF012038BD38B5044626
:103D9000302585F31188042504F8085BFFF700F847
:103DA0004FF0FF31204600F08FF9002383F3118894
:103DB000C01A18BF012038BD10B53023044683F364
:103DC0001188FFF713F806232370002383F311886B
:103DD00010BD000010B53023044683F31188FFF7AF
:103DE0001FF802232370002383F3118810BD000005
:103DF0000C3000F0C9B800000C3000F0CFB8000063
:103E000000238268037503691B6899689142FBD29D
:103E10005A680360426010605860704700238268EF
:103E2000037503691B6899689142FBD85A6803605F
:103E3000426010605860704708B50846302383F32D
:103E400011880A7D0023052A06D8DFE802F00B0559
:103E50000503120E826913604FF0FF338361FFF791
:103E6000CFFF002383F3118808BD82699368013373
:103E70009360D0E9003213605A60EDE7FFF7C0BFEE
:103E8000054BD96808751868026853601A600122EA
:103E9000D8600275FCF7BEBA182B00200C4B30B569
:103EA000DD684B1C87B004460FD02B46094A684694
:103EB00000F0D2F92046FFF7E3FF009B13B16846FC
:103EC00000F0D4F9A86907B030BDFFF7D9FFF9E7D2
:103ED000182B0020393E000838B50C4D044681618E
:103EE000EB6881689A68914203D8BDE83840FFF7D3
:103EF00087BF1846FFF792FF01230146EC6020467A
:103F00002375BDE83840FCF785BA00BF182B0020A8
:103F1000044B1A68DB6890689B68984294BF002045
:103F200001207047182B0020084B10B51C68D8687A
:103F3000226853601A600122DC602275FFF76EFF71
:103F400001462046BDE81040FCF764BA182B00205B
:103F5000C0E90000816070478368013B002B10B509
:103F600083600CDA074BDC684368A0612060636003
:103F70001C6044600520FFF783FFA06910BD00208E
:103F8000FCE700BF182B002008B5302383F311880D
:103F9000FFF7E2FF002383F3118808BD08B5302343
:103FA00083F3118883680133002B836007DC036887
:103FB00000211A68026050601846FFF78DFF002349
:103FC00083F3118808BD000038B50123084C002593
:103FD0002370656002F00CF802F032F805490648DB
:103FE00002F006F90223237085F3118838BD00BF63
:103FF000802D0020E86E0008182B002008B572B64E
:10400000044B186500F048FD00F026FE024B032229
:104010001A70FEE7182B0020802D002000F05CB9FC
:10402000034A516853685B1A9842FBD8704700BF37
:10403000001000E08B600223086108468B82704705
:104040008368A3F1840243F8142C026943F8442CDA
:10405000426943F8402C094A43F8242CC268A3F172
:10406000200043F8182C022203F80C2C002203F83D
:104070000B2C034A43F8102C704700BF2D04000896
:10408000182B002008B5FFF7DBFFBDE80840FFF75D
:10409000F5BE0000024BDB6898610F20FFF7F0BE11
:1040A000182B0020302383F31188FFF7F3BF0000A3
:1040B00008B50146302383F311880820FFF7EEFE90
:1040C000002383F3118808BD054BDB6821B1036031
:1040D00098610320FFF7E2BE4FF0FF30704700BF4A
:1040E000182B002003682BB100220260184699614A
:1040F000FFF7C4BE70470000064BDB6839B1426869
:1041000018605A60136043600420FFF7C7BE4FF089
:10411000FF307047182B00200368984206D01A68B9
:104120000260506018469961FFF7A8BE7047000012
:1041300038B504460D462068844200D138BD036876
:1041400023605C608561FFF799FEF4E7036810B5B2
:104150009C68A2420CD85C688A600B604C6021604D
:10416000596099688A1A9A604FF0FF33836010BDD6
:10417000121B1B68ECE700000A2938BF0A2170B542
:1041800004460D460A26601901F02CFF01F014FFC9
:10419000041BA54203D8751C04462E46F3E70A2EDD
:1041A00004D90120BDE8704002F062B870BD000083
:1041B000F8B5144B0D460A2A4FF00A07D96103F1EE
:1041C0001001826038BF0A224160196914460160FB
:1041D00048601861A81801F0F5FE01F0EDFE431BE0
:1041E0000646A34206D37C1C28192746354601F013
:1041F000F9FEF2E70A2F04D90120BDE8F84002F0E9
:1042000037B8F8BD182B0020F8B506460D4601F06A
:10421000D3FE0F4A134653F8107F9F4206D12A4619
:1042200001463046BDE8F840FFF7C2BFD169BB6820
:10423000441A2C1928BF2C46A34202D92946FFF75D
:104240009BFF224631460348BDE8F840FFF77EBF9A
:10425000182B0020282B0020C0E90323002310B4D2
:104260005DF8044B4361FFF7CFBF000010B5194C58
:10427000236998420DD08168D0E9003213605A60FA
:104280009A680A449A60002303604FF0FF33A361E9
:1042900010BD0268234643F8102F536000220260CD
:1042A00022699A4203D1BDE8104001F095BE93689F
:1042B00081680B44936001F07FFE2269E169926896
:1042C000441AA242E4D91144BDE81040091AFFF78C
:1042D00053BF00BF182B00202DE9F047DFF8BC804A
:1042E00008F110072C4ED8F8105001F065FED8F8F0
:1042F0001C40AA68031B9A423ED814444FF00009A0
:10430000D5E90032C8F81C4013605A60C5F8009027
:10431000D8F81030B34201D101F05EFE89F3118864
:10432000D5E9033128469847302383F311886B6918
:10433000002BD8D001F040FE6A69A0EB0409824648
:104340004A450DD2022001F093FF0022D8F8103028
:10435000B34208D151462846BDE8F047FFF728BFD1
:10436000121A2244F2E712EB09092946384638BFEF
:104370004A46FFF7EBFEB5E7D8F81030B34208D055
:104380001444C8F81C00211AA960BDE8F047FFF7E3
:10439000F3BEBDE8F08700BF282B0020182B0020BB
:1043A00038B501F009FE054AD2E90845031B181982
:1043B00045F10001C2E9080138BD00BF182B0020FB
:1043C00000207047FEE70000704700004FF0FF300C
:1043D0007047000002290CD0032904D001290748A6
:1043E00018BF00207047032A05D8054800EBC2001B
:1043F0007047044870470020704700BFC06F000836
:1044000044230020746F000870B59AB00546084632
:10441000144601A900F0C2F801A8FCF7FFFE431CF6
:104420000022C6B25B001046C5E9003423700323A6
:10443000023404F8013C01ABD1B202348E4201D8FF
:104440001AB070BD13F8011B013204F8010C04F816
:10445000021CF1E708B5302383F311880348FFF706
:1044600033F9002383F3118808BD00BF882D002095
:1044700090F8803003F01F02012A07D190F88120C4
:104480000B2A03D10023C0E91D3315E003F06003BC
:10449000202B08D1B0F884302BB990F88120212A44
:1044A00003D81F2A04D8FFF7F1B8222AEBD0FAE785
:1044B000034A426707228267C3670120704700BF33
:1044C0003B23002007B5052917D8DFE801F01916AE
:1044D00003191920302383F31188104A0121019018
:1044E000FFF79AF9019802210D4AFFF795F90D4857
:1044F000FFF7B6F8002383F3118803B05DF804FBDF
:10450000302383F311880748FFF780F8F2E7302360
:1045100083F311880348FFF797F8EBE7146F00085F
:10452000386F0008882D002038B50C4D0C4C2A46F9
:104530000C4904F10800FFF767FF05F1CA0204F116
:1045400010000949FFF760FF05F5CA7204F1180071
:104550000649BDE83840FFF757BF00BF604600205E
:1045600044230020F46E0008FE6E0008096F000866
:1045700070B5044608460D46FCF750FEC6B220460C
:10458000013403780BB9184670BD32462946FCF752
:1045900025FE0028F3D10120F6E700002DE9F047C1
:1045A00005460C46FCF73AFE2B49C6B22846FFF7F3
:1045B000DFFF08B10736F6B228492846FFF7D8FFD3
:1045C00008B11036F6B2632E0BD8DFF88C80DFF816
:1045D0008C90234FDFF894A02E7846B92670BDE862
:1045E000F08729462046BDE8F04702F053BA252E51
:1045F0002ED1072241462846FCF7F0FD70B9194B31
:10460000224603F10C0153F8040B8B4242F8040BD1
:10461000F9D11B8807350E341380DDE7082249469F
:104620002846FCF7DBFD98B9A21C0F4B1978023223
:104630000909C95D02F8041C13F8011B01F00F0100
:104640005345C95D02F8031CF0D118340835C3E79F
:10465000013504F8016BBFE7E06F0008096F00083F
:10466000F76F0008E86F000800E8F11F0CE8F11F81
:10467000BFF34F8F044B1A695107FCD1D3F81021B7
:104680005207F8D1704700BF0020005208B50D4B0B
:104690001B78ABB9FFF7ECFF0B4BDA68D10704D5F9
:1046A0000A4A5A6002F188325A60D3F80C21D207C4
:1046B00006D5064AC3F8042102F18832C3F8042162
:1046C00008BD00BFBE4800200020005223016745FE
:1046D00008B5114B1B78F3B9104B1A69510703D574
:1046E000DA6842F04002DA60D3F81021520705D5AB
:1046F000D3F80C2142F04002C3F80C21FFF7B8FFB9
:10470000064BDA6842F00102DA60D3F80C2142F07D
:104710000102C3F80C2108BDBE4800200020005251
:104720000F289ABF00F58060400400207047000009
:104730004FF4003070470000102070470F2808B574
:104740000BD8FFF7EDFF00F500330268013204D10A
:1047500004308342F9D1012008BD0020FCE70000AD
:104760000F2838B505463FD8FFF782FF1F4CFFF7EB
:104770008DFF4FF0FF3307286361C4F814311DD853
:104780002361FFF775FF030243F02403E360E3684E
:1047900043F08003E36023695A07FCD42846FFF7FF
:1047A00067FFFFF7BDFF4FF4003100F031FA2846F4
:1047B000FFF78EFFBDE83840FFF7C0BFC4F81031E7
:1047C000FFF756FFA0F108031B0243F02403C4F8CF
:1047D0000C31D4F80C3143F08003C4F80C31D4F818
:1047E00010315B07FBD4D9E7002038BD0020005210
:1047F0002DE9F84F05460C46104645EA0203DE0651
:1048000002D00020BDE8F88F20F01F00DFF8BCB018
:10481000DFF8BCA0FFF73AFF04EB0008444503D1E2
:104820000120FFF755FFEDE720222946204602F040
:10483000DDF810B920352034F0E72B4605F12002D1
:104840001F68791CDDD104339A42F9D105F1784310
:104850001B481C4EB3F5801F1B4B38BF184603F195
:10486000F80332BFD946D1461E46FFF701FF076065
:10487000A5EB040C336804F11C0143F00203336020
:10488000231FD9F8007017F00507FAD153F8042F49
:104890008B424CF80320F4D1BFF34F8FFFF7E8FEB3
:1048A0004FF0FF332022214603602846336823F06F
:1048B0000203336002F09AF80028BBD03846B0E714
:1048C000142100520C2000521420005210200052DB
:1048D0001021005210B5084C237828B11BB9FFF7FE
:1048E000D5FE0123237010BD002BFCD02070BDE845
:1048F0001040FFF7EDBE00BFBE4800202DE9F04F8D
:104900000D4685B0814658B111F00D0614BF202226
:10491000082211F00803019304D0431E03426AD019
:10492000002435E0002E37D009F11F0121F01F09C6
:104930004FF00108324F05F00403DFF8D0A005EA7C
:10494000080BBBF1000F32D07869C0072FD408F1F3
:1049500001080C37B8F1060FF3D19EB9294D49462D
:10496000A819019201F08EFB044600283AD11836AE
:10497000019A782EF3D1494601F084FB04460028C1
:1049800030D1019A4946204801F07CFB044668BBBF
:10499000204605B0BDE8F08F0029C9D10146284660
:1049A000029201F06FFB0446E0B9029AC0E713B12E
:1049B00078694107CBD5AC0702D578698007C6D5A1
:1049C000019911B178690107C1D51820494600FB4A
:1049D00008A0CDE9022301F055FB0446DDE90223DE
:1049E0000028B4D04A460021204601E04A46002172
:1049F000FCF71CFCCCE70246002E95D198E700BFDF
:104A000008700008F0480020C0480020D848002066
:104A10000021FFF773BF00000121FFF76FBF000007
:104A2000F8B5144D01241827134E40F2FF3200212F
:104A30000120FCF7FBFB07FB046001342A6955F8F1
:104A40000C1F01F00BFB062CF5D137254FF4C05499
:104A50002046FFF7E1FF014628B122460748BDE89E
:104A6000F84001F0FBBAC4EBC404013D4FEAD404A2
:104A7000EED1F8BD08700008D8480020C0480020DA
:104A80000421FFF73BBF00004843FFF7C1BF000010
:104A900008B101F069BB704738B5054D00240334F7
:104AA000696855F80C0B00F0C5F8122CF7D138BD29
:104AB0000870000870B5AAB140EA010313F01F03A3
:104AC0000FD1094C0144A5686D0706D52568A84299
:104AD00003D366683544A94204D903330C34122B3E
:104AE000F1D10022104670BD0870000838B5EFF310
:104AF00011859DB9EFF30584C4F30804302334B164
:104B000083F31188FFF74CFC85F3118838BD83F3DC
:104B10001188FFF745FC84F3118838BDBDE83840A3
:104B2000FFF73EBC10B5FFF7E1FF104CC008104A7C
:104B3000002340EA4170C908A0FB04ECA0FB020E70
:104B40001CEB0000A1FB044CA1FB02125B4100190D
:104B500043EB0C0011EB0E0142F10002411842F14F
:104B60000000090941EA007010BD00BFCFF753E310
:104B7000A59BC4200244074BD2B210B5904200D18D
:104B800010BD441C00B253F8200041F8040BE0B201
:104B9000F4E700BF504000580E4B30B51C6F2404A2
:104BA00005D41C6F1C671C6F44F400441C670A4C3E
:104BB00002442368D2B243F480732360074B9042CF
:104BC00000D130BD441C51F8045B00B243F82050C2
:104BD000E0B2F4E700440258004802585040005840
:104BE00007B5012201A90020FFF7C4FF019803B017
:104BF0005DF804FB13B50446FFF7F2FFA04205D0B1
:104C0000012201A900200194FFF7C6FF02B010BDE8
:104C10000144BFF34F8F064B884204D3BFF34F8F3D
:104C2000BFF36F8F7047C3F85C022030F4E700BF1A
:104C300000ED00E00144BFF34F8F064B884204D3E0
:104C4000BFF34F8FBFF36F8F7047C3F870022030F0
:104C5000F4E700BF00ED00E070470000114BDA6997
:104C600052021ED59A69D00704D50F4A9A6002F104
:104C700044329A600B4BDA69D107FCD41A6A22F4E9
:104C800080021A629A6942F002029A61DA69D207D6
:104C9000FCD49A6942F001029A61024AD369DB07A7
:104CA000FCD47047002000523B2A190870B5054615
:104CB00016460C4601201021FFF7E6FE28604673D9
:104CC0003CB1204636B1FFF7DBFE2B68186000B11F
:104CD0009C6070BDFFF7A0FEF7E70000F8B50F4637
:104CE0001546044648B905F11F010126386821F030
:104CF0001F01FFF78DFF3046F8BD427B294638681B
:104D0000FFF7D8FE06460028EDD13B686360A36834
:104D1000AB4210D213B12068FFF7BAFE637B28467E
:104D20002BB1FFF7ADFE206020B9A060E3E7FFF7ED
:104D300073FEF8E7A560206805F11F01012621F048
:104D40001F013860FFF764FF2673D4E710B50446EF
:104D500040B10068884205D1606808B1FCF734FAB8
:104D60000023237310BD0000F8B50F461446054616
:104D700048B904F11F010126386821F01F01FFF72F
:104D800059FF3046F8BD427B21463868FFF792FE56
:104D900006460028EDD1AB68A34210D213B12868B3
:104DA000FFF776FE6B7B20462BB1FFF769FE28608C
:104DB00020B9A860E5E7FFF72FFEF8E7AC60396897
:104DC00019B122462868FCF7FFF9286804F11F0191
:104DD000012621F01F013860FFF72CFF2E73D0E76A
:104DE00020B103688B4204BF0023037370470000A7
:104DF00008B1002303737047034B1A681AB9034ABA
:104E0000D2F8D0241A607047684900200040025848
:104E100008B5FFF7F1FF024B1868C0F3806008BDCA
:104E200068490020EFF30983054968334A6B22F093
:104E300001024A6383F30988002383F311887047D2
:104E400000EF00E0302080F3118862B60D4B0E4A6F
:104E5000D96821F4E0610904090C0A430B49DA60BE
:104E6000D3F8FC2042F08072C3F8FC20084AC2F854
:104E7000B01F116841F0010111602022DA7783F838
:104E80002200704700ED00E00003FA0555CEACC5E6
:104E9000001000E0302310B583F311880E4B5B68DF
:104EA00013F4006314D0F1EE103AEFF309844FF0DD
:104EB0008073683CE361094BDB6B236684F30988EC
:104EC000FFF726F810B1064BA36110BD054BFBE7B9
:104ED00083F31188F9E700BF00ED00E000EF00E088
:104EE0003F0400084204000870B5BFF34F8FBFF3C2
:104EF0006F8F1A4A0021C2F85012BFF34F8FBFF3D1
:104F00006F8F536943F400335361BFF34F8FBFF387
:104F10006F8FC2F88410BFF34F8FD2F8803043F602
:104F2000E074C3F3C900C3F34E335B0103EA040624
:104F3000014646EA81750139C2F86052F9D2203B38
:104F400013F1200FF2D1BFF34F8F536943F4803335
:104F50005361BFF34F8FBFF36F8F70BD00ED00E063
:104F6000FEE70000214B2248224A70B5904237D319
:104F7000214BC11EDA1C121A22F003028B4238BFE9
:104F800000220021FCF752F91C4A0023C2F88430A9
:104F9000BFF34F8FD2F8803043F6E074C3F3C900FB
:104FA000C3F34E335B0103EA0406014646EA81750A
:104FB0000139C2F86C52F9D2203B13F1200FF2D123
:104FC000BFF34F8FBFF36F8FBFF34F8FBFF36F8F61
:104FD0000023C2F85032BFF34F8FBFF36F8F70BD05
:104FE00053F8041B40F8041BC0E700BFD872000848
:104FF000284C0020284C0020284C002000ED00E028
:1050000003681A6899685A6043681BB142EA014113
:1050100080681847704700004FF0A44310B51C6823
:10502000E00702D52848FFF7EBFFA10702D5274884
:10503000FFF7E6FF620702D52548FFF7E1FF2307E8
:1050400002D52448FFF7DCFFE00602D52248FFF72F
:10505000D7FFA10602D52148FFF7D2FF620602D58D
:105060001F48FFF7CDFF230602D51E48FFF7C8FFF4
:10507000E00502D51C48FFF7C3FFA10502D51B4878
:10508000FFF7BEFF620502D51948FFF7B9FF2305F8
:1050900002D51848FFF7B4FFE00402D51648FFF721
:1050A000AFFFA10402D51548FFF7AAFF620402D59D
:1050B0001348FFF7A5FF230402D51248FFF7A0FF0E
:1050C000BDE81040FFF7E6BE704900207C49002093
:1050D0008849002094490020A0490020AC490020C4
:1050E000B8490020C4490020D0490020DC490020F4
:1050F000E8490020F4490020004A00200C4A002022
:10510000184A0020244A002030B5094B0021094CE0
:1051100010200725196054F8042B0138C3E9012138
:10512000D16003F10C0311615560F4D130BD00BFB3
:105130006C490020507000080F28F0B50AD91028DB
:1051400006D10F230020114C01272568984203D96E
:10515000002018E00346F6E707FA00F6354213D1BF
:105160000C23354343432560181D2344C3E9021231
:10517000074B20445A6B42F001025A63DA6D42F049
:105180000102DA65DB6DF0BD0130DFE76C4900201C
:10519000004502580368D968DA68C90722F03F025F
:1051A000DA6002D51A689207FCD507225A60704768
:1051B000054B996B21EA000199631A6E22EA0002FD
:1051C0001A661B6E704700BF0045025870B5D0E9E3
:1051D000244300224FF0FF359E6804EB4213510137
:1051E000D3F80009002805DAD3F8000940F0804020
:1051F000C3F80009D3F8000B002805DAD3F8000B38
:1052000040F08040C3F8000B013263189642C3F8A7
:105210000859C3F8085BE0D24FF00113C4F81C38FA
:1052200070BD0000890141F02001016103699B0606
:10523000FCD41220FEF7F4BE10B50A4C2046FEF74F
:10524000C9FA094BC4F89030084BC4F89430084CA4
:105250002046FEF7BFFA074BC4F89030064BC4F85F
:10526000943010BD304A002000000840B47000089F
:10527000CC4A002000000440C070000870B50378DC
:105280000546012B58D13F4BD0F89040984254D15D
:105290003D4B0E2165209A6B42F000629A631A6EB4
:1052A00042F000621A661B6E384BD3F8802042F041
:1052B0000062C3F88020D3F8802022F00062C3F897
:1052C0008020D3F88030FDF7EBFE314BE360314BAB
:1052D000C4F800380023D5F89060C4F8003EC0231D
:1052E00023604FF40413A3633369002BFCDA01231A
:1052F0000C203361FEF794FE3369DB07FCD41220E7
:10530000FEF78EFE3369002BFCDA00262846A660E5
:10531000FFF75CFF6B68C4F81068DB68C4F81468BA
:10532000C4F81C6863BB1C4BA3614FF0FF3363617F
:10533000A36843F00103A36070BD184B9842C9D124
:10534000114B4FF080609A6B42F000729A631A6EB4
:1053500042F000721A661B6E0C4BD3F8802042F0AC
:105360000072C3F88020D3F8802022F00072C3F8C6
:105370008020D3F88030FFF71BFF0E214D20A2E7DD
:10538000074BD1E7304A002000450258004402583C
:105390004014004003002002003C30C0CC4A0020F2
:1053A000083C30C0F8B5D0F89040054600214FF0D9
:1053B00000662046FFF736FFD5F8941000234FF023
:1053C00001128F684FF0FF30C4F83438C4F81C283D
:1053D00004EB431201339F42C2F80069C2F8006B2C
:1053E000C2F80809C2F8080BF2D20B68D5F8902071
:1053F000C5F89830636210231361166916F0100621
:10540000FBD11220FEF70CFED4F8003823F4FE6323
:10541000C4F80038A36943F4402343F01003A361A8
:105420000923C4F81038C4F814380B4BEB604FF064
:10543000C043C4F8103B094BC4F8003BC4F81069E2
:10544000C4F80039D5F8983003F1100243F4801302
:10545000C5F89820A362F8BD907000084080001045
:10546000D0F8902090F88A10D2F8003823F4FE6328
:1054700043EA0113C2F80038704700002DE9F843F1
:1054800000EB8103D0F890500C468046DA680FFAA2
:1054900081F94801166806F00306731E022B05EB1E
:1054A00041134FF0000194BFB604384EC3F8101BEF
:1054B0004FF0010104F1100398BF06F1805601FA84
:1054C00003F3916998BF06F5004600293AD0578A40
:1054D00004F15801374349016F50D5F81C180B43AC
:1054E0000021C5F81C382B180127C3F81019A74054
:1054F0005369611E9BB3138A928B9B08012A88BF54
:105500005343D8F89820981842EA034301F1400227
:105510002146C8F89800284605EB82025360FFF741
:1055200081FE08EB8900C3681B8A43EA8453483430
:105530001E4364012E51D5F81C381F43C5F81C7852
:10554000BDE8F88305EB4917D7F8001B21F40041AB
:10555000C7F8001BD5F81C1821EA0303C0E704F1C3
:105560003F030B4A2846214605EB83035A60FFF7A9
:1055700059FE05EB4910D0F8003923F40043C0F878
:105580000039D5F81C3823EA0707D7E70080001058
:1055900000040002D0F894201268C0F89820FFF7A9
:1055A00015BE00005831D0F8903049015B5813F413
:1055B000004004D013F4001F0CBF022001207047EC
:1055C0004831D0F8903049015B5813F4004004D0C2
:1055D00013F4001F0CBF02200120704700EB810173
:1055E000CB68196A0B6813604B6853607047000002
:1055F00000EB810330B5DD68AA691368D36019B97F
:10560000402B84BF402313606B8A1468D0F890202D
:105610001C4402EB4110013C09B2B4FBF3F46343B8
:10562000033323F0030343EAC44343F0C043C0F809
:10563000103B2B6803F00303012B0ED1D2F808387E
:1056400002EB411013F4807FD0F8003B14BF43F00D
:10565000805343F00053C0F8003B02EB4112D2F8F4
:10566000003B43F00443C2F8003B30BD2DE9F0415C
:10567000D0F8906005460C4606EB4113D3F8087B42
:105680003A07C3F8087B08D5D6F814381B0704D5A9
:1056900000EB8103DB685B689847FA071FD5D6F8F3
:1056A0001438DB071BD505EB8403D968CCB98B69AB
:1056B000488A5A68B2FBF0F600FB16228AB91868CD
:1056C000DA6890420DD2121AC3E90024302383F322
:1056D000118821462846FFF78BFF84F31188BDE827
:1056E000F081012303FA04F26B8923EA02036B8140
:1056F000CB68002BF3D021462846BDE8F04118477F
:1057000000EB81034A0170B5DD68D0F890306C6918
:105710002668E66056BB1A444FF40020C2F8100910
:105720002A6802F00302012A0AB20ED1D3F808084F
:1057300003EB421410F4807FD4F8000914BF40F04A
:10574000805040F00050C4F8000903EB4212D2F838
:10575000000940F00440C2F800090122D3F83408DF
:1057600002FA01F10143C3F8341870BD19B9402E93
:1057700084BF4020206020681A442E8A8419013C8E
:10578000B4FBF6F440EAC44040F00050C6E7000025
:105790002DE9F843D0F8906005460C464F0106EB22
:1057A0004113D3F8088918F0010FC3F808891CD0F9
:1057B000D6F81038DB0718D500EB8103D3F80CC0FE
:1057C000DCF81430D3F800E0DA68964530D2A2EB6A
:1057D0000E024FF000091A60C3F80490302383F3DF
:1057E0001188FFF78DFF89F3118818F0800F1DD005
:1057F000D6F834380126A640334217D005EB84038F
:105800000134D5F89050D3F80CC0E4B22F44DCF842
:10581000142005EB0434D2F800E05168714514D32C
:10582000D5F8343823EA0606C5F83468BDE8F883AD
:10583000012303FA01F2038923EA02030381DCF85E
:105840000830002BD1D09847CFE7AEEB0103BCF86E
:105850001000834228BF0346D7F8180980B2B3EB83
:10586000800FE3D89068A0F1040959F8048FC4F8B8
:105870000080A0EB09089844B8F1040FF5D818444B
:105880000B4490605360C8E72DE9F84FD0F8905072
:1058900004466E69AB691E4016F480586E6103D0F1
:1058A000BDE8F84FFEF706B8002E12DAD5F8003E34
:1058B0009B0705D0D5F8003E23F00303C5F8003E52
:1058C000D5F80438204623F00103C5F80438FEF764
:1058D0001FF8370505D52046FFF778FC2046FEF770
:1058E00005F8B0040CD5D5F8083813F0060FEB68AE
:1058F00023F470530CBF43F4105343F4A053EB60F4
:1059000031071BD56368DB681BB9AB6923F008035B
:10591000AB612378052B0CD1D5F8003E9A0705D052
:10592000D5F8003E23F00303C5F8003E2046FDF7FE
:10593000EFFF6368DB680BB120469847F30200F184
:10594000BA80B70226D5D4F8909000274FF0010A0C
:1059500009EB4712D2F8003B03F44023B3F5802F44
:1059600011D1D2F8003B002B0DDA62890AFA07F355
:1059700022EA0303638104EB8703DB68DB6813B16E
:105980003946204698470137D4F89430FFB29B68D7
:105990009F42DDD9F00619D5D4F89000026AC2F30F
:1059A0000A1702F00F0302F4F012B2F5802F00F094
:1059B000CA80B2F5402F09D104EB8303002200F521
:1059C0008050DB681B6A974240F0B0803003D5F806
:1059D000185835D5E90303D500212046FFF746FEC8
:1059E000AA0303D501212046FFF740FE6B0303D530
:1059F00002212046FFF73AFE2F0303D5032120465C
:105A0000FFF734FEE80203D504212046FFF72EFEFF
:105A1000A90203D505212046FFF728FE6A0203D517
:105A200006212046FFF722FE2B0203D50721204640
:105A3000FFF71CFEEF0103D508212046FFF716FEF5
:105A4000700340F1A780E90703D500212046FFF746
:105A50009FFEAA0703D501212046FFF799FE6B0799
:105A600003D502212046FFF793FE2F0703D503211C
:105A70002046FFF78DFEEE0603D504212046FFF7F2
:105A800087FEA80603D505212046FFF781FE69069B
:105A900003D506212046FFF77BFE2A0603D5072102
:105AA0002046FFF775FEEB0574D520460821BDE8BA
:105AB000F84FFFF76DBED4F890904FF0000B4FF009
:105AC000010AD4F894305FFA8BF79B689F423FF647
:105AD00038AF09EB4713D3F8002902F44022B2F59E
