:020000040800F2
:1000000000070020F10200087D33000835330008A6
:100010005D3300083533000855330008F30200084B
:10002000F3020008F3020008F30200086943000825
:10003000F3020008F3020008F3020008F3020008CC
:10004000F3020008F3020008F3020008F3020008BC
:10005000F3020008F3020008FD7B0008297C000879
:10006000557C0008817C0008AD7C00082D44000808
:100070005544000881440008AD440008D9440008F4
:10008000014500082D450008F3020008153300085B
:10009000F302000825330008F3020008D97C0008A9
:1000A000F3020008F3020008F3020008F30200085C
:1000B000F3020008F3020008F3020008F30200084C
:1000C000F3020008F3020008F3020008F30200083C
:1000D000F3020008F3020008F3020008F30200082C
:1000E0003D7D0008F3020008F3020008F302000857
:1000F000F3020008F3020008F30200085945000863
:10010000F3020008F3020008C57D0008F3020008AE
:10011000F3020008F3020008F3020008F3020008EB
:1001200085450008AD450008D9450008054600088A
:1001300031460008F3020008F3020008F302000849
:10014000F3020008F3020008F3020008F3020008BB
:100150005946000885460008B1460008F302000829
:10016000F3020008F3020008F3020008F30200089B
:10017000F302000829700008F3020008F3020008E7
:10018000F3020008F3020008B17D0008F302000842
:10019000F3020008F3020008F3020008F30200086B
:1001A000F3020008F3020008F3020008F30200085B
:1001B000F3020008F3020008F3020008F30200084B
:1001C000F3020008F3020008F3020008F30200083B
:1001D000F302000815700008F3020008F30200089B
:1001E000F3020008F3020008F3020008F30200081B
:1001F000F3020008F3020008F3020008F30200080B
:10020000F3020008F3020008F3020008F3020008FA
:10021000F3020008F3020008F3020008F3020008EA
:10022000F3020008F3020008F3020008F3020008DA
:10023000F3020008F3020008F3020008F3020008CA
:10024000F3020008F3020008F3020008F3020008BA
:10025000F3020008F3020008F3020008F3020008AA
:10026000F3020008F3020008F3020008F30200089A
:10027000F3020008F3020008F3020008F30200088A
:10028000F3020008F3020008F3020008F30200087A
:10029000F3020008F3020008F3020008F30200086A
:1002A000F3020008F3020008F3020008F30200085A
:1002B000F3020008F3020008F3020008F30200084A
:1002C000F3020008F3020008F3020008F30200083A
:1002D000F3020008F3020008F3020008F30200082A
:1002E000D51600080000000000000000000000001B
:1002F00002E000F000F8FEE772B6374880F30888A5
:10030000364880F3098836483649086040F20000D4
:10031000CCF200004EF63471CEF200010860BFF35B
:100320004F8FBFF36F8F40F20000C0F2F0004EF627
:100330008851CEF200010860BFF34F8FBFF36F8F7B
:100340004FF00000E1EE100A4EF63C71CEF20001D3
:100350000860062080F31488BFF36F8F06F0DAF888
:1003600007F018FA4FF055301F491B4A91423CBF25
:1003700041F8040BFAE71D49184A91423CBF41F885
:10038000040BFAE71A491B4A1B4B9A423EBF51F82D
:10039000040B42F8040BF8E700201849184A914270
:1003A0003CBF41F8040BFAE706F0F2F807F078FAE0
:1003B000144C154DAC4203DA54F8041B8847F9E796
:1003C00000F042F8114C124DAC4203DA54F8041B11
:1003D0008847F9E706F0DAB800070020002300207C
:1003E0000000000808ED00E00001002000070020E8
:1003F00070840008002300206C230020702300205C
:1004000068740020E0020008E4020008E40200082A
:10041000E40200082DE9F04F2DED108AC1F80CD050
:10042000D0F80CD0BDEC108ABDE8F08F002383F328
:1004300011882846A047002005F06CFAFEE705F079
:10044000E7F900DFFEE70000F8B501F0BFF901F0C1
:1004500061FB05F0BBFF074606F052F80546A8BB56
:100460001F4B9F4232D001339F4232D027F0FF0210
:100470001C4B9A4230D12E4642F21074F8B200F072
:1004800079FF00F07DFF08B10024264601F0CAFD87
:1004900020B10024032000F079F8264635B1124B34
:1004A0009F4203D0002406F023F82646002005F0E2
:1004B00097FF0EB100F080F801F0CAFA00F094FF47
:1004C000204600F02BF900F077F8F9E72E460024DB
:1004D000D7E704460126D4E7064641F28834D0E740
:1004E000010007B0000008B0263A09B008B501F0D5
:1004F00039F9A0F120035842584108BD07B541F22F
:100500001203022101A8ADF8043001F049F903B04B
:100510005DF804FB38B5302383F31188174803686E
:100520000BB105F0C3FA0023154A4FF47A71134852
:1005300005F0B2FA002383F31188124C236813B13B
:100540002368013B2360636813B16368013B636008
:100550000D4D2B7833B963687BB9022001F0EAF9BD
:10056000322363602B78032B07D163682BB90220F9
:1005700001F0E0F94FF47A73636038BD7023002016
:10058000150500089024002088230020084B1870CF
:1005900003280CD8DFE800F008050208022001F06B
:1005A000C7B9022001F0C2B9024B00225A6070475D
:1005B0008823002090240020F8B501F033FD30B1ED
:1005C0004D4B03221A7000224C4B5A60F8BD4C4B25
:1005D0004C4A1C4619680131F8D004339342F9D1D2
:1005E0006268494B9A42F1D9484B9B6803F100631A
:1005F00003F580239A42E9D205F04EFF05F060FF33
:10060000002001F009F90220FFF7C0FF404B002154
:100610009A6C99641A6F19671A6FDA6CD9645A6FF9
:1006200059675A6F1A6D19659A6F99679B6F394BA5
:10063000D3F8802042F00062C3F88020D3F88020F5
:1006400022F00062C3F88020D3F88020D3F8802005
:1006500042F00072C3F88020D3F8802022F00072AC
:10066000C3F88020D3F8803072B64FF0E023C3F88F
:10067000084DD4E90004BFF34F8FBFF36F8F264AB4
:10068000C2F88410BFF34F8F536923F48033536152
:10069000BFF34F8FD2F8803043F6E076C3F3C9053D
:1006A000C3F34E335B0103EA060C29464CEA81771B
:1006B0000139C2F87472F9D2203B13F1200FF2D144
:1006C000BFF34F8FBFF36F8FBFF34F8FBFF36F8FAA
:1006D000536923F4003353610023C2F85032BFF34F
:1006E0004F8FBFF36F8F302383F31188854680F3DC
:1006F000088820476AE700BF882300209024002054
:100700000000040820000408FFFF03080023002065
:10071000004502580044025800ED00E02DE9F04F7A
:1007200093B0B74B2022FF2100900AA89D6801F0EA
:1007300039F9B44A1378A3B90121B34811700360A1
:10074000302383F3118803680BB105F0AFF9002360
:10075000AE4A4FF47A71AC4805F09EF9002383F35A
:100760001188009B13B1AA4B009A1A60A94A13780A
:10077000032B03D000231370A54A53604FF0000AE7
:10078000009CD3465646D146012001F0D1F824B151
:100790009F4B1B68002B00F02C82002000F0E2FF32
:1007A0000390039B002B01DA00F066FE039B002BF5
:1007B000EDDB012001F0BAF8039B213B1F2BE3D8AE
:1007C00001A252F823F000BF490800087108000890
:1007D000050900088907000889070008890700083B
:1007E00097090008670B0008810A0008E30A00085F
:1007F0000B0B0008310B000889070008430B0008A9
:1008000089070008B50B0008E908000889070008F7
:10081000F90B000855080008E908000889070008D6
:10082000E30A00088907000889070008890700080B
:100830008907000889070008890700088907000858
:1008400089070008050900080220FFF74FFE00286D
:1008500040F0F981009B022105A8BAF1000F08BF02
:100860001C4641F21233ADF8143000F099FF8BE7CB
:100870004FF47A7000F076FF071EEBDB0220FFF7E3
:1008800035FE0028E6D0013F052F00F2DE81DFE8CB
:1008900007F0030A0D1013360523042105A805935C
:1008A00000F07EFF17E004215548F9E704215A487B
:1008B000F6E704215948F3E74FF01C08404608F1D9
:1008C000040800F0ABFF0421059005A800F068FFC4
:1008D000B8F12C0FF2D101204FF0000900FA07F710
:1008E00047EA0B0B5FFA8BFB01F0A8F826B10BF07F
:1008F0000B030B2B08BF0024FFF700FE44E7042185
:100900004748CDE7002EA5D00BF00B030B2BA1D150
:100910000220FFF7EBFD074600289BD001200026B0
:1009200000F07AFF0220FFF731FE1FFA86F84046FA
:1009300000F082FF0446B0B1039940460136A1F1B0
:1009400040025142514100F08FFF0028EDD1BA46DC
:10095000044641F21213022105A83E46ADF81430B8
:1009600000F01EFF10E725460120FFF70FFE244B85
:100970009B68AB4207D9284600F050FF013040F099
:1009800067810435F3E70025224BBA463E461D70C9
:100990001F4B5D60A8E7002E3FF45CAF0BF00B032C
:1009A0000B2B7FF457AF0220FFF7F0FD322000F051
:1009B000D9FEB0F10008FFF64DAF18F003077FF441
:1009C00049AF0F4A08EB0503926893423FF642AFE6
:1009D000B8F5807F3FF73EAF124BB845019323DD5A
:1009E0004FF47A7000F0BEFE0390039A002AFFF6DF
:1009F00031AF039A0137019B03F8012BEDE700BFEC
:100A0000002300208C2400207023002015050008FE
:100A100090240020882300200423002008230020A5
:100A20000C2300208C230020C820FFF75FFD074621
:100A300000283FF40FAF1F2D11D8C5F120020AABDB
:100A400025F0030084494245184428BF42460192DC
:100A500000F082FF019AFF217F4800F0A3FF4FEAD8
:100A6000A803C8F387027C492846019300F0A2FF3F
:100A7000064600283FF46DAF019B05EB830533E785
:100A80000220FFF733FD00283FF4E4AE00F0FEFE45
:100A900000283FF4DFAE0027B846704B9B68BB428E
:100AA00018D91F2F11D80A9B01330ED027F003034A
:100AB00012AA134453F8203C05934046042205A98A
:100AC000043701F099FA8046E7E7384600F0A6FEC1
:100AD0000590F2E7CDF81480042105A800F060FE2F
:100AE00002E70023642104A8049300F04FFE0028CD
:100AF0007FF4B0AE0220FFF7F9FC00283FF4AAAE65
:100B0000049800F0B9FE0590E6E70023642104A8EC
:100B1000049300F03BFE00287FF49CAE0220FFF718
:100B2000E5FC00283FF496AE049800F0A7FEEAE743
:100B30000220FFF7DBFC00283FF48CAE00F0B6FE8D
:100B4000E1E70220FFF7D2FC00283FF483AE05A9BD
:100B5000142000F0B1FE07460421049004A800F020
:100B60001FFE3946B9E7322000F0FCFD071EFFF6F4
:100B700071AEBB077FF46EAE384A07EB090392688B
:100B800093423FF667AE0220FFF7B0FC00283FF427
:100B900061AE27F003074F44B9453FF4A5AE484680
:100BA00009F1040900F03AFE0421059005A800F0BF
:100BB000F7FDF1E74FF47A70FFF798FC00283FF457
:100BC00049AE00F063FE002844D00A9B01330BD0ED
:100BD00008220AA9002000F0EDFE00283AD02022C9
:100BE000FF210AA800F0DEFEFFF788FC1C4804F095
:100BF00097FE13B0BDE8F08F002E3FF42BAE0BF044
:100C00000B030B2B7FF426AE0023642105A805936C
:100C100000F0BCFD074600287FF41CAE0220FFF761
:100C200065FC804600283FF415AEFFF767FC41F2F3
:100C3000883004F075FE059800F04AFF46463C46B1
:100C400000F0FCFEA0E506464EE64FF0000901E686
:100C5000BA467EE637467CE68C230020002300203F
:100C6000A0860100094A49F26900136899B21B0C79
:100C700000FB013344F250611360054B186882B2E7
:100C8000000C01FB0200186080B2704714230020A2
:100C9000102300200021102210B5044600F082FE2F
:100CA000034B03CB206061601868A06010BD00BFDB
:100CB00000E8F11F2DE9F041ADF5507D0D46002112
:100CC00040F275126EAC074610A80F9100F06AFE54
:100CD0004FF4C4720021204600F064FE0DF13C0880
:100CE00002F054FB4FF47A72264BB0FBF2F018601E
:100CF00093E80700022384E807000DF5ED702382D6
:100D0000FFF7C8FF43F204731F4907A8238407F0C5
:100D1000F5F81E230DF2EB220DF1340C84F832317C
:100D200007AB1E46083203CE664542F8080C42F86F
:100D3000041C3346F5D13068414610602046B38824
:100D40009380012200F042FF002380B2E97E0393EA
:100D5000AB7E029305F1190301930123009307A3CE
:100D6000D3E90023CDE90480384602F0CDFE0DF52D
:100D7000507DBDE8F08100BFAFF300809E6AC421C2
:100D8000818A46EE982400200C7F00082DE9F0416E
:100D90002C4CDAB080460D46237A5BBB27A9284647
:100DA00001F036F80746002842D19DF89D60C82E14
:100DB0003ED801464FF4A662204600F0F3FD4FF402
:100DC000807332460DF19E01C4F8F8314FF4007380
:100DD00004F109002644C4F80C334FF44073C4F8FE
:100DE000203400F0B9FD9DF89C30777223720BB966
:100DF000EB7E237206AC8122002127A800F0D2FDF1
:100E00000122214627A801F049F8002380B2E97E9B
:100E10000393AB7E029305F1190301932823CDE9D7
:100E200004400093404605A3D3E9002302F06CFE82
:100E30005AB0BDE8F08100BFAFF300802641727266
:100E4000DF25D7B7A0490020F0B5254E4FF48A75AD
:100E5000F1B0002405FB006596F8D830D822214671
:100E600085F8DC303AA885F8E84006AF00F09AFD36
:100E700006F1090000F08EFDD5F8E430C2B206F1AB
:100E800009018DF8F0000DF1F100CDE93A3400F0E0
:100E900063FD394601223AA801F036F8082380B2F2
:100EA000317ACDE9047001270E48CDE9023706F109
:100EB000D80301933023009307A3D3E9002302F062
:100EC00023FEA04206DD02F061FAC5F8E0003846D4
:100ED00071B0F0BD2046FBE778F6339F93CACD8D05
:100EE000A0490020B03400202DE9F0411D4D86B00E
:100EF0001D4E1E4F284602F033FE034658B3002411
:100F0000DFF86C80ADF814400294CDE90344027B15
:100F10008DF8142003AA9968406803C21B6843F047
:100F20000043029302F034FA82190094384641F1EA
:100F3000000302A901F070FAA04205DD284602F084
:100F400013FE88F80040D5E798F80030072B05D845
:100F5000013388F8003006B0BDE8F081014802F0A6
:100F600003FEF8E7B034002040420F00E0340020D8
:100F7000D54E002070B50D4614461E4602F020FDE9
:100F800050B9022E10D1012C0ED112A3D3E90023A7
:100F90000120C5E9002307E0282C10D005D8012C3A
:100FA00009D0052C0FD0002070BD302CFBD10BA335
:100FB000D3E90023ECE70BA3D3E90023E8E70BA375
:100FC000D3E90023E4E70BA3D3E90023E0E700BF64
:100FD000AFF30080401DA12026812A0B78F6339FB5
:100FE00093CACD8D9E6AC421818A46EE26417272D3
:100FF000DF25D7B7F017304A39059E5638B5054674
:101000000E4C0021013500F02FFCA4F82C55B4F84B
:101010002C0500F011FC78B1B4F82C0500F01CFC94
:10102000014648B9B4F82C0500F01EFCB4F82C3584
:101030000133A4F82C35EAE738BD00BFA0490020F1
:101040000A4B0B4A10B51A6003F5805393F84820F9
:101050003AB95C6C2CB1204601F062F8204606F0EB
:101060000BFF0448BDE8104001F05AB8E0340020FE
:10107000BC7F0008104500202DE9F04F8FB00546D9
:101080000C4600AF02F09CFC002849D1237E022BC5
:101090001BD1E38A012B18D102F078F90646FFF73D
:1010A000E1FD03464FF4C87006F51676DFF8C082FE
:1010B000B3FBF0F202FB103316FA83F3C8F80030EA
:1010C000E37E33B9A34B00221A703C37BD46BDE81E
:1010D000F08F07F12401204600F04EFE0028F4D1E5
:1010E00007F11400FFF7D6FD97F8264007F1140129
:1010F00007F12700224606F0CFFE0028E2D10F2C90
:1011000008D8944B1C70D8F80030A3F51673C8F8B3
:101110000030DAE797F82410284602F049FCD4E7BB
:10112000E38A282B2BD010D8012B23D0052BCCD130
:10113000BFF34F8F8849894BCA6802F4E0621343BA
:10114000CB60BFF34F8F00BFFDE7302BBDD1844E86
:10115000E17E327A9142B8D1607E3146002291F828
:10116000DC50854200F0A580013201F58A71042A25
:10117000F5D1AAE721462846FFF79CFDA5E72146C1
:101180002846FFF703FEA0E7B2F8EC507B6005F1BC
:1011900003094FEA99094FEA8902D11DC908A8EB52
:1011A000C10300219D46EB46584600F0FBFB04F1CD
:1011B000EE012A465846314400F0CEFB7B6813B955
:1011C000012000F029FB96F8D20000F035FB044620
:1011D00030B9307200F05AFB204600F01DFBB1E040
:1011E000D6F8D4203AB996F8D200B6F82C25824227
:1011F00001D8FFF703FFD6F8D4202A44944208D23E
:1012000096F8D200B6F82C250130824201D8FFF7BB
:10121000F5FE5FFA89F25946706800F0CBFB08B919
:10122000C54679E0726896F8D2002A447260D6F812
:10123000D42005EB0209C6F8D49000F0FDFA8145F0
:1012400009D396F8D220D6F8D4000132001B86F8D4
:10125000D220C6F8D400FF2D0FD80024347200F03D
:1012600015FB204600F0D8FA00F0DCFE3D4B18815B
:1012700008B9FFF7A1F9C54627E7BB6896F8D9007A
:101280000AFB0362FB68D2F8E41082F8E83001F54B
:101290008061C2F8E030C2F8E410FFF7D5FDFFF737
:1012A00023FE96F8D920013202F0030286F8D920F5
:1012B000B6E74FF48A7A20460AFB02F505F1EA0107
:1012C000314400F053FEF86000287FF4FEAE0122A6
:1012D000354485F8E82002F059F8D5F8E020D6ED3D
:1012E000007A801A40F6B832B8EE677ADFED1E6AEF
:1012F000192838BF1920904228BF104607EE900ADF
:10130000F8EEE77A67EEA67ADFED186AE7EE267A5E
:10131000FCEEE77AC6ED007A96F8D930BB60BA6881
:1013200073680AFB02F4321992F8E81059B1D2F846
:10133000E410E8468B423FF427AF002182F8E81022
:10134000C2F8E010C5467368064A9B0A0133138150
:10135000BBE600BFA934002000ED00E00400FA0560
:10136000A049002098240020CDCCCC3D6666663F85
:10137000AC340020014B1870704700BFA42400203B
:1013800038B54FF00054144B22689A4221D1627D47
:101390000025124B12481A70C922237D09301149C9
:1013A00000F8013C4FF48073C0F8DB50C0F8EF3117
:1013B0004FF40073C0F803334FF44073C0F8173490
:1013C00000F0CAFAE0222946204600F0EBFA01209C
:1013D00038BD0020FCE700BF9AAD44C5A42400201E
:1013E000A04900201600002037B500F01BFE194D63
:1013F00002230022184928816B710123174801F04C
:1014000087FB002316494FF480520193154B164871
:101410000093164B02F0A4FA154B197811B112483B
:1014200002F0C6FA01F0B2FF0446FFF71BFC4FF4CE
:10143000C873B0FBF3F202FB130304F5167010FA45
:1014400083F00C4B186005F05BF808B10F232B817B
:1014500003B030BD9824002040420F00E03400204B
:10146000A8240020750F0008B0340020791000086F
:10147000A4240020AC3400202DE9F04F8C4C2DED3D
:10148000028B85A7D7E9006795B00FF21429D9E937
:1014900000899FED858BFFF727FD0DAD0023DFF859
:1014A00024B20C93ADF83C300D936B6000234FF0E9
:1014B000010A0DF1250209A958468DF825308DF84D
:1014C00024A08DED008B01F0C9FE9DF8242000239F
:1014D000002A40F0AE80204602F072FA054600284D
:1014E00047D1DFF8E4B101F051FFDBF8003098425A
:1014F0003FD301F04BFF0790FFF7B4FB4FF4C873E5
:10150000079AB0FBF3F101FB130302F5167010FA12
:1015100083F0CBF8000010A8DFF8B0B19BF8001002
:10152000002914BF2B46534607918DF83030FFF742
:10153000B1FB079910AB0DF13100C1F11002194454
:10154000D2B2062A28BF0622079200F005FA079AAF
:101550000CAB2046039301321823D2B20293554BB1
:1015600004923246CDE900A33B4602F06FFA8BF8B5
:10157000005001F00BFF504A504D1368C31AB3F5E9
:101580007A7F32D3106001F003FF02460B462046FB
:1015900002F0F4FA204602F013FA30B32B7A0DF180
:1015A000400BDFF82CA1002B14BF032302238AF881
:1015B000053001F0EBFE4FF47A7301225946B0FB7F
:1015C000F3F0CAF80000504600F0AEFB182380B2DA
:1015D000424602933A4B019340F25513CDE903B0D2
:1015E000009320464B4602F031FA2B7AABB101F062
:1015F000CDFE4FF0000A83464FF48A7295F8D90069
:10160000504400F0030002FB005393F8E81071B35C
:101610000AF1010ABAF1040FF0D1C82004F080F9F0
:101620002B7A002B7FF435AF15B0BDEC028BBDE8F3
:10163000F08F1946102210A800F0B4F90DF126031E
:101640000AAA0CA9584601F0F3F811AB95E803007B
:1016500083E803009DF83C3010A920468DF84C30FB
:101660000C9B1093DDE90A2302F05CFC1EE7D3F823
:10167000E01049B12B68ABEB0101FA2B38BFFA231C
:101680000533B1EB430FC3D3FFF7DEFB4FF48A7290
:101690000028BDD1C1E700BF401DA12026812A0B33
:1016A000F1C6A7C1D068080F0000000000000000CC
:1016B000B0340020A8340020D04E0020A0490020E3
:1016C000D44E0020E0340020AC340020A9340020A7
:1016D0009824002008B5054801F052F9044A05494C
:1016E0000020BDE8084006F0C1BB00BFE034002088
:1016F0002C4F0020411000082DE9F84F4FF47A7369
:1017000006460D46002402FB03F7DFF85080DFF8A1
:10171000509098F900305FFA84FA5A1C01D0A34225
:1017200012D159F824002A4631460368D3F820B074
:101730003B46D847854207D1074B012083F800A0DC
:10174000BDE8F88F0124E4E7002CFBD04FF4FA70D9
:1017500004F0E6F80020F3E71C4F002018230020D7
:101760001C230020002307B5024601210DF10700CC
:101770008DF80730FFF7C0FF20B19DF8070003B0D8
:101780005DF804FB4FF0FF30F9E700000A46042142
:1017900008B5FFF7B1FF80F00100C0B2404208BDBC
:1017A000074B0A4630B41978064B53F821400146DE
:1017B00023682046DD69044BAC4630BC604700BF5F
:1017C0001C4F00201C230020A086010070B5104C87
:1017D0000025104E04F0CEFB208030682388834221
:1017E0000CD800252088013804F0C0FB238805446C
:1017F000013BB5F5802F2380F4D370BD04F0B6FB18
:10180000336805440133B5F5802F3360E5D3E8E74D
:101810001E4F0020D84E002004F07ABC00F100607A
:1018200000F580200068704700F10060920000F52C
:10183000802004F0FBBB0000054B1A68054B1B8899
:101840009B1A834202D9104404F090BB00207047D9
:10185000D84E00201E4F0020024B1B68184404F095
:101860008BBB00BFD84E0020024B1B68184404F00D
:1018700095BB00BFD84E00200020704700F1FF50FC
:1018800000F58F10D0F8000870470000064991F865
:10189000243033B100230822086A81F82430FFF78E
:1018A000C3BF0120704700BFDC4E0020014B186809
:1018B000704700BF0010005C194B01380322084438
:1018C00070B51D68174BC5F30B042D0C1E88A6427E
:1018D0000BD15C680A46013C824213460FD214F9D0
:1018E000016F4EB102F8016BF6E7013A03F108030C
:1018F000ECD181420B4602D22C2203F8012B0424A6
:10190000094A1688AE4204D1984284BF967803F8FB
:10191000016B013C02F10402F3D1581A70BD00BF03
:101920000010005C24230020587F0008704700004E
:10193000704700007047000070B504464FF47A7697
:101940004CB1412C254628BF412506FB05F0641B00
:1019500003F0E6FFF4E770BD002310B5934203D017
:10196000CC5CC4540133F9E710BD0000013810B558
:1019700010F9013F3BB191F900409C4203D11AB1EB
:101980000131013AF4E71AB191F90020981A10BD1B
:101990001046FCE703460246D01A12F9011B002943
:1019A000FAD1704702440346934202D003F8011B68
:1019B000FAE770472DE9F8431F4D1446074688465D
:1019C00095F8242052BBDFF870909CB395F8243032
:1019D0002BB92022FF2148462F62FFF7E3FF95F83D
:1019E00024004146C0F1080205EB8000A24228BF56
:1019F0002246D6B29200FFF7AFFF95F82430A41B21
:101A000017441E449044E4B2F6B2082E85F82460D0
:101A1000DBD1FFF73BFF0028D7D108E02B6A03EBAF
:101A200082038342CFD0FFF731FF0028CBD10020C3
:101A3000BDE8F8830120FBE7DC4E0020024B1A785A
:101A4000024B1A70704700BF1C4F00201823002063
:101A500038B51A4C1A4D204603F082FA2946204622
:101A600003F0AAFA2D684FF47A70D5F89020D2F8D6
:101A7000043843F00203C2F80438FFF75DFF114950
:101A8000284603F0A7FBD5F890200F4DD2F8043874
:101A9000286823F002030D49A042C2F804384FF42D
:101AA000E1330B6001D003F0B9F96868A04204D0BB
:101AB0000649BDE8384003F0B1B938BD9056002062
:101AC00008820008108200081C230020044F002018
:101AD0000C4B70B50C4D04461E780C4B55F8262067
:101AE0009A420DD00A4B002118221846FFF75AFFE0
:101AF0000460014655F82600BDE8704003F08EB939
:101B000070BD00BF1C4F00201C23002090560020F9
:101B1000044F0020F8B571B6002301201A4619467B
:101B200002F064FE0446802004F090FB002845D0BB
:101B30000025234A80274FF4D06C3D26136923BB30
:101B4000D2F810310BBB236805F10061996023685E
:101B5000D86023685F602368C3F800C021680B6801
:101B600043F001030B6021680B6823F01E030B6038
:101B700021680B68DB07FCD4237B8035616806FA9B
:101B800003F3B5F5001F0B60D8D1204602F064FEC8
:101B9000B5F5001F11D000240A4E0B4D012004F0B2
:101BA000B7FA3388A34205D928682044013404F0E9
:101BB000F5F9F6E7002004F0ABFA61B6F8BD00BF16
:101BC000002000521E4F0020D84E00202DE9F8437F
:101BD0000D46044600219046284640F27912FFF750
:101BE000E1FE234620220021284604F1220702F0CC
:101BF0003BF9231D022220212846C02602F034F999
:101C0000631D03222221284602F02EF9A31D032280
:101C10002521284602F028F904F108031022282182
:101C2000284602F021F904F1100308223821284641
:101C300002F01AF904F1110308224021284602F0AB
:101C400013F904F1120308224821284602F00CF986
:101C500004F1140320225021284602F005F904F172
:101C6000180340227021284602F0FEF804F12003F8
:101C70000822B021284602F0F7F804F121030822D7
:101C8000B821284602F0F0F8314608363B460822D3
:101C90002846013702F0E8F8B6F5A07FF4D13146C6
:101CA00004F132030822284602F0DEF8002794F8F7
:101CB000326004F13309F900BE4201F5A4711FD866
:101CC000F70007F5A476B8F1000F08D1314607F206
:101CD0004F1604F599730722284602F0C5F894F8C8
:101CE0003201B046502828BF5020074604EB0009B7
:101CF000A1450DD106EBC7000730C008BDE8F88349
:101D000009EB070308222846013702F0ADF8D2E7B5
:101D100004F2331341460822284608F1080801342A
:101D200002F0A2F8E4E7000013B5044608460021DB
:101D30002022234601900160C0F8031002F094F8BD
:101D4000231D01980222202102F08EF8631D0198C4
:101D50000322222102F088F8A31D019803222521E5
:101D600002F082F8019804F108031022282102F001
:101D70007BF8072002B010BDF7B5047F05460E467C
:101D80002CB1838A122B02D9012003B0F0BD0023AD
:101D9000072228460096194601F02AFF731C0122EB
:101DA000072100932846002301F022FFD4B9B31C79
:101DB000052208212846009323460D2401F018FF30
:101DC000B378102BE0D83746BB1BB278934210D3C0
:101DD00007342B7FA88AE408B3B9844294BF00205B
:101DE0000120D2E7AB8A0824DB00083BDB08B37094
:101DF000E6E7FB1C2146082228460093002308340E
:101E0000013701F0F5FEDFE7201A18BF0120BCE71B
:101E1000F7B5047F05460E462CB1838ACA2B02D93A
:101E2000012003B0F0BD0023082228460096194681
:101E300001F0DEFE731CD4B908220093234610245F
:101E40001146284601F0D4FE7378C82BE8D8012348
:101E50005F1C7278013B934210D307342B7FA88A12
:101E6000E408B3B9844294BF00200120D9E7AB8ACB
:101E70000824DB00083BDB087370E5E7F319214613
:101E8000082228460093002301F0B2FE08343B46A6
:101E9000DEE7201A18BF0120C3E700002DE9F84350
:101EA0000D4604461646002181222846FFF77AFD9A
:101EB000234608220021284601F0D6FFC6B90F2686
:101EC000631C07220821284601F0CEFF94F9013057
:101ED000B0466778002BB8BF7F2704EB07094C4555
:101EE00008D10736082010FB0760C008BDE8F8835A
:101EF0000826EBE7A31C41460822284608F10808FB
:101F0000013401F0B1FFEAE72DE9F0410D46044646
:101F100016460021CE222846FFF744FD23462822FC
:101F20000021284601F0A0FFBEB9302604F10803C5
:101F300008222821284601F097FF14F8080F0027EF
:101F4000C82828BFC8208046B84506EBC70106D878
:101F500006EBC800C008BDE8F0812826EDE7013790
:101F600008222846E31901F07FFFEDE7F7B5047F6B
:101F700005460E4634B1838AB3F5827F02D901202B
:101F800003B0F0BD0123102200212846009601F085
:101F90002FFEDCB9B31C09221021284600932346EA
:101FA000192401F025FE7388B3F5807FE7D8374602
:101FB000BB1B7288934210D307342B7FA88AE40896
:101FC000B3B9844294BF00200120D9E7AB8A102422
:101FD000DB00103BDB087380E5E73B1D2146082250
:101FE0002846009300230834013701F001FEDFE7A3
:101FF000201A18BF0120C3E730B50A44084D9142AA
:102000000DD011F8013B5840082340F30004013B78
:102010002C4013F0FF0384EA5000F6D1EFE730BD07
:102020002083B8EDF7B5384A6B46106851686A46A8
:1020300003C308233549364805F03EFF044600280F
:1020400033D10A25334A6B46106851686A4603C388
:10205000082331492E4805F02FFF0446002849D0B7
:102060000369B3F5E01F45D8B0F8661040F2374277
:1020700091423FD1294A024402F15C018B4239D39B
:102080005C3B234900209E1AFFF7B6FF04F1640170
:10209000074632460020FFF7AFFFA3689F4229D1D1
:1020A000E368984208BF002524E00369B3F5E01F08
:1020B00027D8418B40F23742914220D1174A02443F
:1020C00002F110018B4218D3103B114900209D1AD8
:1020D000FFF792FF04F1180106462A460020FFF799
:1020E0008BFFA3689E4202D1E368984201D00D2580
:1020F000A8E70025284603B0F0BD1025A2E70C256F
:10210000A0E70B259EE700BF687F0008DCFF1B00EF
:1021100000000408717F000890FF1B000800FCF716
:1021200010B5037C044613B9006804F0C3F82046D8
:1021300010BD00000023BFF35B8FC360BFF35B8F54
:10214000BFF35B8F8360BFF35B8F7047BFF35B8F21
:102150000068BFF35B8F704770B505460C30FFF722
:10216000F5FF044605F108063046FFF7EFFFA042F1
:1021700006D96D683046FFF7E9FF2544281A70BD7F
:102180003046FFF7E3FF201AF9E7000070B5054677
:102190004068A0B105F10C0605F10800FFF7D6FF75
:1021A00004463046FFF7D2FF844204F1FF34304644
:1021B00094BF6D680025FFF7C9FF2C44201A70BD3D
:1021C00038B50C460546FFF7C7FFA04210D305F10E
:1021D0000800FFF7BBFF04446868BFF35B8FB4FBE4
:1021E000F0F100FB11440120AC60BFF35B8F38BD00
:1021F0000020FCE72DE9F041144607460D46FFF7A5
:10220000C5FF844228BF0446D4B1B84658F80C6BC9
:102210004046FFF79BFF3044286040467E68FFF74A
:1022200095FF331A9C4203D801206C60BDE8F08111
:10223000A41B6B603B682044AB60E8600220F5E7BC
:102240002046F3E738B50C460546FFF79FFFA0424E
:1022500010D305F10C00FFF779FF04446868BFF361
:102260005B8FB4FBF0F100FB11440120EC60BFF385
:102270005B8F38BD0020FCE72DE9FF4188466946A9
:1022800007466C46FFF7B6FF002506B204EBC6060C
:10229000B4420AD0626808EB050120680834FFF7F1
:1022A0005BFB54F8043C1D44F2E729463846FFF72F
:1022B000C9FF284604B0BDE8F0810000F8B5054626
:1022C0000C300F46FFF742FF05F108060446304682
:1022D000FFF73CFFA042304688BF6C68FFF736FF2F
:1022E000201A386020B12C683046FFF72FFF2044B9
:1022F000F8BD000073B5144606460D46FFF72CFFE7
:102300008442019028BF0446DCB101A93046FFF7A2
:10231000D5FF019B33B93268C5E90233C5E9002412
:1023200001200CE09C42286038BF0194019884424F
:102330006860F5D93368241A0220AB60EC6002B003
:1023400070BD2046FBE700002DE9FF410F466946BE
:102350006C46FFF7CFFF00B2002604EBC005AC428D
:1023600009D0D4F80480B81954F8081B42464644F2
:10237000FFF7F2FAF3E7304604B0BDE8F081000061
:1023800038B50546FFF7E0FF044601462846FFF74B
:1023900017FF204638BD00007047000010B41346F8
:1023A000026814680022A4465DF8044B60470000F0
:1023B00000F5805090F859047047000000F58050F7
:1023C00090F852047047000000F5805090F95804CE
:1023D000704700004E207047302383F3118800F5CA
:1023E0008052D2F89C34D2F898041844D2F894342D
:1023F0001844D2F87C341844D2F88C341844D2F8FB
:1024000088341844002383F31188704700F5805006
:10241000C0F85414012070472DE9F04F0C4600F528
:10242000805185B01F4691F8523405469046BDF85C
:1024300038909BB1D1F878340133C1F878342368EF
:10244000980006D4237B082B0BD9627B0AB10F2B93
:1024500007D9D1F87C340133C1F87C344FF0FF3018
:1024600010E0302383F31188EB6AD3F8C42012F410
:10247000001B0AD0D1F8803400200133C1F8803429
:1024800080F3118805B0BDE8F08F20684822D3F8AA
:10249000C4300028C3F3044A6B6AB4BF40F08040E4
:1024A000800412FB0A334FEA4A1618602268520071
:1024B0004FEA0A6244BF40F000501860207B42EAB5
:1024C00000425A60607B10B342F440125A60D1F867
:1024D000B0240132C1F8B024AA1902F58352117B4D
:1024E00041F020011173207B039300F0ABFF033018
:1024F000039B80105FFA8BF20BF1010B82420DDA25
:1025000004EB820103EB820249689160F2E7AA19A9
:1025100002F58352117B60F34511E3E70122EB6A78
:1025200005EB4A1102FA0AF201F58251C3F8D020F4
:10253000AB19183104F10C0203F58253C3E9048787
:10254000234653F8040B934241F8040BF9D11B883E
:102550002E440B8041F2680346F803A006F580562E
:1025600009F0030396F86C2043F0100322F01F02D9
:10257000134386F86C30002383F3118842463B46B0
:1025800021462846CDF8009000F022FF012079E78F
:102590002DE9F04700F58056044696F85254002D78
:1025A00040F00381037C032B40F0948028462B46A7
:1025B0002F465FFA80FC944510DA01EBCC0E51F8FF
:1025C0003CC0BCF1000F04DBDEF804C0BCF1000F1E
:1025D00002DB01370130ECE70133FBE7302080F309
:1025E0001188E06AF3B9D0F8803043F00203C0F8F4
:1025F00080304E23E06A002F6FD1D0F8803043F056
:102600000103C0F880306A4B6A4A1B6803F18053AB
:1026100003F52C539B009342A36240F2B0806648BE
:1026200000F0AEFE4D2B42D8DFF884814FEA034E16
:10263000DFF88891D8F800C04EEA8C0EC0F884E02C
:102640000CF1805000F52C508000606103EB0C0011
:10265000D4F82CC0C3F14E03C8F80000DCF88000A9
:1026600040F03000CCF880004FF0000CD4F814801B
:10267000E6465FFA8CF08242BCDD01EBC00A51F8FD
:102680003000002810DBDAF804A0BAF1000F0BDAF2
:1026900009EA00400AF07F0A40EA0A0040F00840D8
:1026A00048F82E000EF1010E0CF1010CE1E78369F0
:1026B00023F00103836100F069FE0646E36A9B692B
:1026C000D90704D500F062FE831BFA2BF6D900234C
:1026D00083F311882846BDE8F087B7EB530F3DD24E
:1026E000DFF8CCE04FEA074CDEF800304CEA830C10
:1026F000C0F888C003F1805003EB4703002700F5C2
:102700002C50CEF80030BC468000A061E06AD0F8C2
:10271000803043F00C03C0F88030D4F818E0FBB2EE
:102720009A427FF770AF51F8330001EBC3080028DD
:10273000D8F8043001DB002B0EDB20F0604023F0E2
:10274000604340F0005043F000434EF83C000EEB75
:10275000CC000CF1010C43600137E0E7836923F002
:102760000103836100F012FE0646E36A9B69DA0703
:10277000ADD500F00BFE831BFA2BF6D9A7E7E26A72
:10278000936923F00103936100F000FE0746E36ABA
:102790009B69DB0705D500F0F9FDC31BFA2BF6D9C1
:1027A00095E7012586F8525491E7002592E700BF8E
:1027B000284F0020FCB500407C7F00080000FF0788
:1027C00013B500F580540191606CFFF7DFFC1F2802
:1027D0000AD920220199606CFFF74EFDA0F1200379
:1027E0005842584102B010BD0020FBE708B5302325
:1027F00083F3118800F58050406CFFF79BFC0023A9
:1028000083F3118808BD00000022026082814260CB
:10281000826070470022002310B5C0E90023002326
:1028200004460C3020F8043CFFF7EEFF204610BDB4
:102830002DE9F0479A4688B00746884691463023EE
:1028400083F3118807F580546846FFF7E3FF606C57
:10285000FFF782FC1F282ED920226946606CFFF703
:102860008FFD202827D194F8523423B303AD44467A
:1028700005AB2E46083403CE9E4244F8080C44F8BB
:10288000041C3546F5D130682060B388A380DDE9AB
:102890000023C9E90023BDF80830AAF8003000235E
:1028A00083F3118853464A464146384608B0BDE88E
:1028B000F04700F07BBD002080F3118808B0BDE830
:1028C000F08700002DE9F84F0023064600F58154FB
:1028D000054688461034C0E90133264B46F8303BA4
:1028E000374638462037FFF795FFA742F9D105F55F
:1028F00080544FF4805305F5A3594FF0000A266326
:102900000026676405F5835709F110094FF0000BA5
:102910001037E663C4E90D36012384F8403084F8AB
:102920004830A7F11800203747E910ABFFF76CFFDC
:1029300047F8286C4F45F4D184F85884A4F85A64B9
:10294000A4F85C64A4F85E6484F86064A4F862642B
:10295000A4F86464A4F8666484F86864B8F1000FAD
:1029600002D0054800F00CFD044B2846EB62BDE8A0
:10297000F88F00BFBC7F0008A07F000800A00040C7
:10298000044B10B5197804464A1C1A70FFF79AFFD9
:10299000204610BD254F00202DE9F04300295AD0D4
:1029A0002E4E2F48B6FBF1F481428CBF0A20112035
:1029B000431EB4FBF0F700FB1740DDB220B1022B41
:1029C0001846F5D8002032E07B1EB3F5806F2ED27A
:1029D000C5EBC5084FF47A7308F103044FEAE40E1F
:1029E000C4F3C7040EF10109281B0EFB033E5FFA76
:1029F00080FC59FA80F0BEFBF0F0B0F5617F18DC86
:102A000083B2601C5CFA80F07843B6FBF0F0814240
:102A1000D8D1611E0F29D5D80CF1FF310729D1D8A3
:102A20000120138057801071547182F806C0BDE8F0
:102A3000F08308F1FF34E010C4F3C70400F1010E85
:102A40002D1B00FB03335FFA85FC5EFA85F5B3FBB3
:102A5000F5F39BB2D5E70846E9E700BF00B4C4042C
:102A60003F420F0030B50D4B05200D4D1C786C43D7
:102A70008C420ED159780120518099785171D978C2
:102A80009171197911715B7903EB83035B001380FA
:102A900030BD013803F10603E8D1F9E7FC7F0008F7
:102AA00040420F0038B540F27772C36A154CC3F844
:102AB000BC200722C36AC3F8C8202268C16A9300F9
:102AC00043F4C023C1F8A03002F1805302F16C013D
:102AD000C56A03F52C53EA3289009B00226041F05D
:102AE000E061094AC361C5F8C01003F5D87103F568
:102AF0006A7341629342836202D9044800F040FC49
:102B000038BD00BF284F0020FCB500407C7F000886
:102B10002DE9F04F00F580551F4689B0044695F821
:102B2000583489469046012B04D90026304609B016
:102B3000BDE8F08FA04A52F8231009B942F82300EB
:102B40009E48C4F80C9001782774C9B9302383F3E8
:102B500011889B4BD3F8EC2042F48072C3F8EC2030
:102B6000D3F8942042F48072C3F89420D3F89420D0
:102B700022F48072C3F894200123037081F311883A
:102B800095F851647EB9302383F311880321132013
:102B900001F078FF0321152001F074FF012385F86F
:102BA000513486F31188302383F31188E26A9369E4
:102BB00023F01003936100F0E9FB8246E36A9E690B
:102BC00016F0080609D000F0E1FBA0EB0A03FA2B8F
:102BD000F4D9002686F31188A8E79A6942F0010229
:102BE0009A6100F0D3FB8246E36A9A69D00706D463
:102BF00000F0CCFBA0EB0A03FA2BF5D9E9E79A69C0
:102C00004FF0000A42F002029A61E36AC3F854A04E
:102C10008AF3118804F5825B686CFFF78BFA0BF17D
:102C2000100B202200216846FEF7BCFE02A8FFF729
:102C3000EBFD6A460BEB06030DF1180ECDF818A05C
:102C400094460833BCE80300F44543F8080C43F805
:102C5000041C6246F4D1DCF8000020361860B6F59A
:102C6000806F9CF804201A71DBD1002304F5A25276
:102C7000494620461A3285F8503485F85334FFF718
:102C80008BFE064690B9E26A936923F001039361D3
:102C900000F07CFB0546E36A9B69D9077FF545AFE9
:102CA00000F074FB431BFA2BF5D93EE795F85E3430
:102CB000C5F86C94591E95F85F34E26A013B1B021B
:102CC00043EA416395F8601401390B43B5F85C148D
:102CD000013943EA0143D361B8F1000F36D004F55E
:102CE000A352414620460232FFF7BCFE90B9E26A89
:102CF000936923F00103936100F048FB0546E36A02
:102D00009B69DA077FF511AF00F040FB431BFA2BFC
:102D1000F5D90AE795F86724C5F87084511E95F82F
:102D20006824E36A013A120142EA012295F8661426
:102D300001390A43B5F86414013942EA014242F408
:102D40000002DA604FF42062E36A9A64E36A4FF0AB
:102D500000082046C3F8BC80FFF7A4FE85F859841C
:102D60006FF04042E36A1A65164AE36A5A654FF00B
:102D70000222E36A9A654FF0FF32E36AC3F8E0206B
:102D80000322E36A9742DA653FF4D0AEE26A9369C0
:102D900023F00103936100F0F9FA0746E36A9B69A7
:102DA000DB0705D500F0F2FAC31BFA2BF6D9BCE617
:102DB000012385F85234B9E6204F0020244F00202B
:102DC00000440258550200022DE9F04F054689B033
:102DD00090469946002741F2680A00F58056EB6A52
:102DE000D3F8D830FB40D80751D505EB47124FEA4E
:102DF000471B52441379190749D4D6F88434013358
:102E0000C6F8843405F5A553C3E9008913799A06F9
:102E100005EB0B0248BFD6F8B434524444BF01332B
:102E2000C6F8B434137943F008031371DB0723D5D4
:102E300096F8533403B305F582546846FFF7EAFC6D
:102E400003AB18345C4404F1080C2068083454F8CF
:102E5000041C1A46644503C21346F6D1206869462D
:102E600010602846A2889A800123ADF808302B68AC
:102E7000CDE90089DB6B9847D6F8A834D6F854041E
:102E80000133C6F8A83410B103681B6998470137AD
:102E9000202FA4D109B0BDE8F08F00002DE9F04F3C
:102EA0000F468DB0044600F073FA82468946002F23
:102EB0005BD1E36AD3F8A02012F4FE0F03D1002007
:102EC0000DB0BDE8F08FD3F8A420920141BF04F506
:102ED0008051D1F898240132C1F89824D3F8A42065
:102EE0005606ECD0D3F8A450E669C5F3052548236F
:102EF000E8464FF0000B03FB05664046FFF784FCF5
:102F0000326851004ABF22F06043C2F38A4343F063
:102F10000043920048BF43F080430093736813F46A
:102F200000131BBF012304F580528DF80D308DF87E
:102F30000D301EBFD2F8B8340133C2F8B834F3886C
:102F400003F00F038DF80C309DF80C0000F07AFAB6
:102F50005FFA8BF3984225D9F2180CA90BF1010BFB
:102F6000127A0B4403F82C2CEEE7012FA7D1E36A69
:102F7000D3F8B02012F4FE0FA1D0D3F8B4209501FD
:102F800041BF04F58051D1F898240132C1F898244A
:102F9000D3F8B420500692D0D3F8B450266AC5F3C3
:102FA0000525A4E7EFB9E36AC3F8A85004A807AD64
:102FB000FFF730FC98E80F0007C52B800023204660
:102FC00004A9ADF81830236804F58054DB6BCDE913
:102FD00004A9984758B1D4F890340133C4F8903418
:102FE0006EE7012FE2D1E36AC3F8B850DEE7D4F808
:102FF000943401200133C4F8943461E72DE9F041A1
:1030000005460F4600F58054012639462846FFF74D
:1030100045FF10B184F85364F7E7D4F8A834D4F826
:1030200054040133C4F8A83420B10368BDE8F0416A
:103030001B691847BDE8F081C36AF0B51A6C12F439
:103040007F0F2BD01B6C00F5805441F268054FF0C8
:10305000010CC4F8AC340023471900EB43125E01A5
:103060002A44117911F0020F15D0490713D4B95928
:10307000C66A0CFA01F1D6F8CCE011EA0E0F0AD0BC
:10308000C6F8D410117941F004011171D4F88C24E0
:103090000132C4F88C240133202BDED1F0BD0000B6
:1030A00010B5264C264B22680AB340B31A6D920520
:1030B0000FD54FF400721A6500F06AF950EA010268
:1030C0000B4602D0013861F1000302462068FFF789
:1030D0007BFE1B4A136D9B012AD523684FF00071BC
:1030E00003F580531165012283F8592420E0012261
:1030F0001A6510221A654FF480521A6510BD196DB9
:10310000C80702D4196D490705D505211046196570
:103110000021FFF773FF0A4B1A6DD00602D41A6D17
:10312000510605D5502201211A652068FFF766FF78
:103130002068BDE81040FFF77FBF00BF204F002090
:1031400000A0004008B5302383F31188FFF774FF17
:10315000002383F3118808BDC36AD3F8C00010F0C0
:103160007C5005D0D3F8C40080F40010C0F3405068
:103170007047000008B5302383F3118800F58050B4
:10318000406CFEF7E9FF002383F3118843090CBF6D
:103190000120002008BD000000F5805393F8592459
:1031A00062B1C16A8A6922F001028A61D3F89C2463
:1031B0000132C3F89C24002283F859247047000090
:1031C0002DE9F743302181F3118800F58251002564
:1031D00041F2680E4FF00108103100F5805C00EB01
:1031E00045147444267977071CD4F6061AD58E69DF
:1031F000D0F82C9008FA06F6D9F8CC703E4211D0DF
:103200004F6801970F689742019F9F410AD2C9F802
:10321000D460267946F004062671DCF8884401342F
:10322000CCF8884401352031202DD8D1002383F3F8
:10323000118803B0BDE8F083F8B51E4600230F46A1
:10324000054613701446FFF795FF80F001003870B3
:103250001EB12846FFF780FF2070F8BD2DE9F04F22
:1032600085B099460D468046164691F800B0DDE9D6
:103270000EA302931378019300F08AF82B7804468A
:103280000F4613B93378002B41D022463B464046C7
:10329000FFF796FFFFF756FFFFF77EFF4B463246DC
:1032A0002946FFF7C9FF2B7833B1BBF1000F03D0DC
:1032B000012005B0BDE8F08F337813B1019B002BDE
:1032C000F6D108F5805303935445029B77EB030333
:1032D0001DD2039BD3F85404C8B10368AAEB0401C0
:1032E0001B6898474B46324629464046FFF7A4FFE5
:1032F0002B7813B1BBF1000FDAD1337813B1019BF6
:10330000002BD5D100F044F804460F46DCE700203E
:10331000CFE7000008B50020FFF7C2FEBDE8084077
:1033200001F05AB808B50120FFF7BAFEBDE8084021
:1033300001F052B800B59BB0EFF3098168226846EE
:10334000FEF70AFBEFF30583014B9B6BFEE700BF23
:1033500000ED00E008B5FFF7EDFF000000B59BB001
:10336000EFF3098168226846FEF7F6FAEFF305836A
:10337000014B5B6BFEE700BF00ED00E0FEE70000E5
:103380000FB408B5029802F071FAFEE702F0C0BF70
:1033900002F0A2BF13B56C46031D84E8060094E852
:1033A000030083E80500012002B010BD73B58568F5
:1033B000019155B11B885B0707D4D0E900369B6BA0
:1033C0009847019AC1B23046A847012002B070BDAB
:1033D000F0B5866889B005460C465EB1BDF8383058
:1033E0005B070AD4D0E900379B6B98472246C1B2ED
:1033F0003846B047012009B0F0BD0022002301F19A
:103400000806CDE9002300230A46ADF8083003ABD7
:103410001068083252F8041C1C46B24203C423460A
:10342000F6D1106820609288A280FFF7B1FF0423D4
:10343000ADF808302B68CDE90001DB6B6946284602
:103440009847D7E7082817D909280CD00A280CD0A4
:103450000B280CD00C280CD00D280CD00E2814BF33
:103460004020302070470C207047102070471420F7
:103470007047182070472020704700002DE9F04168
:10348000456A15B94162BDE8F0814B68AC4623F04E
:103490006047C3F38A464FEAD37EC3F3807816EAC7
:1034A000230638BF3E462B465A68BEEBD27F22F039
:1034B00060440AD0002A18DAA40CB44217D19D4205
:1034C0000FD10D60DEE71346EEE7A74207D102F009
:1034D0008044C2F3807242450BD054B1EFE708D26A
:1034E000EDE7CCF800100B60CDE7B44201D0B44258
:1034F000E5D81A689C46002AE5D11960C3E70000A8
:103500002DE9F047089D01F0070400EBD1004FF4CE
:103510007F494FEAD508224405F00705944201D1BE
:10352000BDE8F08704F0070705F0070A111B08EB58
:10353000D50E57453E4613F80EC038BF5646C6F165
:1035400008068E4228BF0E46E108415C34443544EB
:10355000B94029FA06F721FA0AF1FFB28CEA010113
:1035600047FA0AF739408CEA010C03F80EC0D5E798
:1035700080EA0120082341F2210201B2013B400010
:10358000002980B2B8BF504013F0FF03F5D1704757
:1035900038B50C468D18A54200D138BD14F8011B72
:1035A000FFF7E6FFF7E7000042684AB11368818938
:1035B0004360438901339BB29942438138BF838181
:1035C0001046704770B588B0044620220D46684604
:1035D0000021FEF7E7F920460495FFF7E5FF0246D4
:1035E00060B16B46054608AE1C46083503CCB442B4
:1035F00045F8080C45F8041C2346F5D1104608B0E0
:1036000070BD0000082817D909280CD00A280CD052
:103610000B280CD00C280CD00D280CD00E2814BF71
:103620004020302070470C20704710207047142035
:10363000704718207047202070470000082817D9CD
:103640000C280CD910280CD914280CD918280CD9FE
:1036500020280CD930288CBF0F200E20704709205D
:1036600070470A2070470B2070470C2070470D20D0
:10367000704700002DE9F843078C0446072F1ED938
:1036800000254FF6FF73D0E90298C5F12006A5F199
:10369000200029FA05F1083508FA06F628FA00F0A4
:1036A000314301431846C9B2FFF762FF402D03467C
:1036B000EBD13A46E169BDE8F843FFF769BF4FF641
:1036C000FF70BDE8F883000010B54B6823B9CA8AC3
:1036D00063F30902CA8210BD04691A681C600361A1
:1036E000C38A013BC3824A60EFE700002DE9F84F2F
:1036F0001D46CB8A0F468146C3F309019246052930
:103700000B4630D00020AAB207F11A049EB21FFA6D
:1037100080F8042E0FD8904503F1010306D30A4424
:10372000FB8A62F309030120FB821AE01AF80060A9
:103730000130E654EAE79045F1D2A1F1050B1C23D4
:103740007C68BBFBF3F203FB12BB1FFA8BF6002C69
:1037500045D14846FFF728FF044638B978606FF036
:103760000200BDE8F88F4FF00008E6E7002606608B
:103770007860ADB24FF0000B454510D90AEB080355
:10378000221D13F8011B08F101089155B1B21FFA6F
:1037900088F81B292BD0454506F10106F1D8FB8A94
:1037A000C3F30902154465F30903BCE701321C4663
:1037B00092B22368002BF9D16B1F0B441C21B3FB81
:1037C000F1F301339BB29A42D3D2BBF1000FD0D1B7
:1037D0004846FFF7E9FE20B9C4F800B0BFE7012270
:1037E000E7E7C0F800B05E4620600446C1E7454503
:1037F000D5D94846FFF7D8FE08B92060AFE7C0F832
:1038000000B0002620600446B6E700002DE9F04F26
:103810001C46074688462DED028B83B05B690192FA
:10382000002B00F09A80238C2BB1E269002A00F073
:103830009480072B35D807F10C00FFF7B5FE05463D
:1038400038B96FF00205284603B0BDEC028BBDE825
:10385000F08F14220021FEF7A5F8228CE16905F112
:103860000800FEF779F8208C48F00041013080B262
:10387000FFF7E4FEFFF7C6FE013880B22084013076
:10388000287438466369228C1B782A4403F01F038E
:1038900063F03F03137269602946FFF7EFFD0125CE
:1038A000D1E74FF0000900F10C034FF0800A4E46BB
:1038B0004D4608EE103A18EE100AFFF775FE8346E3
:1038C0000028BED014220021FEF76CF8002E3AD159
:1038D000019B0222ABF808300BF1080E1FFA82FCA4
:1038E000218C0CF10100BCF1060F80B201D88E4290
:1038F0002BD3FFF7A3FE8E4208BF4FF0400AFFF71D
:1039000081FE62690138013512781BFA80F10130BD
:1039100002F01F022DB242EA491289F001094AEA77
:10392000020A48F0004281F808A059468BF81000BE
:103930003846CBF804204FF0000AFFF79FFD238C98
:10394000B342B8D17FE70022C6E7E169895D01365D
:103950000EF80210B6B20132C0E76FF0010572E74F
:10396000F8B515460E463022002104461F46FEF7E4
:1039700019F8069BB5F5001FA760636004F11000FD
:10398000079B34BF6A094FF6FF72E661A36200230A
:1039900097B29A4206D800230360A782E38223836A
:1039A000E360F8BD0660013330462036F1E70000E1
:1039B00003781BB94BB2002BC8BF017070470000E1
:1039C00000787047F8B50C46C969074611B9238CD1
:1039D000002B37D1257E1F2D34D8387828BB228C78
:1039E000072A2CD8268A36F003032BD14FF6FF7016
:1039F000FFF7CEFD20F0010031024FF6FF724004C8
:103A000041EA0561400C41EA4025234629463846F3
:103A1000FFF7FCFE002807DD626913780133DBB293
:103A20001F2B88BF00231370F8BD218A2D0645EA9D
:103A3000012505432046FFF71DFE0246E5E76FF02E
:103A40000300F1E76FF00100EEE7000070B58AB007
:103A5000044616460021282268461D46FDF7A2FFAF
:103A6000BDF8383069462046ADF810300F9B0593FD
:103A70009DF840308DF81830119B0793BDF8483001
:103A8000CDE90265ADF82030FFF79CFF0AB070BDAC
:103A90002DE9F041D36905460C4616460BB9138C47
:103AA0005BBB377E1F2F28D895F80080B8F1000F38
:103AB00026D03046FFF7DEFD337821020246284645
:103AC00041EAC331338A41EA080141EA076141EA28
:103AD0000341334641F08001FFF798FE00280ADDDC
:103AE0003378012B07D1726913780133DBB21F2BB6
:103AF00088BF00231370BDE8F0816FF00100FAE782
:103B00006FF00300F7E70000F0B58BB004460D46F8
:103B100017460021282268461E46FDF743FF9DF800
:103B20004C30294620465A1E534253416A468DF86E
:103B300000309DF84030ADF81030119B05939DF892
:103B400048308DF81830149B0793BDF85430CDE9F8
:103B50000276ADF82030FFF79BFF0BB0F0BD000000
:103B6000406A00B104307047436A1A6842620269D1
:103B70001A600361C38A013BC38270472DE9F0419B
:103B8000D0F8208014461D46184E4146002709B93A
:103B9000BDE8F081D1E90223A21A65EB0303964246
:103BA00077EB03031ED2036A8B420DD1FFF78CFD26
:103BB000036A1B68036203690B60C38A0161013BEE
:103BC000016AC3828846E2E7FFF77EFD0B68C8F80A
:103BD000003003690B60C38A0161013BC382D8F8DE
:103BE0000010D4E788460968D1E700BF80841E0032
:103BF0002DE9F04F8BB00D4614469B46DDF85090F2
:103C00008046002800F01881B9F1000F00F01481FF
:103C1000531E3F2B00F21081012A03D1BBF1000F8C
:103C200040F00A810023CDE90833B8F81430B5EB31
:103C3000C30F4FEAC30703D300200BB0BDE8F08FDA
:103C40002B199F42D8F80C3036BF7F1B2746FFB296
:103C50001BB9D8F81030002B7AD0272D4DD8C5F1DC
:103C6000280600232946B742009308ABD8F808007D
:103C70002CBFF6B23E46A7EB060A354432465FFA41
:103C80008AFAFFF73DFCB8F81430282103F10053FD
:103C9000053BDB000493D8F80C300393039B13B16E
:103CA000BAF1000F2CD1D8F8100040B1BAF1000FD2
:103CB00005D008AB5246691A0096FFF721FC38B2CE
:103CC000002FB9D066070AD00AAB624203EBD401D9
:103CD00002F0070211F8083C134101F8083C082CD7
:103CE0003DD9102C40F2B580202C40F2B780BBF1BA
:103CF000000F00F09C80082335E0BA460026C2E79A
:103D0000049BE02B28BFE02306930B44AB420593B2
:103D100015D95A1B0398691A0096924508AB00F111
:103D2000040034BF5246D2B20792FFF7E9FB079A6C
:103D30001644AAEB020A1544F6B25FFA8AFA049B0B
:103D4000069A05999B1A0493039B1B680393A5E7A6
:103D500000933A4608AB2946D8F80800ADE7BBF116
:103D6000000F13D00123B4EBC30F6BD0082C12D873
:103D70009DF82030621E23FA02F2D50706D54FF0D7
:103D8000FF3202FA04F423438DF820309DF82030EE
:103D900089F8003051E7102C12D8BDF82030621E8F
:103DA00023FA02F2D10706D54FF0FF3202FA04F4EB
:103DB0002343ADF82030BDF82030A9F800303CE7AF
:103DC000202C0FD80899631E21FA03F3DA0705D5D2
:103DD0004FF0FF3202FA04F40C430894089BC9F830
:103DE00000302AE7402C2AD0611EC4F12102A4F140
:103DF0002103DDE9086526FA01F105FA02F225FA48
:103E000003F311431943CB0711D50122A4F1200379
:103E1000C4F1200102FA03F322FA01F1A2400B439C
:103E2000524263EB430332432B43CDE90823DDE9E0
:103E30000823C9E9002300E76FF00100FDE66FF0F9
:103E40000800FAE6082CA1D9102CB4D9202CEED801
:103E5000C4E7BBF1000FAED0022384E7BBF1000F33
:103E6000BCD004237FE70000012A30B5144638BFD8
:103E7000012485B00025402C28BF4024012ACDE92B
:103E8000025518D81B788DF8083063070AD004ABA8
:103E9000624203EBD40502F0070215F8083C934098
:103EA00005F8083C034600912246002102A8FFF7CE
:103EB00027FB05B030BD082AE4D9102A03D81B8897
:103EC000ADF80830E1E7202A95BF1B68D3E900234D
:103ED0000293CDE90223D8E710B5CB681BB98B60FC
:103EE0000B618B8210BD04691A681C600361C38A70
:103EF000013BC382CA60F0E703064CBFC0F3C03089
:103F00000220704708B50246FFF7F6FF022806D1E7
:103F10005306C2F30F2001D100F0030008BDC2F325
:103F20000740FBE72DE9F04F93B004460D46CDE97D
:103F300003230A681046FFF7DFFF0228824614BFFA
:103F4000C2F306260026002A80F2F88112F0C0494A
:103F500040F0F481097B002900F0F081022803D0B1
:103F60002378B34240F0ED81C2F304631046294444
:103F7000069302F07F030593FFF7C4FF059B002221
:103F800083464FEA8348002348EA0A4848EA4668DD
:103F9000CE78CDE90823F30948EA0008029368D0F7
:103FA000059B024608A92046009353466768B84718
:103FB000002800F0C981276A4FB9414604F10C007E
:103FC000FFF700FB074690B96FF0020055E03B6930
:103FD00098450DD03F68002FF9D1414604F10C00FF
:103FE000FFF7F0FA07460028EED0236A3B6027620D
:103FF00097F817C006F01F08CCF3840CACEB080050
:10400000A8EB0C031FFA80FE0028B8BF0EF12000B9
:104010001FFA83FEB8BF00B2002B0793B8BF0EF1A2
:104020002003D7E90221BCBF1BB2079352EA010368
:1040300038D0039B4FF0000CDFF81CE39A1A049B66
:1040400063EB010196457CEB01032BD36B7B97F867
:104050001AE0734519D1029B002B78D0012821DC8E
:104060007868F8B9DFF8ECC2944570EB010316D319
:1040700037E0276A27B96FF00C0013B0BDE8F08F66
:104080003B699845B4D03F68F4E7B24890427CEB76
:10409000010301D30020F0E7029B002BFAD0079B1D
:1040A0000F2B17DCFA7DB3003946204602F00302DD
:1040B00003F07C031343FB75FFF706FB6B7BBB76BA
:1040C000029B3BB9FB7DC3F38402013262F386039A
:1040D000FB75D0E76A7BBB7E9A42DBD1029B002B4B
:1040E00035D0B309022B32D0039B142200210DA836
:1040F000BB60049BFB60FDF755FC039B0AA92046AF
:104100000A93049BADF83EB00B932B1D8DF840A095
:104110000C932B7B8DF84180013BDBB2ADF83C303A
:10412000069B8DF84230059B8DF8433094F82C3077
:1041300083F001038DF84430A3689847FB7DC3F3F7
:104140008403013303F01F039B02FB82A2E7FB7D84
:10415000C6F34012B2EBD31F40F0F980C3F38403DF
:10416000434540F0FB80029AB6092B7B002A52D0CF
:1041700016F0010661D1032B40F2F380039B394610
:1041800004F10C00BB60049BFB60FB8A66F309032F
:10419000AE1DFB8232462B7B033BDBB2FFF7A6FA58
:1041A00000280CDA39462046FFF78EFAFB7DC3F370
:1041B0008403013303F01F039B02FB8204E7AB88F7
:1041C000DDE908843B834FF6FF73C9F12000A9F1B4
:1041D000200228FA09F109F1080904FA00F024FA8A
:1041E00002F2014318461143C9B2FFF7C1F9B9F110
:1041F000400F0346E9D1B88231462A7B033AD2B256
:10420000FFF7C6F9FB7DB882DA43C2F3C01262F34E
:10421000C713FB753EE786B92E1D013B394604F1F5
:104220000C00DBB23246FFF761FA0028BADB2A7BCA
:104230003146B88A013AD2B2E2E7F98A013BC1F3CA
:104240000901DAB204295BD8281D002307F11B06F7
:104250009A4208D910F801CB013306F801C00131A8
:10426000DBB20529F4D1039993420A9138BF043394
:1042700004992CBF002355FA83F30B9107F11B011E
:104280000C9179680E930D91291DFB8AADF83EB013
:10429000C3F309038DF840A08DF841801A44069BB2
:1042A0008DF84230059BADF83C208DF8433094F8F2
:1042B0002C3083F001038DF844300023B88A7B60F2
:1042C0002A7B013AFFF764F93B8BB882834203D122
:1042D000A3680AA92046984720460AA9FFF7FCFDD3
:1042E000FB7DBA8AC3F38403013303F01F039B02EF
:1042F000FB823B8B9A420CBF00206FF01000BCE6A3
:104300007B68002BAFD0052001E01C3033461E68CF
:10431000002EFAD1091A2E1D081D184401EB090CB4
:104320005FFA89F3BCF11B0F9DD89A429BD916F80E
:10433000013B09F1010900F8013BEFE76FF00900CB
:104340009BE66FF00A0098E66FF00B0095E66FF0C1
:104350000D0092E640420F0080841E006FF00E00B8
:104360008BE66FF00F0088E6EFF3098305496833A9
:104370004A6B22F001024A6383F30988002383F326
:104380001188704700EF00E0302080F3118862B69A
:104390000D4B0E4AD96821F4E0610904090C0A4367
:1043A0000B49DA60D3F8FC2042F08072C3F8FC209D
:1043B000084AC2F8B01F116841F0010111602022C3
:1043C000DA7783F82200704700ED00E00003FA0579
:1043D00055CEACC5001000E0302310B583F3118832
:1043E0000E4B5B6813F4006314D0F1EE103AEFF358
:1043F00009844FF08073683CE361094BDB6B2366F3
:1044000084F3098801F0F8F910B1064BA36110BDDF
:10441000054BFBE783F31188F9E700BF00ED00E0EF
:1044200000EF00E03F0400084204000808B5074B15
:10443000074A196801F03D01996053680BB1906813
:104440009847BDE80840FFF7C7BF00BF0000024023
:10445000304F002008B5084B1968890901F03D016B
:104460008A019A60054AD3680BB110699847BDE884
:104470000840FFF7B1BF00BF00000240304F0020EE
:1044800008B5084B1968090C01F03D010A049A604F
:10449000054A53690BB190699847BDE80840FFF79A
:1044A0009BBF00BF00000240304F002008B5084B02
:1044B0001968890D01F03D018A059A60054AD369A2
:1044C0000BB1106A9847BDE80840FFF785BF00BFF1
:1044D00000000240304F002008B5074B074A5968DA
:1044E00001F03D01D960536A0BB1906A9847BDE86D
:1044F0000840FFF771BF00BF00000240304F0020AE
:1045000008B5084B5968890901F03D018A01DA6054
:10451000054AD36A0BB1106B9847BDE80840FFF716
:104520005BBF00BF00000240304F002008B5084BC1
:104530005968090C01F03D010A04DA60054A536B21
:104540000BB1906B9847BDE80840FFF745BF00BF2F
:1045500000000240304F002008B5084B5968890D13
:1045600001F03D018A05DA60054AD36B0BB1106C8E
:104570009847BDE80840FFF72FBF00BF000002408A
:10458000304F002008B5074B074A196801F03D017C
:104590009960536C0BB1906C9847BDE80840FFF7E9
:1045A0001BBF00BF00040240304F002008B5084B7D
:1045B0001968890901F03D018A019A60054AD36CA6
:1045C0000BB1106D9847BDE80840FFF705BF00BF6D
:1045D00000040240304F002008B5084B1968090C50
:1045E00001F03D010A049A60054A536D0BB1906DCC
:1045F0009847BDE80840FFF7EFBE00BF0004024047
:10460000304F002008B5084B1968890D01F03D01B5
:104610008A059A60054AD36D0BB1106E9847BDE8C4
:104620000840FFF7D9BE00BF00040240304F002011
:1046300008B5074B074A596801F03D01D960536E30
:104640000BB1906E9847BDE80840FFF7C5BE00BFAC
:1046500000040240304F002008B5084B5968890912
:1046600001F03D018A01DA60054AD36E0BB1106F8B
:104670009847BDE80840FFF7AFBE00BF0004024006
:10468000304F002008B5084B5968090C01F03D0176
:104690000A04DA60054A536F0BB1906F9847BDE882
:1046A0000840FFF799BE00BF00040240304F0020D1
:1046B00008B5084B5968890D01F03D018A05DA609B
:1046C000054AD36F13B1D2F880009847BDE808407F
:1046D000FFF782BE00040240304F002000230C4947
:1046E00010B51A460B4C0B6054F82300026001EB26
:1046F000430004334260402BF6D1074A4FF0FF33AA
:104700009360D360C2F80834C2F80C3410BD00BF07
:10471000304F00201C800008000002400F28F8B530
:1047200010D9102810D0112811D0122808D10F2428
:104730000720DFF8B4E00126DEF80050A04208D9D7
:10474000002649E00446F4E70F240020F1E707249F
:10475000FBE706FA00F73D4240D1214C4FEA001C2E
:104760003D4304EB00160EEBC000CEF80050C0E94C
:104770000123FBB24BB11B48836B43F001038363FE
:10478000036E43F001030366036E17F47F4F09D0F5
:104790001448836B43F002038363036E43F0020308
:1047A0000366036E54F80C00036823F01F030360D4
:1047B000056815F00105FBD104EB0C033D2493F8CB
:1047C0000CC05F6804FA0CF43C602124056044616D
:1047D00012B1987B00F056F93046F8BD0130ADE7D4
:1047E0001C80000800450258304F002010B53024CE
:1047F00084F31188FFF792FF002383F3118810BD23
:1048000010B50446807B00F053F901231049627B08
:1048100003FA02F20B6823EA0203DAB20B604AB928
:104820000C4A916B21F001019163116E21F001019D
:104830001166126E13F47F4F09D1064B9A6B22F06A
:1048400002029A631A6E22F002021A661B6E10BDF3
:10485000304F00200045025808B5302383F31188FB
:10486000FFF7CEFF002383F3118808BD0268436879
:104870001143016003B1184770470000024A1368F2
:1048800043F0C003136070470078004013B50E4C2E
:10489000204600F0B7FA04F1140000234FF4007230
:1048A0000A49009400F074F9094B4FF40072094969
:1048B00004F13800009400F0EDF9074A074BC4E911
:1048C000172302B010BD00BFB44F002020500020BD
:1048D0007D480008205200200078004000E1F505E6
:1048E000037C30B5214C002918BF0C46012B0CD19C
:1048F0001F4B984209D11F4B9A6C42F080429A6438
:104900001A6F42F080421A671B6F2268036EC16DF6
:1049100003EB52038466B3FBF2F36268150442BFF3
:1049200023F0070503F0070343EA4503CB60A368C0
:1049300043F040034B60E36843F001038B6042F4B3
:10494000967343F001030B604FF0FF330B62510588
:1049500005D512F0102205D0B2F1805F04D080F8A6
:10496000643030BD7F23FAE73F23F8E71C8100085D
:10497000B44F0020004502582DE9F047C66D0546AA
:104980003768F469210734621AD014F0080118BF9F
:104990004FF48071E20748BF41F02001A3074FF0B8
:1049A000300348BF41F04001600748BF41F080013B
:1049B00083F31188281DFFF759FF002383F3118823
:1049C000E2050AD5302383F311884FF48061281D56
:1049D000FFF74CFF002383F311884FF030094FF0AD
:1049E000000A14F0200838D13B0616D54FF03009E4
:1049F00005F1380A200610D589F31188504600F0D9
:104A00007DF9002836DA0821281DFFF72FFF27F04F
:104A100080033360002383F31188790614D562067E
:104A200012D5302383F31188D5E913239A4208D194
:104A30002B6C33B127F040071021281DFFF716FF1C
:104A40003760002383F31188E30618D5AA6E136933
:104A5000ABB15069BDE8F047184789F31188736A14
:104A6000284695F86410194000F0E6F98AF3118899
:104A7000F469B6E7B06288F31188F469BAE7BDE873
:104A8000F0870000090100F16043012203F5614352
:104A9000C9B283F8001300F01F039A4043099B003A
:104AA00003F1604303F56143C3F880211A60704746
:104AB00000F01F0301229A40430900F160409B006F
:104AC00000F5614003F1604303F56143C3F88020C2
:104AD000C3F88021002380F800337047F8B51546ED
:104AE000826804460B46AA4200D28568A1692669FD
:104AF000761AB5420BD218462A46FCF72DFFA36959
:104B00002B44A3612846A3685B1BA360F8BD0CD9A6
:104B1000AF1B18463246FCF71FFF3A46E1683044A7
:104B2000FCF71AFFE3683B44EBE718462A46FCF71C
:104B300013FFE368E5E7000083689342F7B5044696
:104B4000154600D28568D4E90460361AB5420BD206
:104B50002A46FCF701FF63692B4463612846A3687A
:104B60005B1BA36003B0F0BD0DD93246AF1B0191B2
:104B7000FCF7F2FE01993A46E0683144FCF7ECFE9E
:104B8000E3683B44E9E72A46FCF7E6FEE368E4E72E
:104B900010B50A440024C361029B8460C1600261B5
:104BA0000362C0E90000C0E9051110BD08B5D0E9F5
:104BB0000532934201D1826882B9826801328260F3
:104BC0005A1C426119700021D0E904329A4224BF74
:104BD000C368436100F0C0FE002008BD4FF0FF3005
:104BE000FBE7000070B5302304460E4683F31188BE
:104BF000A568A5B1A368A269013BA360531CA3618A
:104C000015782269934224BFE368A361E3690BB17D
:104C100020469847002383F31188284607E0314651
:104C2000204600F089FE0028E2DA85F3118870BD85
:104C30002DE9F74F04460E4617469846D0F81C90CB
:104C40004FF0300A8AF311884FF0000B154665B11A
:104C50002A4631462046FFF741FF034660B94146E8
:104C6000204600F069FE0028F1D0002383F311886C
:104C7000781B03B0BDE8F08FB9F1000F03D00190AD
:104C80002046C847019B8BF31188ED1A1E448AF316
:104C90001188DCE7C160C361009B82600362C0E9E8
:104CA00005111144C0E9000001617047F8B50446E0
:104CB0000D461646302383F31188A768A7B1A36871
:104CC000013BA36063695A1C62611D70D4E9043220
:104CD0009A4224BFE3686361E3690BB120469847B9
:104CE000002080F3118807E03146204600F024FEC2
:104CF0000028E2DA87F31188F8BD0000D0E9052327
:104D000010B59A4201D182687AB9826800210132D5
:104D100082605A1C82611C7803699A4224BFC3686E
:104D2000836100F019FE204610BD4FF0FF30FBE715
:104D30002DE9F74F04460E4617469846D0F81C90CA
:104D40004FF0300A8AF311884FF0000B154665B119
:104D50002A4631462046FFF7EFFE034660B941463A
:104D6000204600F0E9FD0028F1D0002383F31188EC
:104D7000781B03B0BDE8F08FB9F1000F03D00190AC
:104D80002046C847019B8BF31188ED1A1E448AF315
:104D90001188DCE7026843681143016003B11847DA
:104DA000704700001430FFF743BF00004FF0FF339F
:104DB0001430FFF73DBF00003830FFF7B9BF0000E7
:104DC0004FF0FF333830FFF7B3BF00001430FFF768
:104DD00009BF00004FF0FF311430FFF703BF0000A0
:104DE0003830FFF763BF00004FF0FF323830FFF775
:104DF0005DBF0000012914BF6FF013000020704751
:104E0000FFF744BD044B036000234360C0E9023355
:104E100001230374704700BF3481000810B53023AC
:104E2000044683F31188FFF75BFD022300202374FF
:104E300080F3118810BD000038B5C36904460D46E3
:104E40001BB904210844FFF7A5FF294604F114000B
:104E5000FFF7ACFE002806DA201D4FF40061BDE824
:104E60003840FFF797BF38BD0268436811430160BF
:104E700003B118477047000013B5406B00F580542C
:104E8000D4F8A4381A681178042914D1017C0229B5
:104E900011D11979012312898B4013420BD101A939
:104EA0004C3002F0F3F9D4F8A4480246019B217972
:104EB000206800F0DFF902B010BD0000143002F0ED
:104EC00075B900004FF0FF33143002F06FB90000E5
:104ED0004C3002F047BA00004FF0FF334C3002F084
:104EE00041BA0000143002F043B900004FF0FF3126
:104EF000143002F03DB900004C3002F013BA00004B
:104F00004FF0FF324C3002F00DBA00000020704725
:104F100010B500F58054D4F8A4381A681178042923
:104F200017D1017C022914D15979012352898B4070
:104F300013420ED1143002F0D5F8024648B1D4F82D
:104F4000A4484FF4407361792068BDE8104000F038
:104F50007FB910BD406BFFF7DBBF0000704700005A
:104F60007FB5124B01250426044603600023057417
:104F700000F1840243602946C0E902330C4B0290E1
:104F8000143001934FF44073009602F087F8094BF8
:104F900004F69442294604F14C000294CDE90063E2
:104FA0004FF4407302F04EF904B070BD5C8100080C
:104FB000554F0008794E00080A68302383F31188A2
:104FC0000B790B3342F823004B79133342F823005B
:104FD0008B7913B10B3342F8230000F58053C3F8EB
:104FE000A41802230374002080F311887047000086
:104FF00038B5037F044613B190F85430ABB901259E
:10500000201D0221FFF730FF04F114006FF00101B1
:10501000257700F0ADFC04F14C0084F854506FF09B
:105020000101BDE8384000F0A3BC38BD10B5012136
:1050300004460430FFF718FF0023237784F8543028
:1050400010BD000038B504460025143002F03EF8CB
:1050500004F14C00257702F00DF9201D84F854501E
:105060000121FFF701FF2046BDE83840FFF750BFA0
:1050700090F8803003F06003202B06D190F8812057
:105080000023212A03D81F2A06D800207047222A8D
:10509000FBD1C0E91D3303E0034A42670722826760
:1050A000C3670120704700BF3C23002037B500F5DF
:1050B0008055D5F8A4381A68117804291AD1017CD2
:1050C000022917D11979012312898B40134211D17A
:1050D00000F14C04204602F08DF958B101A9204698
:1050E00002F0D4F8D5F8A4480246019B2179206843
:1050F00000F0C0F803B030BD01F10B03F0B550F87B
:10510000236085B004460D46FEB1302383F3118839
:1051100004EB8507301D0821FFF7A6FEFB6806F1AA
:105120004C005B691B681BB1019002F0BDF801984F
:1051300003A902F0ABF8024648B1039B294620467A
:1051400000F098F8002383F3118805B0F0BDFB68E8
:105150005A691268002AF5D01B8A013B1340F1D12D
:1051600004F18002EAE70000133138B550F821401D
:10517000ECB1302383F3118804F58053D3F8A428CD
:105180001368527903EB8203DB689B695D6845B164
:1051900004216018FFF768FE294604F1140001F0AD
:1051A000ABFF2046FFF7B4FE002383F3118838BD20
:1051B0007047000001F07EBA01234022002110B5A3
:1051C000044600F8303BFCF7EDFB0023C4E9013353
:1051D00010BD000010B53023044683F3118824224B
:1051E000416000210C30FCF7DDFB204601F084FA21
:1051F00002230020237080F3118810BD70B500EBEE
:105200008103054650690E461446DA6018B1102233
:105210000021FCF7C7FBA06918B110220021FCF7A0
:10522000C1FB31462846BDE8704001F065BB000077
:1052300083682022002103F0011310B50446836027
:105240001030FCF7AFFB2046BDE8104001F0E0BB9A
:10525000F0B4012500EB810447898D40E4683D43AB
:10526000A469458123600023A2606360F0BC01F063
:10527000FDBB0000F0B4012500EB810407898D40DF
:10528000E4683D436469058123600023A260636094
:10529000F0BC01F073BC000070B502230025044689
:1052A000242203702946C0F888500C3040F8045C72
:1052B000FCF778FB204684F8705001F0B1FA63687F
:1052C0001B6823B129462046BDE87040184770BDD1
:1052D0000378052B10B504460AD080F88C300523DE
:1052E000037043681B680BB1042198470023A36037
:1052F00010BD00000178052906D190F88C20436884
:1053000002701B6803B118477047000070B590F831
:105310007030044613B1002380F8703004F180022D
:10532000204601F099FB63689B68B3B994F880301C
:1053300013F0600535D00021204601F08BFE0021DE
:10534000204601F07BFE63681B6813B106212046EE
:105350009847062384F8703070BD2046984700288F
:10536000E4D0B4F88630A26F9A4288BFA36794F95C
:105370008030A56F002B4FF0300380F20381002DA9
:1053800000F0F280092284F8702083F31188002154
:105390002046D4E91D23FFF76DFF002383F3118816
:1053A000DAE794F8812003F07F0343EA022340F216
:1053B0000232934200F0C58021D8B3F5807F48D0F7
:1053C0000DD8012B3FD0022B00F09380002BB2D1DF
:1053D00004F1880262670222A267E367C1E7B3F5BE
:1053E000817F00F09B80B3F5407FA4D194F8823098
:1053F000012BA0D1B4F8883043F0020332E0B3F5BA
:10540000006F4DD017D8B3F5A06F31D0A3F5C063AE
:10541000012B90D86368204694F882205E6894F847
:105420008310B4F88430B047002884D043686367A1
:105430000368A3671AE0B3F5106F36D040F6024256
:1054400093427FF478AF5C4B63670223A36700232A
:10545000C3E794F88230012B7FF46DAFB4F8883045
:1054600023F00203A4F88830C4E91D55E56778E706
:10547000B4F88030B3F5A06F0ED194F88230204696
:1054800084F88A3001F02AFA63681B6813B101219D
:1054900020469847032323700023C4E91D339CE76B
:1054A00004F18B0363670123C3E72378042B10D136
:1054B000302383F311882046FFF7BAFE85F3118865
:1054C0000321636884F88B5021701B680BB1204660
:1054D000984794F88230002BDED084F88B30042378
:1054E000237063681B68002BD6D0022120469847A2
:1054F000D2E794F8843020461D0603F00F010AD548
:1055000001F09CFA012804D002287FF414AF2B4B41
:105510009AE72B4B98E701F083FAF3E794F882308F
:10552000002B7FF408AF94F8843013F00F01B3D050
:105530001A06204602D501F0A5FDADE701F096FD63
:10554000AAE794F88230002B7FF4F5AE94F884300B
:1055500013F00F01A0D01B06204602D501F07AFD02
:105560009AE701F06BFD97E7142284F8702083F32B
:1055700011882B462A4629462046FFF769FE85F307
:105580001188E9E65DB1152284F8702083F3118853
:1055900000212046D4E91D23FFF75AFEFDE60B2229
:1055A00084F8702083F311882B462A46294620462A
:1055B000FFF760FEE3E700BF8C81000884810008EC
:1055C0008881000838B590F870300446002B3ED032
:1055D000063BDAB20F2A34D80F2B32D8DFE803F0BB
:1055E00037313108223231313131313131313737D0
:1055F000856FB0F886309D4214D2C3681B8AB5FB14
:10560000F3F203FB12556DB9302383F311882B4657
:105610002A462946FFF72EFE85F311880A2384F8CF
:1056200070300EE0142384F87030302383F3118837
:10563000002320461A461946FFF70AFE002383F38B
:10564000118838BDC36F03B198470023E7E70021F5
:10565000204601F0FFFC0021204601F0EFFC6368CA
:105660001B6813B10621204698470623D7E70000A0
:1056700010B590F870300446142B29D017D8062B9B
:1056800005D001D81BB110BD093B022BFBD800216E
:10569000204601F0DFFC0021204601F0CFFC6368CA
:1056A0001B6813B1062120469847062319E0152BE5
:1056B000E9D10B2380F87030302383F31188002365
:1056C0001A461946FFF7D6FD002383F31188DAE75F
:1056D000C3689B695B68002BD5D1C36F03B1984742
:1056E000002384F87030CEE70023826803750369D5
:1056F0001B6899689142FBD25A680360426010604F
:105700005860704700238268037503691B689968B5
:105710009142FBD85A68036042601060586070473D
:1057200008B50846302383F311880A7D0023052A33
:1057300006D8DFE802F00B050503120E826913603C
:105740004FF0FF338361FFF7CFFF002383F311880E
:1057500008BD8269936801339360D0E90032136019
:105760005A60EDE7FFF7C0BF054BD96808751868A8
:10577000026853601A600122D8600275FAF74ABEC7
:10578000205400200C4B30B5DD684B1C87B004461C
:105790000FD02B46094A684600F07EF92046FFF7F5
:1057A000E3FF009B13B1684600F080F9A86907B0D9
:1057B00030BDFFF7D9FFF9E720540020215700083A
:1057C00038B50C4D04468161EB6881689A68914256
:1057D00003D8BDE83840FFF787BF1846FFF792FFB0
:1057E00001230146EC6020462375BDE83840FAF7F6
:1057F00011BE00BF20540020044B1A68DB6890687B
:105800009B68984294BF00200120704720540020DC
:10581000084B10B51C68D868226853601A600122D2
:10582000DC602275FFF76EFF01462046BDE81040A0
:10583000FAF7F0BD2054002038B50123084C0025AC
:105840002370656001F012FE01F038FE054906483C
:1058500001F00CFF0223237085F3118838BD00BFCF
:1058600088560020948100082054002008B572B6A4
:10587000044B186500F022FD00F0E4FD024B03220A
:105880001A70FEE7205400208856002000F044B92A
:10589000034A516853685B1A9842FBD8704700BFAF
:1058A000001000E08B600223086108468B8270477D
:1058B0008368A3F1840243F8142C026943F8442C52
:1058C000426943F8402C094A43F8242CC268A3F1EA
:1058D000200043F8182C022203F80C2C002203F8B5
:1058E0000B2C034A43F8102C704700BF2D0400080E
:1058F0002054002008B5FFF7DBFFBDE80840FFF7A4
:1059000031BF0000024BDB6898610F20FFF72CBF0E
:1059100020540020302383F31188FFF7F3BF0000E9
:1059200008B50146302383F311880820FFF72AFFCA
:10593000002383F3118808BD064BDB6839B1426848
:1059400018605A60136043600420FFF71BBF4FF0DC
:10595000FF307047205400200368984206D01A6830
:105960000260506018469961FFF7FCBE7047000066
:1059700038B504460D462068844200D138BD03681E
:1059800023605C608561FFF7EDFEF4E7036810B506
:105990009C68A2420CD85C688A600B604C602160F5
:1059A000596099688A1A9A604FF0FF33836010BD7E
:1059B000121B1B68ECE700000A2938BF0A2170B5EA
:1059C00004460D460A26601901F04AFD01F032FD39
:1059D000041BA54203D8751C04462E46F3E70A2E85
:1059E00004D90120BDE8704001F080BE70BD000008
:1059F000F8B5144B0D460A2A4FF00A07D96103F196
:105A00001001826038BF0A224160196914460160A2
:105A100048601861A81801F013FD01F00BFD431B4D
:105A20000646A34206D37C1C28192746354601F0BA
:105A300017FDF2E70A2F04D90120BDE8F84001F074
:105A400055BEF8BD20540020F8B506460D4601F0BD
:105A5000F1FC0F4A134653F8107F9F4206D12A46A5
:105A600001463046BDE8F840FFF7C2BFD169BB68C8
:105A7000441A2C1928BF2C46A34202D92946FFF705
:105A80009BFF224631460348BDE8F840FFF77EBF42
:105A90002054002030540020C0E90323002310B418
:105AA0005DF8044B4361FFF7CFBF000010B5194C00
:105AB000236998420DD08168D0E9003213605A60A2
:105AC0009A680A449A60002303604FF0FF33A36191
:105AD00010BD0268234643F8102F53600022026075
