:020000040800F2
:1000000000070020F1020008C9330008813300080E
:10001000A933000881330008A1330008F302000867
:10002000F3020008F3020008F3020008B5430008D9
:10003000F3020008F3020008F3020008F3020008CC
:10004000F3020008F3020008F3020008F3020008BC
:10005000F3020008F30200086964000895640008D0
:10006000C1640008ED6400081965000879440008BF
:10007000A1440008CD440008F944000825450008C3
:100080004D45000879450008F302000831330008A7
:1000900059330008453300086D33000845650008F2
:1000A000F3020008F3020008F3020008F30200085C
:1000B000F3020008F3020008F3020008F30200084C
:1000C000F3020008F3020008F3020008F30200083C
:1000D000F30200081D660008F3020008F30200089E
:1000E000A9650008F3020008F3020008F302000803
:1000F000F3020008F3020008F3020008A545000817
:10010000F3020008F302000845660008F302000845
:10011000F3020008F3020008F3020008F3020008EB
:10012000D1450008F9450008254600085146000859
:100130007D460008F3020008F3020008F3020008FD
:10014000F3020008F3020008F3020008F3020008BB
:10015000A5460008D1460008FD460008F302000845
:10016000F3020008F3020008F3020008F30200089B
:10017000F3020008F3020008F3020008F30200088B
:10018000F3020008F3020008F302000831660008D9
:10019000F3020008F3020008F3020008F30200086B
:1001A000F3020008F3020008F3020008F30200085B
:1001B000F3020008F3020008F3020008F30200084B
:1001C000F3020008F3020008F3020008F30200083B
:1001D000F3020008F3020008F3020008F30200082B
:1001E000F3020008F3020008F3020008F30200081B
:1001F000F3020008F3020008F3020008F30200080B
:10020000F3020008F3020008F3020008F3020008FA
:10021000F3020008F3020008F3020008F3020008EA
:10022000F3020008F3020008F3020008F3020008DA
:10023000F3020008F3020008F3020008F3020008CA
:10024000F3020008F3020008F3020008F3020008BA
:10025000F3020008F3020008F3020008F3020008AA
:10026000F3020008F3020008F3020008F30200089A
:10027000F3020008F3020008F3020008F30200088A
:10028000F3020008F3020008F3020008F30200087A
:10029000F3020008F3020008F3020008F30200086A
:1002A000F3020008F3020008F3020008F30200085A
:1002B000F3020008F3020008F3020008F30200084A
:1002C000F3020008F3020008F3020008F30200083A
:1002D000F3020008F3020008F3020008F30200082A
:1002E000CD16000800000000000000000000000023
:1002F00002E000F000F8FEE772B6374880F30888A5
:10030000364880F3098836483649086040F20000D4
:10031000CCF200004EF63471CEF200010860BFF35B
:100320004F8FBFF36F8F40F20000C0F2F0004EF627
:100330008851CEF200010860BFF34F8FBFF36F8F7B
:100340004FF00000E1EE100A4EF63C71CEF20001D3
:100350000860062080F31488BFF36F8F05F014FC4B
:1003600005F050FE4FF055301F491B4A91423CBFEB
:1003700041F8040BFAE71D49184A91423CBF41F885
:10038000040BFAE71A491B4A1B4B9A423EBF51F82D
:10039000040B42F8040BF8E700201849184A914270
:1003A0003CBF41F8040BFAE705F02CFC05F0B0FE69
:1003B000144C154DAC4203DA54F8041B8847F9E796
:1003C00000F042F8114C124DAC4203DA54F8041B11
:1003D0008847F9E705F014BC00070020002300203F
:1003E0000000000808ED00E00001002000070020E8
:1003F000606B0008002300203C23002040230020E5
:10040000E4700020E0020008E4020008E4020008B2
:10041000E40200082DE9F04F2DED108AC1F80CD050
:10042000D0F80CD0BDEC108ABDE8F08F002383F328
:1004300011882846A047002004F000FFFEE704F0E2
:1004400085FE00DFFEE70000F8B501F055F901F088
:1004500003FA01F04DFB05F0F3FA074605F08AFBBD
:100460000546A8BB1F4B9F4232D001339F4232D07A
:1004700027F0FF021C4B9A4230D12E4642F21074F4
:10048000F8B200F06FFF00F073FF08B100242646B9
:1004900001F0B6FD20B10024032000F079F82646D3
:1004A00035B1124B9F4203D0002405F05BFB26467A
:1004B000002005F0CFFA0EB100F080F801F0EAFA62
:1004C00000F08AFF204600F00BF900F077F8F9E71A
:1004D0002E460024D7E704460126D4E7064641F21B
:1004E0008834D0E7010007B0000008B0263A09B010
:1004F00008B501F07DF9A0F120035842584108BD2C
:1005000007B541F21203022101A8ADF8043001F051
:100510008DF903B05DF804FB38B5302383F31188FF
:10052000174803680BB104F047FF0023154A4FF446
:100530007A71134804F036FF002383F31188124CBC
:10054000236813B12368013B2360636813B16368B8
:10055000013B63600D4D2B7833B963687BB9022092
:1005600001F02EFA322363602B78032B07D16368E6
:100570002BB9022001F024FA4FF47A73636038BD7E
:100580004023002019050008602400205823002083
:10059000084B187003280CD8DFE800F008050208A3
:1005A000022001F00BBA022001F006BA024B002231
:1005B0005A6070475823002060240020F8B501F0ED
:1005C0001FFD30B13E4B03221A7000223D4B5A6092
:1005D000F8BD3D4B3D4A1C4619680131F8D0043343
:1005E0009342F9D162683A4B9A42F1D9394B9B68F0
:1005F00003F1006303F580239A42E9D205F086FAFD
:1006000005F098FA002001F04DF90220FFF7C0FF35
:10061000314B00219A6C99641A6F19671A6FDA6C62
:10062000D9645A6F59675A6F1A6D19659A6F99672D
:100630009B6F72B64FF0E023C3F8084DD4E9000475
:10064000BFF34F8FBFF36F8F244AC2F88410BFF3FC
:100650004F8F536923F480335361BFF34F8FD2F828
:10066000803043F6E076C3F3C905C3F34E335B0134
:1006700003EA060C29464CEA81770139C2F8747204
:10068000F9D2203B13F1200FF2D1BFF34F8FBFF30C
:100690006F8FBFF34F8FBFF36F8F536923F4003316
:1006A00053610023C2F85032BFF34F8FBFF36F8FF7
:1006B000302383F31188854680F30888204787E735
:1006C00058230020602400200000040820000408B3
:1006D000FFFF0308002300200045025800ED00E062
:1006E0002DE9F04F93B0B74B2022FF2100900AA8CC
:1006F0009D6801F079F9B44A1378A3B90121B34890
:1007000011700360302383F3118803680BB104F088
:1007100053FE0023AE4A4FF47A71AC4804F042FE17
:10072000002383F31188009B13B1AA4B009A1A602F
:10073000A94A1378032B03D000231370A54A5360F2
:100740004FF0000A009CD3465646D146012001F0E6
:1007500035F924B19F4B1B68002B00F02C82002040
:1007600001F046F80390039B002B01DA00F088FEAD
:10077000039B002BEDDB012001F01EF9039B213BC5
:100780001F2BE3D801A252F823F000BF0D08000888
:1007900035080008C90800084D0700084D07000883
:1007A0004D0700085B0900082B0B0008450A0008EC
:1007B000A70A0008CF0A0008F50A00084D0700083C
:1007C000070B00084D070008790B0008AD0800086A
:1007D0004D070008BD0B000819080008AD08000807
:1007E0004D070008A70A00084D0700084D0700083C
:1007F0004D0700084D0700084D0700084D07000889
:100800004D0700084D070008C90800080220FFF73F
:100810006FFE002840F0F981009B022105A8BAF183
:10082000000F08BF1C4641F21233ADF8143000F03F
:10083000FDFF8BE74FF47A7000F0DAFF071EEBDB69
:100840000220FFF755FE0028E6D0013F052F00F2F9
:10085000DE81DFE807F0030A0D10133605230421BB
:1008600005A8059300F0E2FF17E004215548F9E7D9
:1008700004215A48F6E704215948F3E74FF01C08D1
:10088000404608F1040801F00FF80421059005A87E
:1008900000F0CCFFB8F12C0FF2D101204FF000098D
:1008A00000FA07F747EA0B0B5FFA8BFB01F0E8F859
:1008B00026B10BF00B030B2B08BF0024FFF720FE23
:1008C00044E704214748CDE7002EA5D00BF00B03E9
:1008D0000B2BA1D10220FFF70BFE074600289BD06F
:1008E0000120002600F0DEFF0220FFF751FE1FFA74
:1008F00086F8404600F0E6FF0446B0B10399404652
:100900000136A1F140025142514100F0F3FF0028AD
:10091000EDD1BA46044641F21213022105A83E4623
:10092000ADF8143000F082FF10E725460120FFF7F4
:100930002FFE244B9B68AB4207D9284600F0B4FF3A
:10094000013040F067810435F3E70025224BBA46B9
:100950003E461D701F4B5D60A8E7002E3FF45CAF64
:100960000BF00B030B2B7FF457AF0220FFF710FEA9
:10097000322000F03DFFB0F10008FFF64DAF18F057
:1009800003077FF449AF0F4A08EB050392689342CF
:100990003FF642AFB8F5807F3FF73EAF124BB84508
:1009A000019323DD4FF47A7000F022FF0390039A45
:1009B000002AFFF631AF039A0137019B03F8012BA0
:1009C000EDE700BF002300205C240020402300202E
:1009D000190500086024002058230020042300206B
:1009E000082300200C2300205C230020C820FFF7F0
:1009F0007FFD074600283FF40FAF1F2D11D8C5F12A
:100A000020020AAB25F0030084494245184428BF60
:100A10004246019200F0D6FF019AFF217F4800F084
:100A2000E3FF4FEAA803C8F387027C4928460193F5
:100A300000F0E2FF064600283FF46DAF019B05EB96
:100A4000830533E70220FFF753FD00283FF4E4AEAF
:100A500000F062FF00283FF4DFAE0027B846704B7D
:100A60009B68BB4218D91F2F11D80A9B01330ED0A7
:100A700027F0030312AA134453F8203C0593404681
:100A8000042205A9043701F0A5FA8046E7E73846B5
:100A900000F00AFF0590F2E7CDF81480042105A8C4
:100AA00000F0C4FE02E70023642104A8049300F0D0
:100AB000B3FE00287FF4B0AE0220FFF719FD002836
:100AC0003FF4AAAE049800F01DFF0590E6E700236E
:100AD000642104A8049300F09FFE00287FF49CAEDC
:100AE0000220FFF705FD00283FF496AE049800F0C1
:100AF0000BFFEAE70220FFF7FBFC00283FF48CAE77
:100B000000F01AFFE1E70220FFF7F2FC00283FF4B3
:100B100083AE05A9142000F015FF074604210490B8
:100B200004A800F083FE3946B9E7322000F060FEE9
:100B3000071EFFF671AEBB077FF46EAE384A07EBB7
:100B40000903926893423FF667AE0220FFF7D0FC9C
:100B500000283FF461AE27F003074F44B9453FF446
:100B6000A5AE484609F1040900F09EFE0421059057
:100B700005A800F05BFEF1E74FF47A70FFF7B8FCD0
:100B800000283FF449AE00F0C7FE002844D00A9B7D
:100B900001330BD008220AA9002000F02DFF002805
:100BA0003AD02022FF210AA800F01EFFFFF7A8FC80
:100BB0001C4804F049FB13B0BDE8F08F002E3FF451
:100BC0002BAE0BF00B030B2B7FF426AE002364211E
:100BD00005A8059300F020FE074600287FF41CAE10
:100BE0000220FFF785FC804600283FF415AEFFF792
:100BF00087FC41F2883004F027FB059800F05EFF87
:100C000046463C4600F03CFFA0E506464EE64FF067
:100C1000000901E6BA467EE637467CE65C23002002
:100C200000230020A0860100094A49F269001368E8
:100C300099B21B0C00FB013344F250611360054B69
:100C4000186882B2000C01FB0200186080B2704785
:100C500014230020102300200021102210B5044688
:100C600000F0C2FE034B03CB206061601868A060F7
:100C700010BD00BF00E8F11F2DE9F041ADF54E7D3C
:100C80000D46002140F275126CAC07460EA80D917E
:100C900000F0AAFE4FF4C4720021204600F0A4FE2A
:100CA0000DF1340802F098FB4FF47A72264BB0FB3A
:100CB000F2F0186093E80700022384E807000DF5BE
:100CC000E9702382FFF7C8FF41F204331F4907A8E8
:100CD000238405F045FD15230DF2E3220DF12C0CC4
:100CE00084F8323107AB1E46083203CE664542F81F
:100CF000080C42F8041C3346F5D1306841461060B8
:100D0000204633791371012200F04EFF002380B298
:100D1000E97E0393AB7E029305F11903019301234E
:100D2000009307A3D3E90023CDE90480384602F0FD
:100D300011FF0DF54E7DBDE8F08100BFAFF30080DF
:100D40009E6AC421818A46EE6824002070670008EC
:100D50002DE9F0412C4CDAB080460D46237A5BBB7E
:100D600027A9284601F042F80746002842D19DF8FD
:100D70009D60C82E3ED801464FF4A662204600F082
:100D800033FE4FF4807332460DF19E01C4F8F83102
:100D90004FF4007304F109002644C4F80C334FF4F7
:100DA0004073C4F8203400F00DFE9DF89C3077723B
:100DB00023720BB9EB7E237206AC8122002127A897
:100DC00000F012FE0122214627A801F055F8002369
:100DD00080B2E97E0393AB7E029305F11903019380
:100DE0002823CDE904400093404605A3D3E900231E
:100DF00002F0B0FE5AB0BDE8F08100BFAFF3008052
:100E000026417272DF25D7B7305E0020F0B5254E3F
:100E10004FF48A75F1B0002405FB006596F8D830D0
:100E2000D822214685F8DC303AA885F8E84006AF9C
:100E300000F0DAFD06F1090000F0CEFDD5F8E4304F
:100E4000C2B206F109018DF8F0000DF1F100CDE913
:100E50003A3400F0B7FD394601223AA801F042F8D1
:100E6000082380B2317ACDE9047001270E48CDE91C
:100E7000023706F1D80301933023009307A3D3E987
:100E8000002302F067FEA04206DD02F0A5FAC5F8D5
:100E9000E000384671B0F0BD2046FBE778F6339F9E
:100EA00093CACD8D305E0020803400202DE9F04FB4
:100EB000264F87B0DFF8A080254E384602F076FE38
:100EC000034600283AD00024224DADF81440A14634
:100ED0000294A246CDE90344027B8DF8142003AAB4
:100EE0009968406803C21B6843F0004302932B6873
:100EF00004F5A664D3F810B002F070FA10EB080203
:100F0000CDF800A0284605F5A65541F1000302A939
:100F1000D8470028C8BF49F00109B4F5266FE6D1CB
:100F2000B9F1000F05D0384602F044FE86F800A063
:100F3000C3E73378072B04D80133337007B0BDE81B
:100F4000F08F024802F036FEF8E700BF8034002040
:100F500065630020B034002040420F0070B50D469C
:100F600014461E4602F052FD50B9022E10D1012C3B
:100F70000ED112A3D3E900230120C5E9002307E025
:100F8000282C10D005D8012C09D0052C0FD000201A
:100F900070BD302CFBD10BA3D3E90023ECE70BA3EE
:100FA000D3E90023E8E70BA3D3E90023E4E70BA38D
:100FB000D3E90023E0E700BFAFF30080401DA1208C
:100FC00026812A0B78F6339F93CACD8D9E6AC42161
:100FD000818A46EE26417272DF25D7B7F017304A74
:100FE00039059E5638B505460E4C0021013500F0F6
:100FF00081FCA4F82C55B4F82C0500F063FC78B102
:10100000B4F82C0500F06EFC014648B9B4F82C0584
:1010100000F070FCB4F82C350133A4F82C35EAE765
:1010200038BD00BF305E0020F8B50D4C02260D4FD4
:10103000A4F5805343F8307C237E3BB965692DB11C
:10104000284601F05BF8284605F048FB2046A4F549
:10105000A65401F053F8012E00D1F8BD0126E7E7B0
:10106000A0590020286800082DE9F04F8FB00546F0
:101070000C4600AF02F0CAFC002849D1237E022BA7
:101080001BD1E38A012B18D102F0A6F90646FFF71F
:10109000CBFD03464FF4C87006F51676DFF8C08224
:1010A000B3FBF0F202FB103316FA83F3C8F80030FA
:1010B000E37E33B9A34B00221A703C37BD46BDE82E
:1010C000F08F07F12401204600F044FE0028F4D1FF
:1010D00007F11400FFF7C0FD97F8264007F114014F
:1010E00007F12700224605F009FB0028E2D10F2C6A
:1010F00008D8944B1C70D8F80030A3F51673C8F8C4
:101100000030DAE797F82410284602F077FCD4E79D
:10111000E38A282B2BD010D8012B23D0052BCCD140
:10112000BFF34F8F8849894BCA6802F4E0621343CA
:10113000CB60BFF34F8F00BFFDE7302BBDD1844E96
:10114000E17E327A9142B8D1607E3146002291F838
:10115000DC50854200F0A580013201F58A71042A35
:10116000F5D1AAE721462846FFF786FDA5E72146E7
:101170002846FFF7EDFDA0E7B2F8EC507B6005F1E3
:1011800003094FEA99094FEA8902D11DC908A8EB62
:10119000C10300219D46EB46584600F025FC04F1B2
:1011A000EE012A465846314400F00CFC7B6813B926
:1011B000012000F077FB96F8D20000F083FB044694
:1011C00030B9307200F0A8FB204600F06BFBB1E0B4
:1011D000D6F8D4203AB996F8D200B6F82C25824237
:1011E00001D8FFF7FFFED6F8D4202A44944208D253
:1011F00096F8D200B6F82C250130824201D8FFF7CC
:10120000F1FE5FFA89F25946706800F0F5FB08B903
:10121000C54679E0726896F8D2002A447260D6F822
:10122000D42005EB0209C6F8D49000F04BFB8145B1
:1012300009D396F8D220D6F8D4000132001B86F8E4
:10124000D220C6F8D400FF2D0FD80024347200F04D
:1012500063FB204600F026FB00F0D2FE3D4B1881D8
:1012600008B9FFF7ABF9C54627E7BB6896F8D90080
:101270000AFB0362FB68D2F8E41082F8E83001F55B
:101280008061C2F8E030C2F8E410FFF7BFFDFFF75D
:101290000DFE96F8D920013202F0030286F8D9201B
:1012A000B6E74FF48A7A20460AFB02F505F1EA0117
:1012B000314400F049FEF86000287FF4FEAE0122C0
:1012C000354485F8E82002F087F8D5F8E020D6ED1F
:1012D000007A801A40F6B832B8EE677ADFED1E6AFF
:1012E000192838BF1920904228BF104607EE900AEF
:1012F000F8EEE77A67EEA67ADFED186AE7EE267A6F
:10130000FCEEE77AC6ED007A96F8D930BB60BA6891
:1013100073680AFB02F4321992F8E81059B1D2F856
:10132000E410E8468B423FF427AF002182F8E81032
:10133000C2F8E010C5467368064A9B0A0133138160
:10134000BBE600BF7934002000ED00E00400FA05A0
:10135000305E002068240020CDCCCC3D6666663F20
:101360007C340020014B1870704700BF74240020AB
:1013700038B54FF00054144B22689A4221D1627D57
:101380000025124B12481A70C922237D09301149D9
:1013900000F8013C4FF48073C0F8DB50C0F8EF3127
:1013A0004FF40073C0F803334FF44073C0F81734A0
:1013B00000F008FBE0222946204600F015FB012042
:1013C00038BD0020FCE700BF9AAD44C5742400205E
:1013D000305E00201600002037B500F011FE1F4CD3
:1013E0001F4D022301221F496B712368288120466B
:1013F0005B68984704F5805301221A49D3F8C0343A
:1014000004F5A6505B689847002317494FF48052B3
:101410000193164B16480093164B02F0C7FA164B71
:10142000197811B1124802F0E9FA01F0D5FF04462B
:10143000FFF7FAFB4FF4C873B0FBF3F202FB1303A0
:1014400004F5167010FA83F00C4B186004F092FB50
:1014500008B10F232B8103B030BD00BFB034002092
:101460006824002040420F00782400205D0F00080F
:101470008034002069100008742400207C3400208F
:101480002DE9F04F00242DED028B93B00DF12C08C7
:101490004FF0010ADFF814B2FFF708FD0A94ADF827
:1014A00034400B94C8F804409FED798B00267E4DA4
:1014B00037462B680DF11D0207A928468DF81CA0A0
:1014C0008DF81D408DED008BD3F808900023C847A0
:1014D0009DF81C90B9F1000F1ED0102200210EA81B
:1014E00000F082FA2B6808AA0AA95F6928460DF164
:1014F0001E03B8470FAB4F4698E8030083E803008C
:101500009DF834300EA958468DF844300A9B0E934E
:10151000DDE9082302F02CFD06F5A66605F5A655C3
:10152000B6F5266FC5D1002FC0D1604802F06EFA23
:1015300000283FD15E4E01F04FFF3368984239D307
:1015400001F04AFF0546FFF76FFB4FF4C8738DF8B3
:101550002870B0FBF3F202FB130305F5167010FAC6
:1015600083F03060534E377817B901238DF8283057
:10157000C7F110050EA8FFF76FFB0EABEDB20DF132
:101580002900D919062D28BF06252A46013500F065
:1015900019FA0AABEDB24548039318230495029358
:1015A000454B0193012300933BA3D3E9002302F0B1
:1015B00073FA347001F010FF404A414D1368C31AAA
:1015C000B3F57A7F2FD3106001F008FF02460B4677
:1015D000364802F0F9FA354802F018FA18B32B7AB7
:1015E0000EAF384E002B14BF03230223737101F09A
:1015F000F3FE4FF47A7301223946B0FBF3F030600A
:10160000304600F07FFB182380B202932E4B0193EB
:1016100040F25513CDE903700093244820A3D3E989
:10162000002302F039FA2B7A93B101F0D5FE00269F
:1016300007464FF48A7895F8D900304400F003004B
:1016400008FB005393F8E82072B10136042EF2D162
:10165000C82003F0F9FD2B7A002B7FF417AF13B0ED
:10166000BDEC028BBDE8F08FD3F8E02042B12B68CF
:10167000BA1AFA2B38BFFA230533B2EB430FE4D37F
:10168000FFF7C4FB0028E0D1E2E700BFAFF3008022
:101690000000000000000000401DA12026812A0B50
:1016A000F1C6A7C1D068080FB034002080340020F4
:1016B0007C340020793400207834002060630020DE
:1016C000305E0020682400206463002010B5074CC1
:1016D000204601F045F904F5A65001F041F9044A0D
:1016E00004490020BDE8104004F0F2BFB0340020EF
:1016F000C063002029100008F8B50A25204C0122FB
:101700004FF400712046192703F0E4F82046012227
:101710004FF4807103F0DEF84FF4807665200138D5
:1017200025D00822A2F10801B646332905D84FF08A
:10173000000C66834FF000730DE0A1F13403668363
:10174000B3FBF7FC07FB1C33002B0CBF4FF0010C65
:101750004FF0000CEED1013143EA4C238A42A361E1
:10176000A4F818E0E1D10832A02AD8D0DAE7013D88
:1017700042F2107003F068FD15F0FF05BFD1F8BD0F
:10178000000402582DE9F84F4FF47A7306460D46CF
:10179000002402FB03F7DFF85080DFF8509098F93F
:1017A00000305FFA84FA5A1C01D0A34212D159F8D2
:1017B00024002A4631460368D3F820B03B46D84778
:1017C000854207D1074B012083F800A0BDE8F88FC0
:1017D0000124E4E7002CFBD04FF4FA7003F034FD51
:1017E0000020F3E7AC630020182300201C23002016
:1017F000002307B5024601210DF107008DF80730DF
:10180000FFF7C0FF20B19DF8070003B05DF804FBAF
:101810004FF0FF30F9E700000A46042108B5FFF752
:10182000B1FF80F00100C0B2404208BD074B0A463C
:1018300030B41978064B53F82140014623682046FE
:10184000DD69044BAC4630BC604700BFAC63002090
:101850001C230020A086010070B5104C0025104EFE
:1018600003F0C2FE20803068238883420CD8002514
:101870002088013803F0B4FE23880544013BB5F508
:10188000802F2380F4D370BD03F0AAFE3368054493
:101890000133B5F5802F3360E5D3E8E7AE63002070
:1018A0006863002003F06EBF00F1006000F5802047
:1018B0000068704700F10060920000F5802003F09E
:1018C000EFBE0000054B1A68054B1B889B1A83422C
:1018D00002D9104403F084BE0020704768630020E2
:1018E000AE630020024B1B68184403F07FBE00BFAC
:1018F00068630020024B1B68184403F089BE00BFD8
:10190000686300200020704700F1FF5000F58F1041
:10191000D0F8000870470000064991F8243033B130
:1019200000230822086A81F82430FFF7C3BF012092
:10193000704700BF6C630020014B1868704700BF00
:101940000010005C194B01380322084470B51D6873
:10195000174BC5F30B042D0C1E88A6420BD15C68F7
:101960000A46013C824213460FD214F9016F4EB170
:1019700002F8016BF6E7013A03F10803ECD181426A
:101980000B4602D22C2203F8012B0424094A1688A4
:10199000AE4204D1984284BF967803F8016B013CB3
:1019A00002F10402F3D1581A70BD00BF0010005CB0
:1019B00024230020B467000870470000704700002F
:1019C00070470000002310B5934203D0CC5CC45490
:1019D0000133F9E710BD000003460246D01A12F9A0
:1019E000011B0029FAD1704702440346934202D0FA
:1019F00003F8011BFAE770472DE9F8431F4D144621
:101A00000746884695F8242052BBDFF870909CB3B7
:101A100095F824302BB92022FF2148462F62FFF78A
:101A2000E3FF95F824004146C0F1080205EB800071
:101A3000A24228BF2246D6B29200FFF7C3FF95F814
:101A40002430A41B17441E449044E4B2F6B2082E7E
:101A500085F82460DBD1FFF75FFF0028D7D108E0CD
:101A60002B6A03EB82038342CFD0FFF755FF002898
:101A7000CBD10020BDE8F8830120FBE76C63002098
:101A8000024B1A78024B1A70704700BFAC630020FB
:101A90001823002010B5074C4FF4E13306492068A5
:101AA0000B6003F099FA60680349BDE8104003F049
:101AB00093BA00BF1C23002094630020094B182216
:101AC000002110B504461846FFF78EFF064A074B63
:101AD00001461278046053F82200BDE8104003F07C
:101AE0007BBA00BF94630020AC6300201C2300205D
:101AF000F8B571B6002301201A46194602F09CFE83
:101B00000446802003F0DCFE002845D00025234A4F
:101B100080274FF4D06C3D26136923BBD2F81031D7
:101B20000BBB236805F1006199602368D8602368C6
:101B30005F602368C3F800C021680B6843F00103AD
:101B40000B6021680B6823F01E030B6021680B6893
:101B5000DB07FCD4237B8035616806FA03F3B5F517
:101B6000001F0B60D8D1204602F09CFEB5F5001F87
:101B700011D000240A4E0B4D012003F003FE3388E0
:101B8000A34205D928682044013403F041FDF6E75B
:101B9000002003F0F7FD61B6F8BD00BF0020005241
:101BA000AE630020686300202DE9F8430D4604462B
:101BB00000219046284640F27912FFF715FF234690
:101BC00020220021284604F1220702F073F9231D88
:101BD000022220212846C02602F06CF9631D032250
:101BE0002221284602F066F9A31D0322252128465A
:101BF00002F060F904F1080310222821284602F0BF
:101C000059F904F1100308223821284602F052F94C
:101C100004F1110308224021284602F04BF904F197
:101C2000120308224821284602F044F904F1140363
:101C300020225021284602F03DF904F118034022E9
:101C40007021284602F036F904F120030822B02161
:101C5000284602F02FF904F121030822B821284672
:101C600002F028F9314608363B460822284601375B
:101C700002F020F9B6F5A07FF4D1314604F1320329
:101C80000822284602F016F9002794F8326004F181
:101C90003309F900BE4201F5A4711FD8F70007F51A
:101CA000A476B8F1000F08D1314607F24F1604F5BB
:101CB00099730722284602F0FDF894F83201B046E5
:101CC000502828BF5020074604EB0009A1450DD13C
:101CD00006EBC7000730C008BDE8F88309EB07032F
:101CE00008222846013702F0E5F8D2E704F2331360
:101CF00041460822284608F10808013402F0DAF8C3
:101D0000E4E7000013B504460846002120222346DC
:101D100001900160C0F8031002F0CCF8231D019877
:101D20000222202102F0C6F8631D0198032222211D
:101D300002F0C0F8A31D01980322252102F0BAF891
:101D4000019804F108031022282102F0B3F80720BB
:101D500002B010BDF7B5047F05460E462CB1838A4C
:101D6000122B02D9012003B0F0BD00230722284620
:101D70000096194601F062FF731C012207210093AF
:101D80002846002301F05AFFD4B9B31C05220821CC
:101D90002846009323460D2401F050FFB378102B02
:101DA000E0D83746BB1BB278934210D307342B7F61
:101DB000A88AE408B3B9844294BF00200120D2E786
:101DC000AB8A0824DB00083BDB08B370E6E7FB1CAA
:101DD000214608222846009300230834013701F0E9
:101DE0002DFFDFE7201A18BF0120BCE7F7B5047FFD
:101DF00005460E462CB1838ACA2B02D9012003B0B6
:101E0000F0BD0023082228460096194601F016FF6F
:101E1000731CD4B908220093234610241146284687
:101E200001F00CFF7378C82BE8D801235F1C72788F
:101E3000013B934210D307342B7FA88AE408B3B93F
:101E4000844294BF00200120D9E7AB8A0824DB003C
:101E5000083BDB087370E5E7F319214608222846A2
:101E60000093002301F0EAFE08343B46DEE7201A27
:101E700018BF0120C3E700002DE9F8430D460446D2
:101E80001646002181222846FFF7AEFD2346082290
:101E90000021284602F00EF8C6B90F26631C07225F
:101EA0000821284602F006F894F90130B046677818
:101EB000002BB8BF7F2704EB07094C4508D1073634
:101EC000082010FB0760C008BDE8F8830826EBE790
:101ED000A31C41460822284608F10808013401F0F5
:101EE000E9FFEAE72DE9F0410D46044616460021D8
:101EF000CE222846FFF778FD2346282200212846D7
:101F000001F0D8FFBEB9302604F1080308222821C9
:101F1000284601F0CFFF14F8080F0027C82828BF73
:101F2000C8208046B84506EBC70106D806EBC800B6
:101F3000C008BDE8F0812826EDE7013708222846D1
:101F4000E31901F0B7FFEDE7F7B5047F05460E464C
:101F500034B1838AB3F5827F02D9012003B0F0BD8A
:101F60000123102200212846009601F067FEDCB90B
:101F7000B31C09221021284600932346192401F09E
:101F80005DFE7388B3F5807FE7D83746BB1B728848
:101F9000934210D307342B7FA88AE408B3B9844254
:101FA00094BF00200120D9E7AB8A1024DB00103B4E
:101FB000DB087380E5E73B1D214608222846009395
:101FC00000230834013701F039FEDFE7201A18BF7B
:101FD0000120C3E730B50A44084D91420DD011F8F5
:101FE000013B5840082340F30004013B2C4013F010
:101FF000FF0384EA5000F6D1EFE730BD2083B8ED4F
:10200000F7B5384A6B46106851686A4603C308231F
:102010003549364804F082FB0446002833D10A25AE
:10202000334A6B46106851686A4603C30823314936
:102030002E4804F073FB0446002849D00369B3F529
:10204000E01F45D8B0F8661040F2134291423FD1EC
:10205000294A024402F15C018B4239D35C3B23499B
:1020600000209E1AFFF7B6FF04F1640107463246CE
:102070000020FFF7AFFFA3689F4229D1E368984291
:1020800008BF002524E00369B3F5E01F27D8418B82
:1020900040F21342914220D1174A024402F110014A
:1020A0008B4218D3103B114900209D1AFFF792FF75
:1020B00004F1180106462A460020FFF78BFFA368AB
:1020C0009E4202D1E368984201D00D25A8E7002581
:1020D000284603B0F0BD1025A2E70C25A0E70B258C
:1020E0009EE700BFC4670008DCFF1B000000040877
:1020F000CD67000890FF1B000800FCF710B5037CBB
:10210000044613B9006803F00FFC204610BD000020
:102110000023BFF35B8FC360BFF35B8FBFF35B8FA5
:102120008360BFF35B8F7047BFF35B8F0068BFF3C3
:102130005B8F704770B505460C30FFF7F5FF04461E
:1021400005F108063046FFF7EFFFA04206D96D689B
:102150003046FFF7E9FF2544281A70BD3046FFF7E7
:10216000E3FF201AF9E7000070B505464068A0B10A
:1021700005F10C0605F10800FFF7D6FF04463046CE
:10218000FFF7D2FF844204F1FF34304694BF6D68FC
:102190000025FFF7C9FF2C44201A70BD38B50C4646
:1021A0000546FFF7C7FFA04210D305F10800FFF76F
:1021B000BBFF04446868BFF35B8FB4FBF0F100FB26
:1021C00011440120AC60BFF35B8F38BD0020FCE7F9
:1021D0002DE9F041144607460D46FFF7C5FF84423E
:1021E00028BF0446D4B1B84658F80C6B4046FFF7F8
:1021F0009BFF3044286040467E68FFF795FF331A06
:102200009C4203D801206C60BDE8F081A41B6B6088
:102210003B682044AB60E8600220F5E72046F3E726
:1022200038B50C460546FFF79FFFA04210D305F1D5
:102230000C00FFF779FF04446868BFF35B8FB4FBC1
:10224000F0F100FB11440120EC60BFF35B8F38BD5F
:102250000020FCE72DE9FF418846694607466C46A9
:10226000FFF7B6FF002506B204EBC606B4420AD05B
:10227000626808EB050120680834FFF7A3FB54F8F7
:10228000043C1D44F2E729463846FFF7C9FF2846BB
:1022900004B0BDE8F0810000F8B505460C300F46EB
:1022A000FFF742FF05F1080604463046FFF73CFF02
:1022B000A042304688BF6C68FFF736FF201A3860AE
:1022C00020B12C683046FFF72FFF2044F8BD0000F6
:1022D00073B5144606460D46FFF72CFF8442019065
:1022E00028BF0446DCB101A93046FFF7D5FF019BAA
:1022F00033B93268C5E90233C5E9002401200CE096
:102300009C42286038BF0194019884426860F5D9E6
:102310003368241A0220AB60EC6002B070BD204626
:10232000FBE700002DE9FF410F4669466C46FFF7C9
:10233000CFFF00B2002604EBC005AC4209D0D4F8B0
:102340000480B81954F8081B42464644FFF73AFB8C
:10235000F3E7304604B0BDE8F081000038B505462B
:10236000FFF7E0FF044601462846FFF717FF204627
:1023700038BD00007047000010B4134602681468AE
:102380000022A4465DF8044B6047000000F5805031
:1023900090F859047047000000F5805090F85204FE
:1023A0007047000000F5805090F958047047000015
:1023B0004E207047302383F3118800F58052D2F805
:1023C0009C34D2F898041844D2F894341844D2F8C3
:1023D0007C341844D2F88C341844D2F88834184429
:1023E000002383F31188704700F58050C0F854141F
:1023F000012070472DE9F04F0C4600F5805185B063
:102400001F4691F8523405469046BDF838909BB16E
:10241000D1F878340133C1F878342368980006D4B1
:10242000237B082B0BD9627B0AB10F2B07D9D1F87C
:102430007C340133C1F87C344FF0FF3010E030239E
:1024400083F31188EB6AD3F8C42012F4001B0AD07E
:10245000D1F8803400200133C1F8803480F3118832
:1024600005B0BDE8F08F20684822D3F8C4300028BA
:10247000C3F3044A6B6AB4BF40F08040800412FB8F
:102480000A334FEA4A161860226852004FEA0A627D
:1024900044BF40F000501860207B42EA00425A607E
:1024A000607B10B342F440125A60D1F8B02401327C
:1024B000C1F8B024AA1902F58352117B41F0200122
:1024C0001173207B039300F0E3FF0330039B801024
:1024D0005FFA8BF20BF1010B82420DDA04EB820101
:1024E00003EB820249689160F2E7AA1902F5835270
:1024F000117B60F34511E3E70122EB6A05EB4A111A
:1025000002FA0AF201F58251C3F8D020AB19183152
:1025100004F10C0203F58253C3E90487234653F800
:10252000040B934241F8040BF9D11B882E440B8015
:1025300041F2680346F803A006F5805609F003034C
:1025400096F86C2043F0100322F01F02134386F824
:102550006C30002383F3118842463B4621462846CF
:10256000CDF8009000F05AFF012079E72DE9F047FF
:1025700000F58056044696F85254002D40F0038131
:10258000037C032B40F0948028462B462F465FFAAD
:1025900080FC944510DA01EBCC0E51F83CC0BCF144
:1025A000000F04DBDEF804C0BCF1000F02DB0137D2
:1025B0000130ECE70133FBE7302080F31188E06A5B
:1025C000F3B9D0F8803043F00203C0F880304E23D6
:1025D000E06A002F6FD1D0F8803043F00103C0F8DB
:1025E00080306A4B6A4A1B6803F1805303F52C5311
:1025F0009B009342A36240F2B080664800F0E6FE82
:102600004D2B42D8DFF884814FEA034EDFF88891E2
:10261000D8F800C04EEA8C0EC0F884E00CF180506F
:1026200000F52C508000606103EB0C00D4F82CC046
:10263000C3F14E03C8F80000DCF8800040F0300021
:10264000CCF880004FF0000CD4F81480E6465FFA16
:102650008CF08242BCDD01EBC00A51F8300000284A
:1026600010DBDAF804A0BAF1000F0BDA09EA004037
:102670000AF07F0A40EA0A0040F0084048F82E00BD
:102680000EF1010E0CF1010CE1E7836923F0010367
:10269000836100F0A1FE0646E36A9B69D90704D571
:1026A00000F09AFE831BFA2BF6D9002383F31188DE
:1026B0002846BDE8F087B7EB530F3DD2DFF8CCE0FA
:1026C0004FEA074CDEF800304CEA830CC0F888C0B3
:1026D00003F1805003EB4703002700F52C50CEF8A0
:1026E0000030BC468000A061E06AD0F8803043F042
:1026F0000C03C0F88030D4F818E0FBB29A427FF7A0
:1027000070AF51F8330001EBC3080028D8F804304B
:1027100001DB002B0EDB20F0604023F0604340F033
:10272000005043F000434EF83C000EEBCC000CF19F
:10273000010C43600137E0E7836923F00103836103
:1027400000F04AFE0646E36A9B69DA07ADD500F061
:1027500043FE831BFA2BF6D9A7E7E26A936923F0BD
:102760000103936100F038FE0746E36A9B69DB07CB
:1027700005D500F031FEC31BFA2BF6D995E70125EC
:1027800086F8525491E7002592E700BFBC63002011
:10279000FCB50040D86700080000FF0713B500F53E
:1027A00080540191606CFFF7DFFC1F280AD92022BA
:1027B0000199606CFFF74EFDA0F12003584258418B
:1027C00002B010BD0020FBE708B5302383F3118869
:1027D00000F58050406CFFF79BFC002383F31188C9
:1027E00008BD000000220260828142608260704762
:1027F0000022002310B5C0E90023002304460C305A
:1028000020F8043CFFF7EEFF204610BD2DE9F0470D
:102810009A4688B0074688469146302383F311884C
:1028200007F580546846FFF7E3FF606CFFF782FC12
:102830001F282ED920226946606CFFF78FFD2028C3
:1028400027D194F8523423B303AD444605AB2E464A
:10285000083403CE9E4244F8080C44F8041C354664
:10286000F5D130682060B388A380DDE90023C9E991
:102870000023BDF80830AAF80030002383F3118844
:1028800053464A464146384608B0BDE8F04700F096
:10289000B3BD002080F3118808B0BDE8F0870000C8
:1028A0002DE9F84F0023064600F581540546884679
:1028B0001034C0E90133274B46F8303B37463846E1
:1028C0002037FFF795FFA742F9D105F580544FF463
:1028D000805305F5A3594FF0000A2663002667646C
:1028E00005F5835709F110094FF0000B1037E66327
:1028F000C4E90D36012384F8403084F84830A7F14C
:102900001800203747E910ABFFF76CFF47F8286C39
:102910004F45F4D1B8F1010F84F85884A4F85A64F3
:10292000A4F85C64A4F85E6484F86064A4F862644B
:10293000A4F86464A4F8666484F8686402D906485C
:1029400000F044FD054B284653F82830EB62BDE803
:10295000F88F00BF28680008FC67000818680008A6
:10296000044B10B5197804464A1C1A70FFF798FFFB
:10297000204610BDB96300202DE9F04300295AD04C
:102980002E4E2F48B6FBF1F481428CBF0A20112055
:10299000431EB4FBF0F700FB1740DDB220B1022B61
:1029A0001846F5D8002032E07B1EB3F5806F2ED29A
:1029B000C5EBC5084FF47A7308F103044FEAE40E3F
:1029C000C4F3C7040EF10109281B0EFB033E5FFA96
:1029D00080FC59FA80F0BEFBF0F0B0F5617F18DCA6
:1029E00083B2601C5CFA80F07843B6FBF0F0814261
:1029F000D8D1611E0F29D5D80CF1FF310729D1D8C4
:102A00000120138057801071547182F806C0BDE810
:102A1000F08308F1FF34E010C4F3C70400F1010EA5
:102A20002D1B00FB03335FFA85FC5EFA85F5B3FBD3
:102A3000F5F39BB2D5E70846E9E700BF00B4C4044C
:102A40003F420F0030B50D4B05200D4D1C786C43F7
:102A50008C420ED159780120518099785171D978E2
:102A60009171197911715B7903EB83035B0013801A
:102A700030BD013803F10603E8D1F9E768680008C2
:102A800040420F0038B540F27772C36A154CC3F864
:102A9000BC200722C36AC3F8C8202268C16A930019
:102AA00043F4C023C1F8A03002F1805302F16C015D
:102AB000C56A03F52C53EA3289009B00226041F07D
:102AC000E061094AC361C5F8C01003F5D87103F588
:102AD0006A7341629342836202D9044800F076FC33
:102AE00038BD00BFBC630020FCB50040D8670008BB
:102AF0002DE9F04F00F580551F4689B0044695F842
:102B0000583489469046022B04D90026304609B035
:102B1000BDE8F08FA84A52F8231009B942F8230003
:102B2000A648C4F80C9001782774C9B9302383F300
:102B30001188A34BD3F8EC2042F48072C3F8EC2048
:102B4000D3F8942042F48072C3F89420D3F89420F0
:102B500022F48072C3F894200123037081F311885A
:102B600095F851347BB9302383F31188954A95F851
:102B70005834D35C0BB3012B28D0012385F8513492
:102B8000002383F31188302383F31188E26A936969
:102B900023F01003936100F01FFC8246E36A9E69F4
:102BA00016F0080619D000F017FCA0EB0A03FA2B68
:102BB000F4D9002686F31188A8E70321132002F038
:102BC0003FF80321152002F03BF8D6E7032114203B
:102BD00002F036F803211620F5E79A6942F0010267
:102BE0009A6100F0F9FB8246E36A9A69D00706D43D
:102BF00000F0F2FBA0EB0A03FA2BF5D9D9E79A69AA
:102C00004FF0000A42F002029A61E36AC3F854A04E
:102C10008AF3118804F5825B686CFFF779FA0BF18F
:102C2000100B202200216846FEF7DEFE02A8FFF707
:102C3000D9FD6A460BEB06030DF1180ECDF818A06E
:102C400094460833BCE80300F44543F8080C43F805
:102C5000041C6246F4D1DCF8000020361860B6F59A
:102C6000806F9CF804201A71DBD1002304F5A25276
:102C7000494620461A3285F8503485F85334FFF718
:102C80007BFE064690B9E26A936923F001039361E3
:102C900000F0A2FB0546E36A9B69D9077FF535AFD3
:102CA00000F09AFB431BFA2BF5D92EE795F85E341A
:102CB000C5F86C94591E95F85F34E26A013B1B021B
:102CC00043EA416395F8601401390B43B5F85C148D
:102CD000013943EA0143D361B8F1000F36D004F55E
:102CE000A352414620460232FFF7ACFE90B9E26A99
:102CF000936923F00103936100F06EFB0546E36ADC
:102D00009B69DA077FF501AF00F066FB431BFA2BE6
:102D1000F5D9FAE695F86724C5F87084511E95F840
:102D20006824E36A013A120142EA012295F8661426
:102D300001390A43B5F86414013942EA014242F408
:102D40000002DA604FF42062E36A9A64E36A4FF0AB
:102D500000082046C3F8BC80FFF794FE85F859842C
:102D60006FF04042E36A1A65174AE36A5A654FF00A
:102D70000222E36A9A654FF0FF32E36AC3F8E0206B
:102D80000322E36A9742DA653FF4C0AEE26A9369D0
:102D900023F00103936100F01FFB0746E36A9B6980
:102DA000DB0705D500F018FBC31BFA2BF6D9ACE600
:102DB000012385F85234A9E6B0630020B8630020EF
:102DC0000044025810680008550200022DE9F04F37
:102DD000054689B090469946002741F2680A00F5F9
:102DE0008056EB6AD3F8D830FB40D80751D505EBB5
:102DF00047124FEA471B52441379190749D4D6F8B2
:102E000084340133C6F8843405F5A553C3E9008939
:102E100013799A0605EB0B0248BFD6F8B434524436
:102E200044BF0133C6F8B434137943F00803137177
:102E3000DB0723D596F8533403B305F5825468466F
:102E4000FFF7D6FC03AB18345C4404F1080C20688F
:102E5000083454F8041C1A46644503C21346F6D1DC
:102E60002068694610602846A2889A800123ADF840
:102E700008302B68CDE90089DB6B9847D6F8A83479
:102E8000D6F854040133C6F8A83410B103681B699E
:102E900098470137202FA4D109B0BDE8F08F00007A
:102EA0002DE9F04F0F468DB0044600F097FA8246A8
:102EB0008946002F5BD1E36AD3F8A02012F4FE0FFD
:102EC00003D100200DB0BDE8F08FD3F8A42092010B
:102ED00041BF04F58051D1F898240132C1F89824FB
:102EE000D3F8A4205606ECD0D3F8A450E669C5F375
:102EF00005254823E8464FF0000B03FB05664046D6
:102F0000FFF770FC326851004ABF22F06043C2F301
:102F10008A4343F00043920048BF43F0804300934C
:102F2000736813F400131BBF012304F580528DF85E
:102F30000D308DF80D301EBFD2F8B8340133C2F811
:102F4000B834F38803F00F038DF80C309DF80C00B3
:102F500000F09EFA5FFA8BF3984225D9F2180CA97B
:102F60000BF1010B127A0B4403F82C2CEEE7012F26
:102F7000A7D1E36AD3F8B02012F4FE0FA1D0D3F8A2
:102F8000B420950141BF04F58051D1F89824013255
:102F9000C1F89824D3F8B420500692D0D3F8B45096
:102FA000266AC5F30525A4E7EFB9E36AC3F8A8507C
:102FB00004A807ADFFF71CFC98E80F0007C52B809D
:102FC0000023204604A9ADF81830236804F5805486
:102FD000DB6BCDE904A9984758B1D4F8903401339C
:102FE000C4F890346EE7012FE2D1E36AC3F8B85019
:102FF000DEE7D4F8943401200133C4F8943461E757
:103000002DE9F04105460F4600F58054012639466A
:103010002846FFF745FF10B184F85364F7E7D4F86A
:10302000A834D4F854040133C4F8A83420B1036898
:10303000BDE8F0411B691847BDE8F081C36AF0B5EF
:103040001A6C12F47F0F2BD01B6C00F5805441F2E8
:1030500068054FF0010CC4F8AC340023471900EBAD
:1030600043125E012A44117911F0020F15D049076D
:1030700013D4B959C66A0CFA01F1D6F8CCE011EABA
:103080000E0F0AD0C6F8D410117941F00401117165
:10309000D4F88C240132C4F88C240133202BDED1E7
:1030A000F0BD00002B4B70B51E561B5C012B30D8B9
:1030B000294D2A4A55F8233052F8264013B349B314
:1030C000236D9A0510D54FF40073236500F086F93F
:1030D00050EA01020B4602D0013861F100030246BA
:1030E00055F82600FFF772FE236D9B012CD54FF09B
:1030F000007255F82630226503F58053012283F8CB
:10310000592421E001232365102323654FF48053C4
:10311000236570BD236DDA0702D4236D5B0706D5E6
:103120000523002155F826002365FFF769FF236D6D
:10313000D80602D4236D590606D55023012155F82F
:1031400026002365FFF75CFF55F82600BDE87040B8
:10315000FFF774BF14680008B06300201868000807
:1031600008B5302383F31188FFF768FF002383F34A
:10317000118808BDC36AD3F8C00010F07C5005D098
:10318000D3F8C40080F40010C0F340507047000032
:1031900008B5302383F3118800F58050406CFEF7AA
:1031A000C9FF002383F3118843090CBF01200020CD
:1031B00008BD000000F5805393F8592462B1C16A3C
:1031C0008A6922F001028A61D3F89C240132C3F893
:1031D0009C24002283F85924704700002DE9F7430E
:1031E000302181F3118800F58251002541F2680EEB
:1031F0004FF00108103100F5805C00EB4514744479
:10320000267977071CD4F6061AD58E69D0F82C904B
:1032100008FA06F6D9F8CC703E4211D04F680197F3
:103220000F689742019F9F410AD2C9F8D46026795E
:1032300046F004062671DCF888440134CCF8884452
:1032400001352031202DD8D1002383F3118803B01C
:10325000BDE8F083F8B51E4600230F4605461370FF
:103260001446FFF795FF80F0010038701EB1284624
:10327000FFF780FF2070F8BD2DE9F04F85B099462B
:103280000D468046164691F800B0DDE90EA3029384
:103290001378019300F0A2F82B7804460F4613B977
:1032A0003378002B41D022463B464046FFF796FF3D
:1032B000FFF756FFFFF77EFF4B4632462946FFF7E2
:1032C000C9FF2B7833B1BBF1000F03D0012005B04B
:1032D000BDE8F08F337813B1019B002BF6D108F5D0
:1032E000805303935445029B77EB03031DD2039B4A
:1032F000D3F85404C8B10368AAEB04011B689847CB
:103300004B46324629464046FFF7A4FF2B7813B1BF
:10331000BBF1000FDAD1337813B1019B002BD5D16B
:1033200000F05CF804460F46DCE70020CFE7000021
:10333000002108B50846FFF7B5FEBDE8084001F0DA
:1033400071B8000008B501210020FFF7ABFEBDE811
:10335000084001F067B8000008B500210120FFF720
:10336000A1FEBDE8084001F05DB80000012108B5EC
:103370000846FFF797FEBDE8084001F053B800008B
:1033800000B59BB0EFF3098168226846FEF71AFB8F
:10339000EFF30583014B9B6BFEE700BF00ED00E000
:1033A00008B5FFF7EDFF000000B59BB0EFF3098112
:1033B00068226846FEF706FBEFF30583014B5B6B63
:1033C000FEE700BF00ED00E0FEE700000FB408B527
:1033D000029801F0E9FEFEE702F0D4BA02F0B6BAB4
:1033E00013B56C46031D84E8060094E8030083E8E7
:1033F0000500012002B010BD73B58568019155B17B
:103400001B885B0707D4D0E900369B6B9847019A6D
:10341000C1B23046A847012002B070BDF0B5866841
:1034200089B005460C465EB1BDF838305B070AD45A
:10343000D0E900379B6B98472246C1B23846B04767
:10344000012009B0F0BD0022002301F10806CDE9FA
:10345000002300230A46ADF8083003AB1068083299
:1034600052F8041C1C46B24203C42346F6D110682D
:1034700020609288A280FFF7B1FF0423ADF80830E6
:103480002B68CDE90001DB6B694628469847D7E7F2
:10349000082817D909280CD00A280CD00B280CD0E2
:1034A0000C280CD00D280CD00E2814BF4020302042
:1034B00070470C2070471020704714207047182068
:1034C00070472020704700002DE9F041456A15B98A
:1034D0004162BDE8F0814B68AC4623F06047C3F31E
:1034E0008A464FEAD37EC3F3807816EA230638BFB4
:1034F0003E462B465A68BEEBD27F22F060440AD08B
:10350000002A18DAA40CB44217D19D420FD10D60E5
:10351000DEE71346EEE7A74207D102F08044C2F38C
:10352000807242450BD054B1EFE708D2EDE7CCF8FA
:1035300000100B60CDE7B44201D0B442E5D81A6860
:103540009C46002AE5D11960C3E700002DE9F04749
:10355000089D01F0070400EBD1004FF47F494FEACA
:10356000D508224405F00705944201D1BDE8F08753
:1035700004F0070705F0070A111B08EBD50E5745A5
:103580003E4613F80EC038BF5646C6F108068E42B6
:1035900028BF0E46E108415C34443544B94029FA5D
:1035A00006F721FA0AF1FFB28CEA010147FA0AF79D
:1035B00039408CEA010C03F80EC0D5E780EA0120FF
:1035C000082341F2210201B2013B4000002980B2F0
:1035D000B8BF504013F0FF03F5D1704738B50C4623
:1035E0008D18A54200D138BD14F8011BFFF7E6FF86
:1035F000F7E7000042684AB1136881894360438954
:1036000001339BB29942438138BF83811046704792
:1036100070B588B0044620220D4668460021FEF7AA
:10362000E3F920460495FFF7E5FF024660B16B46DB
:10363000054608AE1C46083503CCB44245F8080CD4
:1036400045F8041C2346F5D1104608B070BD0000B3
:10365000082817D909280CD00A280CD00B280CD020
:103660000C280CD00D280CD00E2814BF4020302080
:1036700070470C20704710207047142070471820A6
:103680007047202070470000082817D90C280CD953
:1036900010280CD914280CD918280CD920280CD99A
:1036A00030288CBF0F200E207047092070470A2059
:1036B00070470B2070470C2070470D2070470000AA
:1036C0002DE9F843078C0446072F1ED900254FF635
:1036D000FF73D0E90298C5F12006A5F1200029FA70
:1036E00005F1083508FA06F628FA00F031430143DF
:1036F0001846C9B2FFF762FF402D0346EBD13A46A8
:10370000E169BDE8F843FFF769BF4FF6FF70BDE818
:10371000F883000010B54B6823B9CA8A63F3090225
:10372000CA8210BD04691A681C600361C38A013B28
:10373000C3824A60EFE700002DE9F84F1D46CB8AAF
:103740000F468146C3F30901924605290B4630D046
:103750000020AAB207F11A049EB21FFA80F8042EC4
:103760000FD8904503F1010306D30A44FB8A62F3A4
:1037700009030120FB821AE01AF800600130E654C8
:10378000EAE79045F1D2A1F1050B1C237C68BBFB55
:10379000F3F203FB12BB1FFA8BF6002C45D148460F
:1037A000FFF728FF044638B978606FF00200BDE8E3
:1037B000F88F4FF00008E6E7002606607860ADB2AB
:1037C0004FF0000B454510D90AEB0803221D13F8F2
:1037D000011B08F101089155B1B21FFA88F81B29A5
:1037E0002BD0454506F10106F1D8FB8AC3F3090247
:1037F000154465F30903BCE701321C4692B2236805
:10380000002BF9D16B1F0B441C21B3FBF1F30133E7
:103810009BB29A42D3D2BBF1000FD0D14846FFF7FA
:10382000E9FE20B9C4F800B0BFE70122E7E7C0F81D
:1038300000B05E4620600446C1E74545D5D94846FC
:10384000FFF7D8FE08B92060AFE7C0F800B0002647
:1038500020600446B6E700002DE9F04F1C460746FD
:1038600088462DED028B83B05B690192002B00F03E
:103870009A80238C2BB1E269002A00F09480072BF8
:1038800035D807F10C00FFF7B5FE054638B96FF0E3
:103890000205284603B0BDEC028BBDE8F08F142270
:1038A0000021FEF7A1F8228CE16905F10800FEF77E
:1038B00089F8208C48F00041013080B2FFF7E4FE27
:1038C000FFF7C6FE013880B22084013028743846E4
:1038D0006369228C1B782A4403F01F0363F03F03C3
:1038E000137269602946FFF7EFFD0125D1E74FF01C
:1038F000000900F10C034FF0800A4E464D4608EED9
:10390000103A18EE100AFFF775FE83460028BED065
:1039100014220021FEF768F8002E3AD1019B022202
:10392000ABF808300BF1080E1FFA82FC218C0CF169
:103930000100BCF1060F80B201D88E422BD3FFF7F5
:10394000A3FE8E4208BF4FF0400AFFF781FE626976
:103950000138013512781BFA80F1013002F01F02A4
:103960002DB242EA491289F001094AEA020A48F0F6
:10397000004281F808A059468BF810003846CBF871
:1039800004204FF0000AFFF79FFD238CB342B8D10B
:103990007FE70022C6E7E169895D01360EF8021073
:1039A000B6B20132C0E76FF0010572E7F8B515460F
:1039B0000E463022002104461F46FEF715F8069BEE
:1039C000B5F5001FA760636004F11000079B34BFCA
:1039D0006A094FF6FF72E661A362002397B29A422A
:1039E00006D800230360A782E3822383E360F8BD47
:1039F0000660013330462036F1E7000003781BB93A
:103A00004BB2002BC8BF01707047000000787047B0
:103A1000F8B50C46C969074611B9238C002B37D17C
:103A2000257E1F2D34D8387828BB228C072A2CD825
:103A3000268A36F003032BD14FF6FF70FFF7CEFD39
:103A400020F0010031024FF6FF72400441EA0561A7
:103A5000400C41EA4025234629463846FFF7FCFE44
:103A6000002807DD626913780133DBB21F2B88BFA2
:103A700000231370F8BD218A2D0645EA0125054370
:103A80002046FFF71DFE0246E5E76FF00300F1E771
:103A90006FF00100EEE7000070B58AB004461646EC
:103AA0000021282268461D46FDF79EFFBDF83830EC
:103AB00069462046ADF810300F9B05939DF84030C5
:103AC0008DF81830119B0793BDF84830CDE9026599
:103AD000ADF82030FFF79CFF0AB070BD2DE9F04132
:103AE000D36905460C4616460BB9138C5BBB377E73
:103AF0001F2F28D895F80080B8F1000F26D0304647
:103B0000FFF7DEFD337821020246284641EAC33141
:103B1000338A41EA080141EA076141EA0341334639
:103B200041F08001FFF798FE00280ADD3378012B71
:103B300007D1726913780133DBB21F2B88BF0023D2
:103B40001370BDE8F0816FF00100FAE76FF0030039
:103B5000F7E70000F0B58BB004460D46174600218C
:103B6000282268461E46FDF73FFF9DF84C30294647
:103B700020465A1E534253416A468DF800309DF844
:103B80004030ADF81030119B05939DF848308DF80A
:103B90001830149B0793BDF85430CDE90276ADF888
:103BA0002030FFF79BFF0BB0F0BD0000406A00B172
:103BB00004307047436A1A68426202691A600361FE
:103BC000C38A013BC38270472DE9F041D0F82080C1
:103BD00014461D46184E4146002709B9BDE8F0813C
:103BE000D1E90223A21A65EB0303964277EB0303A4
:103BF0001ED2036A8B420DD1FFF78CFD036A1B684E
:103C0000036203690B60C38A0161013B016AC382DD
:103C10008846E2E7FFF77EFD0B68C8F800300369CD
:103C20000B60C38A0161013BC382D8F80010D4E75E
:103C300088460968D1E700BF80841E002DE9F04F57
:103C40008BB00D4614469B46DDF850908046002808
:103C500000F01881B9F1000F00F01481531E3F2BC2
:103C600000F21081012A03D1BBF1000F40F00A815C
:103C70000023CDE90833B8F81430B5EBC30F4FEA91
:103C8000C30703D300200BB0BDE8F08F2B199F4270
:103C9000D8F80C3036BF7F1B2746FFB21BB9D8F8C7
:103CA0001030002B7AD0272D4DD8C5F128060023DF
:103CB0002946B742009308ABD8F808002CBFF6B2EB
:103CC0003E46A7EB060A354432465FFA8AFAFFF70A
:103CD0003DFCB8F81430282103F10053053BDB000C
:103CE0000493D8F80C300393039B13B1BAF1000F7F
:103CF0002CD1D8F8100040B1BAF1000F05D008ABB4
:103D00005246691A0096FFF721FC38B2002FB9D04D
:103D100066070AD00AAB624203EBD40102F0070245
:103D200011F8083C134101F8083C082C3DD9102C2F
:103D300040F2B580202C40F2B780BBF1000F00F0BC
:103D40009C80082335E0BA460026C2E7049BE02B9E
:103D500028BFE02306930B44AB42059315D95A1BA9
:103D60000398691A0096924508AB00F1040034BF2D
:103D70005246D2B20792FFF7E9FB079A1644AAEB24
:103D8000020A1544F6B25FFA8AFA049B069A05996C
:103D90009B1A0493039B1B680393A5E700933A4681
:103DA00008AB2946D8F80800ADE7BBF1000F13D0E7
:103DB0000123B4EBC30F6BD0082C12D89DF8203030
:103DC000621E23FA02F2D50706D54FF0FF3202FA3F
:103DD00004F423438DF820309DF8203089F800301A
:103DE00051E7102C12D8BDF82030621E23FA02F2DF
:103DF000D10706D54FF0FF3202FA04F42343ADF8A1
:103E00002030BDF82030A9F800303CE7202C0FD836
:103E10000899631E21FA03F3DA0705D54FF0FF3244
:103E200002FA04F40C430894089BC9F800302AE70E
:103E3000402C2AD0611EC4F12102A4F12103DDE946
:103E4000086526FA01F105FA02F225FA03F3114397
:103E50001943CB0711D50122A4F12003C4F120019D
:103E600002FA03F322FA01F1A2400B43524263EB40
:103E7000430332432B43CDE90823DDE90823C9E995
:103E8000002300E76FF00100FDE66FF00800FAE69E
:103E9000082CA1D9102CB4D9202CEED8C4E7BBF142
:103EA000000FAED0022384E7BBF1000FBCD0042387
:103EB0007FE70000012A30B5144638BF012485B0E1
:103EC0000025402C28BF4024012ACDE9025518D8EE
:103ED0001B788DF8083063070AD004AB624203EB0D
:103EE000D40502F0070215F8083C934005F8083C99
:103EF000034600912246002102A8FFF727FB05B0E8
:103F000030BD082AE4D9102A03D81B88ADF8083040
:103F1000E1E7202A95BF1B68D3E900230293CDE98E
:103F20000223D8E710B5CB681BB98B600B618B827D
:103F300010BD04691A681C600361C38A013BC38217
:103F4000CA60F0E703064CBFC0F3C03002207047E0
:103F500008B50246FFF7F6FF022806D15306C2F362
:103F60000F2001D100F0030008BDC2F30740FBE7BA
:103F70002DE9F04F93B004460D46CDE903230A68BE
:103F80001046FFF7DFFF0228824614BFC2F3062661
:103F90000026002A80F2F88112F0C04940F0F48136
:103FA000097B002900F0F081022803D02378B34276
:103FB00040F0ED81C2F3046310462944069302F0F9
:103FC0007F030593FFF7C4FF059B002283464FEA5A
:103FD0008348002348EA0A4848EA4668CE78CDE993
:103FE0000823F30948EA0008029368D0059B0246BB
:103FF00008A92046009353466768B847002800F098
:10400000C981276A4FB9414604F10C00FFF700FB54
:10401000074690B96FF0020055E03B6998450DD016
:104020003F68002FF9D1414604F10C00FFF7F0FA88
:1040300007460028EED0236A3B60276297F817C036
:1040400006F01F08CCF3840CACEB0800A8EB0C03C3
:104050001FFA80FE0028B8BF0EF120001FFA83FE71
:10406000B8BF00B2002B0793B8BF0EF12003D7E909
:104070000221BCBF1BB2079352EA010338D0039B55
:104080004FF0000CDFF81CE39A1A049B63EB01016C
:1040900096457CEB01032BD36B7B97F81AE07345B5
:1040A00019D1029B002B78D0012821DC7868F8B95F
:1040B000DFF8ECC2944570EB010316D337E0276AB2
:1040C00027B96FF00C0013B0BDE8F08F3B6998453D
:1040D000B4D03F68F4E7B24890427CEB010301D3CF
:1040E0000020F0E7029B002BFAD0079B0F2B17DC78
:1040F000FA7DB3003946204602F0030203F07C0348
:104100001343FB75FFF706FB6B7BBB76029B3BB94A
:10411000FB7DC3F38402013262F38603FB75D0E7B3
:104120006A7BBB7E9A42DBD1029B002B35D0B30960
:10413000022B32D0039B142200210DA8BB60049BEC
:10414000FB60FDF751FC039B0AA920460A93049BE0
:10415000ADF83EB00B932B1D8DF840A00C932B7B3C
:104160008DF84180013BDBB2ADF83C30069B8DF809
:104170004230059B8DF8433094F82C3083F00103D6
:104180008DF84430A3689847FB7DC3F38403013363
:1041900003F01F039B02FB82A2E7FB7DC6F34012E4
:1041A000B2EBD31F40F0F980C3F38403434540F0E2
:1041B000FB80029AB6092B7B002A52D016F001062A
:1041C00061D1032B40F2F380039B394604F10C00CC
:1041D000BB60049BFB60FB8A66F30903AE1DFB8298
:1041E00032462B7B033BDBB2FFF7A6FA00280CDA42
:1041F00039462046FFF78EFAFB7DC3F38403013373
:1042000003F01F039B02FB8204E7AB88DDE908840F
:104210003B834FF6FF73C9F12000A9F1200228FA71
:1042200009F109F1080904FA00F024FA02F2014345
:1042300018461143C9B2FFF7C1F9B9F1400F03465F
:10424000E9D1B88231462A7B033AD2B2FFF7C6F9E8
:10425000FB7DB882DA43C2F3C01262F3C713FB7569
:104260003EE786B92E1D013B394604F10C00DBB256
:104270003246FFF761FA0028BADB2A7B3146B88A5A
:10428000013AD2B2E2E7F98A013BC1F30901DAB29D
:1042900004295BD8281D002307F11B069A4208D980
:1042A00010F801CB013306F801C00131DBB205295A
:1042B000F4D1039993420A9138BF043304992CBF77
:1042C000002355FA83F30B9107F11B010C917968D8
:1042D0000E930D91291DFB8AADF83EB0C3F309037F
:1042E0008DF840A08DF841801A44069B8DF842302D
:1042F000059BADF83C208DF8433094F82C3083F0CA
:1043000001038DF844300023B88A7B602A7B013A90
:10431000FFF764F93B8BB882834203D1A3680AA9F3
:104320002046984720460AA9FFF7FCFDFB7DBA8A84
:10433000C3F38403013303F01F039B02FB823B8B17
:104340009A420CBF00206FF01000BCE67B68002B87
:10435000AFD0052001E01C3033461E68002EFAD194
:10436000091A2E1D081D184401EB090C5FFA89F388
:10437000BCF11B0F9DD89A429BD916F8013B09F15D
:10438000010900F8013BEFE76FF009009BE66FF0D1
:104390000A0098E66FF00B0095E66FF00D0092E6CC
:1043A00040420F0080841E006FF00E008BE66FF01D
:1043B0000F0088E6EFF30983054968334A6B22F062
:1043C00001024A6383F30988002383F3118870474D
:1043D00000EF00E0302080F3118862B60D4B0E4AEA
:1043E000D96821F4E0610904090C0A430B49DA6039
:1043F000D3F8FC2042F08072C3F8FC20084AC2F8CF
:10440000B01F116841F0010111602022DA7783F8B2
:104410002200704700ED00E00003FA0555CEACC560
:10442000001000E0302310B583F311880E4B5B6859
:1044300013F4006314D0F1EE103AEFF309844FF057
:104440008073683CE361094BDB6B236684F3098866
:1044500000F070FE10B1064BA36110BD054BFBE7E9
:1044600083F31188F9E700BF00ED00E000EF00E002
:104470003F0400084204000808B5074B074A1968C2
:1044800001F03D01996053680BB190689847BDE811
:104490000840FFF7C7BF00BF00000240C463002010
:1044A00008B5084B1968890901F03D018A019A6035
:1044B000054AD3680BB110699847BDE80840FFF77B
:1044C000B1BF00BF00000240C463002008B5084B24
:1044D0001968090C01F03D010A049A60054A536904
:1044E0000BB190699847BDE80840FFF79BBF00BF3C
:1044F00000000240C463002008B5084B1968890D0C
:1045000001F03D018A059A60054AD3690BB1106A32
:104510009847BDE80840FFF785BF00BF0000024094
:10452000C463002008B5074B074A596801F03D01F4
:10453000D960536A0BB1906A9847BDE80840FFF70D
:1045400071BF00BF00000240C463002008B5084BE3
:104550005968890901F03D018A01DA60054AD36A88
:104560000BB1106B9847BDE80840FFF75BBF00BF79
:1045700000000240C463002008B5084B5968090CCC
:1045800001F03D010A04DA60054A536B0BB1906BF0
:104590009847BDE80840FFF745BF00BF0000024054
:1045A000C463002008B5084B5968890D01F03D012E
:1045B0008A05DA60054AD36B0BB1106C9847BDE8E9
:1045C0000840FFF72FBF00BF00000240C463002077
:1045D00008B5074B074A196801F03D019960536C13
:1045E0000BB1906C9847BDE80840FFF71BBF00BFB8
:1045F00000040240C463002008B5084B196889090B
:1046000001F03D018A019A60054AD36C0BB1106D2F
:104610009847BDE80840FFF705BF00BF000402400F
:10462000C463002008B5084B1968090C01F03D016E
:104630000A049A60054A536D0BB1906D9847BDE826
:104640000840FFF7EFBE00BF00040240C463002033
:1046500008B5084B1968890D01F03D018A059A607B
:10466000054AD36D0BB1106E9847BDE80840FFF7BF
:10467000D9BE00BF00040240C463002008B5074B48
:10468000074A596801F03D01D960536E0BB1906E35
:104690009847BDE80840FFF7C5BE00BF00040240D0
:1046A000C463002008B5084B5968890901F03D0131
:1046B0008A01DA60054AD36E0BB1106F9847BDE8E6
:1046C0000840FFF7AFBE00BF00040240C4630020F3
:1046D00008B5084B5968090C01F03D010A04DA607D
:1046E000054A536F0BB1906F9847BDE80840FFF73C
:1046F00099BE00BF00040240C463002008B5084B07
:104700005968890D01F03D018A05DA60054AD36FC9
:1047100013B1D2F880009847BDE80840FFF782BE89
:1047200000040240C463002000230C4910B51A465F
:104730000B4C0B6054F82300026001EB4300043380
:104740004260402BF6D1074A4FF0FF339360D360AD
:10475000C2F80834C2F80C3410BD00BFC463002096
:1047600088680008000002400F28F8B510D910280A
:1047700010D0112811D0122808D10F240720DFF8FB
:10478000B4E00126DEF80050A04208D9002649E036
:104790000446F4E70F240020F1E70724FBE706FABC
:1047A00000F73D4240D1214C4FEA001C3D4304EB51
:1047B00000160EEBC000CEF80050C0E90123FBB29A
:1047C0004BB11B48836B43F001038363036E43F0DB
:1047D00001030366036E17F47F4F09D01448836BFF
:1047E00043F002038363036E43F002030366036E28
:1047F00054F80C00036823F01F030360056815F0EC
:104800000105FBD104EB0C033D2493F80CC05F6859
:1048100004FA0CF43C6021240560446112B1987BD9
:1048200000F00EFA3046F8BD0130ADE788680008A8
:1048300000450258C463002010B5302484F3118869
:10484000FFF792FF002383F3118810BD10B50446D3
:10485000807B00F00BFA01231049627B03FA02F21D
:104860000B6823EA0203DAB20B604AB90C4A916B77
:1048700021F001019163116E21F001011166126EA8
:1048800013F47F4F09D1064B9A6B22F002029A6310
:104890001A6E22F002021A661B6E10BDC46300205D
:1048A0000045025808B5302383F31188FFF7CEFF87
:1048B000002383F3118808BD0023054A19460133FC
:1048C000102BC2E9001102F10802F8D1704700BFB5
:1048D000486400202DE9F74F02F0030AC2F3C31326
:1048E000C2F38009C2F3C108C2F3411E5746002239
:1048F0004FF00F0B0193CB0733D502F00703019C58
:10490000012556009B00BAF1020F05FA02F504FAE0
:1049100003FC44680BFA03F324EA05046FEA03037B
:1049200044EA090444604FF00304856804FA06F67B
:1049300025EA06056FEA060445EA08058560C568AC
:1049400025EA060545EA0E05C5601BD1072A13D8DE
:10495000056A2B4043EA0C03036203681C403C4396
:104960000460490822D04FEA490901324FEA880819
:104970004FEA8E0EBF00BEE7456A2B4043EA0C03A8
:104980004362EAE70568072A04EA050444EA0704E3
:10499000046005D8046A234043EA0C030362E0E79D
:1049A000446A234043EA0C034362DAE703B0BDE8FC
:1049B000F08F0000026843681143016003B118479B
:1049C00070470000024A136843F0C0031360704749
:1049D00000100140024A136843F0C003136070479F
:1049E000007C004037B51A4C1A4D204600F0E8FA1A
:1049F00004F11400009400234FF40072164900F0F3
:104A0000A5F94FF40072154904F138000094144BD5
:104A100000F01EFA134BC4E91735134C204600F082
:104A2000CFFA04F1140000234FF400720F490094F0
:104A300000F08CF90E4B4FF400720E4904F138006F
:104A4000009400F005FA0C4BC4E9173503B030BDF3
:104A5000C864002000E1F505A0650020A0690020E1
:104A6000C54900080010014034650020A0670020FF
:104A7000D5490008A06B0020007C0040037C30B5C5
:104A8000284C002918BF0C46012B0CD1264B98420C
:104A900036D1264B1A6D42F010021A659A6F42F019
:104AA00010029A679B6F2268036EC16D03EB52037D
:104AB0008466B3FBF2F36268150442BF23F0070576
:104AC00003F0070343EA4503CB60A36843F04003C8
:104AD0004B60E36843F001038B6042F4967343F04C
:104AE00001030B604FF0FF330B62510505D512F047
:104AF000102213D0B2F1805F12D080F8643030BD44
:104B00000B4B9842CFD1094B9A6C42F000429A6409
:104B10001A6F42F000421A671B6FC4E77F23ECE76D
:104B20003F23EAE788690008C8640020004502586E
:104B3000346500202DE9F047C66D05463768F469F5
:104B4000210734621AD014F0080118BF4FF48071A5
:104B5000E20748BF41F02001A3074FF0300348BFF0
:104B600041F04001600748BF41F0800183F31188A4
:104B7000281DFFF71FFF002383F31188E2050AD5E4
:104B8000302383F311884FF48061281DFFF712FF53
:104B9000002383F311884FF030094FF0000A14F01E
:104BA000200838D13B0616D54FF0300905F1380AF8
:104BB000200610D589F31188504600F07DF90028B1
:104BC00036DA0821281DFFF7F5FE27F08003336051
:104BD000002383F31188790614D5620612D5302399
:104BE00083F31188D5E913239A4208D12B6C33B192
:104BF00027F040071021281DFFF7DCFE3760002357
:104C000083F31188E30618D5AA6E1369ABB1506916
:104C1000BDE8F047184789F31188736A284695F86C
:104C20006410194000F0E6F98AF31188F469B6E7D8
:104C3000B06288F31188F469BAE7BDE8F087000034
:104C4000090100F16043012203F56143C9B283F811
:104C5000001300F01F039A4043099B0003F16043D7
:104C600003F56143C3F880211A60704700F01F0309
:104C700001229A40430900F160409B0000F5614029
:104C800003F1604303F56143C3F88020C3F880213A
:104C9000002380F800337047F8B515468268044653
:104CA0000B46AA4200D28568A1692669761AB542E8
:104CB0000BD218462A46FCF785FEA3692B44A36154
:104CC0002846A3685B1BA360F8BD0CD9AF1B184630
:104CD0003246FCF777FE3A46E1683044FCF772FE54
:104CE000E3683B44EBE718462A46FCF76BFEE368B3
:104CF000E5E7000083689342F7B50446154600D205
:104D00008568D4E90460361AB5420BD22A46FCF70E
:104D100059FE63692B4463612846A3685B1BA3604B
:104D200003B0F0BD0DD93246AF1B0191FCF74AFE2E
:104D300001993A46E0683144FCF744FEE3683B449D
:104D4000E9E72A46FCF73EFEE368E4E710B50A44CB
:104D50000024C361029B8460C16002610362C0E9F8
:104D60000000C0E9051110BD08B5D0E90532934235
:104D700001D1826882B98268013282605A1C426124
:104D800019700021D0E904329A4224BFC3684361FC
:104D900000F076FA002008BD4FF0FF30FBE700007E
:104DA00070B5302304460E4683F31188A568A5B17B
:104DB000A368A269013BA360531CA3611578226913
:104DC000934224BFE368A361E3690BB1204698478F
:104DD000002383F31188284607E03146204600F07F
:104DE0003FFA0028E2DA85F3118870BD2DE9F74F0C
:104DF00004460E4617469846D0F81C904FF0300AED
:104E00008AF311884FF0000B154665B12A463146EA
:104E10002046FFF741FF034660B94146204600F0B7
:104E20001FFA0028F1D0002383F31188781B03B008
:104E3000BDE8F08FB9F1000F03D001902046C847BC
:104E4000019B8BF31188ED1A1E448AF31188DCE76D
:104E5000C160C361009B82600362C0E90511114417
:104E6000C0E9000001617047F8B504460D461646DA
:104E7000302383F31188A768A7B1A368013BA3601F
:104E800063695A1C62611D70D4E904329A4224BFDE
:104E9000E3686361E3690BB120469847002080F323
:104EA000118807E03146204600F0DAF90028E2DAFE
:104EB00087F31188F8BD0000D0E9052310B59A42A8
:104EC00001D182687AB982680021013282605A1C5D
:104ED00082611C7803699A4224BFC368836100F031
:104EE000CFF9204610BD4FF0FF30FBE72DE9F74F1B
:104EF00004460E4617469846D0F81C904FF0300AEC
:104F00008AF311884FF0000B154665B12A463146E9
:104F10002046FFF7EFFE034660B94146204600F009
:104F20009FF90028F1D0002383F31188781B03B088
:104F3000BDE8F08FB9F1000F03D001902046C847BB
:104F4000019B8BF31188ED1A1E448AF31188DCE76C
:104F5000026843681143016003B1184770470000BD
:104F60001430FFF743BF00004FF0FF331430FFF75A
:104F70003DBF00003830FFF7B9BF00004FF0FF33EE
:104F80003830FFF7B3BF00001430FFF709BF00004F
:104F90004FF0FF311430FFF703BF00003830FFF748
:104FA00063BF00004FF0FF323830FFF75DBF0000F5
:104FB000012914BF6FF0130000207047FFF712BDE6
:104FC000044B036000234360C0E9023301230374F0
:104FD000704700BFA069000810B53023044683F372
:104FE0001188FFF74BFD02230020237480F3118802
:104FF00010BD000038B5C36904460D461BB9042135
:105000000844FFF7A5FF294604F11400FFF7ACFEA2
:10501000002806DA201D4FF40061BDE83840FFF794
:1050200097BF38BD00238268037503691B689968C0
:105030009142FBD25A68036042601060586070472A
:1050400000238268037503691B6899689142FBD845
:105050005A680360426010605860704708B508469F
:10506000302383F311880A7D0023052A06D8DFE860
:1050700002F00B050503120E826913604FF0FF3337
:105080008361FFF7CFFF002383F3118808BD826996
:10509000936801339360D0E9003213605A60EDE702
:1050A000FFF7C0BF054BD9680875186802685360E0
:1050B0001A600122D8600275FBF7ACB9A06D002020
:1050C0000C4B30B5DD684B1C87B004460FD02B4627
:1050D000094A684600F066F92046FFF7E3FF009BA7
:1050E00013B1684600F068F9A86907B030BDFFF752
:1050F000D9FFF9E7A06D00205D50000838B50C4DD0
:1051000004468161EB6881689A68914203D8BDE8E2
:105110003840FFF787BF1846FFF792FF012301468B
:10512000EC6020462375BDE83840FBF773B900BF3B
:10513000A06D0020044B1A68DB6890689B68984259
:1051400094BF002001207047A06D0020084B10B5CF
:105150001C68D868226853601A600122DC602275DE
:10516000FFF76EFF01462046BDE81040FBF752B93D
:10517000A06D002038B50123084C00252370656020
:1051800000F0ACFD00F0D2FD0549064800F0A6FE97
:105190000223237085F3118838BD00BF08700020FA
:1051A000CC690008A06D002008B572B6044B1865E4
:1051B00000F0BEFB00F080FC024B03221A70FEE7F9
:1051C000A06D00200870002000F02CB98B60022335
:1051D000086108468B8270478368A3F1840243F814
:1051E000142C026943F8442C426943F8402C094AC4
:1051F00043F8242CC268A3F1200043F8182C0222A3
:1052000003F80C2C002203F80B2C034A43F8102C53
:10521000704700BF2D040008A06D002008B5FFF7FF
:10522000DBFFBDE80840FFF73BBF0000024BDB6837
:1052300098610F20FFF736BFA06D0020302383F365
:105240001188FFF7F3BF000008B50146302383F350
:1052500011880820FFF734FF002383F3118808BD6D
:10526000064BDB6839B1426818605A6013604360CE
:105270000420FFF725BF4FF0FF307047A06D0020DE
:105280000368984206D01A68026050601846996117
:10529000FFF706BF70470000036810B59C68A24284
:1052A0000CD85C688A600B604C602160596099681A
:1052B0008A1A9A604FF0FF33836010BD121B1B687F
:1052C000ECE700000A2938BF0A2170B504460D46F4
:1052D0000A26601900F0FCFC00F0E4FC041BA54267
:1052E00003D8751C04462E46F3E70A2E04D9012084
:1052F000BDE8704000F032BE70BD0000F8B5144B40
:105300000D460A2A4FF00A07D96103F110018260A5
:1053100038BF0A224160196914460160486018616B
:10532000A81800F0C5FC00F0BDFC431B0646A342D4
:1053300006D37C1C28192746354600F0C9FCF2E745
:105340000A2F04D90120BDE8F84000F007BEF8BDDF
:10535000A06D0020F8B506460D4600F0A3FC0F4AEC
:10536000134653F8107F9F4206D12A460146304625
:10537000BDE8F840FFF7C2BFD169BB68441A2C19D9
:1053800028BF2C46A34202D92946FFF79BFF22469D
:1053900031460348BDE8F840FFF77EBFA06D00200E
:1053A000B06D0020C0E90323002310B45DF8044B66
:1053B0004361FFF7CFBF000010B5194C2369984235
:1053C0000DD08168D0E9003213605A609A680A44AF
:1053D0009A60002303604FF0FF33A36110BD0268A1
:1053E000234643F8102F53600022026022699A423C
:1053F00003D1BDE8104000F065BC936881680B44A0
:10540000936000F04FFC2269E1699268441AA2425D
:10541000E4D91144BDE81040091AFFF753BF00BF9B
:10542000A06D00202DE9F047DFF8BC8008F11007DF
:105430002C4ED8F8105000F035FCD8F81C40AA6863
:10544000031B9A423ED814444FF00009D5E90032BC
:10545000C8F81C4013605A60C5F80090D8F81030A6
:10546000B34201D100F02EFC89F31188D5E9033154
:1054700028469847302383F311886B69002BD8D0D6
:1054800000F010FC6A69A0EB040982464A450DD27F
:10549000022000F063FD0022D8F81030B34208D19A
:1054A00051462846BDE8F047FFF728BF121A2244AC
:1054B000F2E712EB09092946384638BF4A46FFF79A
:1054C000EBFEB5E7D8F81030B34208D01444C8F862
:1054D0001C00211AA960BDE8F047FFF7F3BEBDE844
:1054E000F08700BFB06D0020A06D002038B500F03F
:1054F000D9FB054AD2E90845031B181945F10001FB
:10550000C2E9080138BD00BFA06D0020002070472F
:10551000FEE70000704700004FF0FF3070470000CA
:10552000BFF34F8F044B1A695107FCD1D3F81021F8
:105530005207F8D1704700BF0020005208B50D4B4C
:105540001B78ABB9FFF7ECFF0B4BDA68D10704D53A
:105550000A4A5A6002F188325A60D3F80C21D20705
:1055600006D5064AC3F8042102F18832C3F80421A3
:1055700008BD00BF107000200020005223016745C5
:1055800008B5114B1B78F3B9104B1A69510703D5B5
:10559000DA6842F04002DA60D3F81021520705D5EC
:1055A000D3F80C2142F04002C3F80C21FFF7B8FFFA
:1055B000064BDA6842F00102DA60D3F80C2142F0BF
:1055C0000102C3F80C2108BD107000200020005219
:1055D0000F289ABF00F5806040040020704700004B
:1055E0004FF4003070470000102070470F2808B5B6
:1055F0000BD8FFF7EDFF00F500330268013204D14C
:1056000004308342F9D1012008BD0020FCE70000EE
:105610000F2838B505463FD8FFF782FF1F4CFFF72C
:105620008DFF4FF0FF3307286361C4F814311DD894
:105630002361FFF775FF030243F02403E360E3688F
:1056400043F08003E36023695A07FCD42846FFF740
:1056500067FFFFF7BDFF4FF4003100F009FA28465D
:10566000FFF78EFFBDE83840FFF7C0BFC4F8103128
:10567000FFF756FFA0F108031B0243F02403C4F810
:105680000C31D4F80C3143F08003C4F80C31D4F859
:1056900010315B07FBD4D9E7002038BD0020005251
:1056A0002DE9F84F05460C46104645EA0203DE0692
:1056B00002D00020BDE8F88F20F01F00DFF8BCB05A
:1056C000DFF8BCA0FFF73AFF04EB0008444503D124
:1056D0000120FFF755FFEDE720222946204601F083
:1056E0000DF810B920352034F0E72B4605F12002E3
:1056F0001F68791CDDD104339A42F9D105F1784352
:105700001B481C4EB3F5801F1B4B38BF184603F1D6
:10571000F80332BFD946D1461E46FFF701FF0760A6
:10572000A5EB040C336804F11C0143F00203336061
:10573000231FD9F8007017F00507FAD153F8042F8A
:105740008B424CF80320F4D1BFF34F8FFFF7E8FEF4
:105750004FF0FF332022214603602846336823F0B0
:105760000203336000F0CAFF0028BBD03846B0E720
:10577000142100520C20005214200052102000521C
:105780001021005210B5084C237828B11BB9FFF73F
:10579000D5FE0123237010BD002BFCD02070BDE886
:1057A0001040FFF7EDBE00BF107000202DE9F04F54
:1057B0000D4685B0814658B111F00D0614BF202268
:1057C000082211F00803019304D0431E03426AD05B
:1057D000002435E0002E37D009F11F0121F01F0908
:1057E0004FF00108324F05F00403DFF8D0A005EABE
:1057F000080BBBF1000F32D07869C0072FD408F135
:1058000001080C37B8F1060FF3D19EB9294D49466E
:10581000A819019200F0ACFA044600283AD11836D3
:10582000019A782EF3D1494600F0A2FA04460028E6
:1058300030D1019A4946204800F09AFA044668BBE4
:10584000204605B0BDE8F08F0029C9D101462846A1
:10585000029200F08DFA0446E0B9029AC0E713B153
:1058600078694107CBD5AC0702D578698007C6D5E2
:10587000019911B178690107C1D51820494600FB8B
:1058800008A0CDE9022300F073FA0446DDE9022303
:105890000028B4D04A460021204601E04A460021B3
:1058A000FCF7A2F8CCE70246002E95D198E700BF9E
:1058B000D869000844700020147000202C7000206B
:1058C0000121FFF773BF0000F8B5144D012418271C
:1058D000134E40F2FF3200210120FCF785F807FB50
:1058E000046001342A6955F80C1F00F02DFA062CCB
:1058F000F5D137254FF4C0542046FFF7E1FF0146AC
:1059000028B122460748BDE8F84000F01DBAC4EBB4
:10591000C404013D4FEAD404EED1F8BDD8690008B3
:105920002C7000201470002008B100F093BA70476A
:1059300038B5054D00240334696855F80C0B00F0A8
:10594000A9F8122CF7D138BDD869000838B5EFF3A3
:1059500011859DB9EFF30584C4F30804302334B1F5
:1059600083F31188FFF7C2FD85F3118838BD83F3F7
:105970001188FFF7BBFD84F3118838BDBDE83840BE
:10598000FFF7B4BD10B5FFF7E1FF104CC008104A97
:10599000002340EA4170C908A0FB04ECA0FB020E02
:1059A0001CEB0000A1FB044CA1FB02125B4100199F
:1059B00043EB0C0011EB0E0142F10002411842F1E1
:1059C0000000090941EA007010BD00BFCFF753E3A2
:1059D000A59BC4200244074BD2B210B5904200D11F
:1059E00010BD441C00B253F8200041F8040BE0B293
:1059F000F4E700BF504000580E4B30B51C6F240434
:105A000005D41C6F1C671C6F44F400441C670A4CCF
:105A100002442368D2B243F480732360074B904260
:105A200000D130BD441C51F8045B00B243F8205053
:105A3000E0B2F4E7004402580048025850400058D1
:105A400007B5012201A90020FFF7C4FF019803B0A8
:105A50005DF804FB13B50446FFF7F2FFA04205D042
:105A6000012201A900200194FFF7C6FF02B010BD7A
:105A70000144BFF34F8F064B884204D3BFF34F8FCF
:105A8000BFF36F8F7047C3F85C022030F4E700BFAC
:105A900000ED00E00144BFF34F8F064B884204D372
:105AA000BFF34F8FBFF36F8F7047C3F87002203082
:105AB000F4E700BF00ED00E070470000114BDA6929
:105AC00052021ED59A69D00704D50F4A9A6002F196
:105AD00044329A600B4BDA69D107FCD41A6A22F47B
